:020000040800F2
:1000000000000320254F00088132000883320008D9
:10001000853200088732000889320008000000009D
:100020000000000000000000000000008B3200080B
:100030008D320008000000008F3200089132000865
:10004000754F0008754F0008754F0008754F000880
:10005000754F0008754F0008754F0008754F000870
:10006000754F0008754F0008754F0008754F000860
:10007000754F0008754F0008754F0008754F000850
:10008000754F0008754F0008754F0008754F000840
:10009000754F0008754F0008754F0008754F000830
:1000A000754F0008754F0008754F0008754F000820
:1000B000754F0008754F0008754F0008754F000810
:1000C000754F0008754F0008754F0008754F000800
:1000D000754F0008754F0008754F0008754F0008F0
:1000E00099320008754F0008754F0008754F0008D9
:1000F000754F0008754F0008754F0008754F0008D0
:10010000754F0008754F0008754F0008754F0008BF
:10011000754F0008754F0008A5320008BD32000871
:10012000754F0008754F0008754F0008754F00089F
:10013000754F0008754F0008754F0008754F00088F
:10014000754F0008754F0008754F0008754F00087F
:10015000754F0008754F0008754F0008754F00086F
:10016000754F0008754F0008754F0008754F00085F
:10017000754F0008754F0008754F0008000000001B
:10018000754F0008754F0008754F0008754F00083F
:10019000754F0008CD320008754F0008754F0008F4
:0C01A000754F0008754F0008754F0008EF
:1001B000044B05481B1A062B02D9044B03B1184700
:1001C000704700BF13000020100000200000000056
:1001D00005490648091A891001EBD171491002D06E
:1001E000034B03B118477047100000201000002097
:1001F0000000000010B5064C237843B9FFF7D8FF84
:10020000044B13B10448AFF300800123237010BDE9
:100210001000002000000000784F000808B5084BCF
:100220001BB108490848AFF300800848036813B9B8
:10023000BDE80840CCE7064B002BF9D09847F7E71C
:100240000000000014000020784F0008100000207B
:100250000000000070B50F4E0F4D761BB61018BF92
:10026000002405D0013455F8043B9847A642F9D143
:100270000A4E0B4D761B04F07FFEB61018BF00240B
:1002800006D0013455F8043B9847A642F9D170BD19
:1002900070BD00BF0053000800530008045300085D
:1002A0000053000870B4860746D0541E002A41D07F
:1002B000CAB2034602E014F1FF343BD303F8012B2A
:1002C0009D07F8D1032C2ED9CDB245EA05250F2C78
:1002D00045EA054519D903F110022646103E0F2EB6
:1002E00042F8105C42F80C5C42F8085C42F8045C8E
:1002F00002F11002F2D8A4F1100222F00F0204F071
:100300000F041032032C13440DD91E462246043A22
:10031000032A46F8045BFAD8221F22F003020432B3
:10032000134404F003042CB1C9B21C4403F8011BAC
:100330009C42FBD170BC704714460346C2E700BF25
:1003400000B551EC100B2C4A21F00043934285B0CC
:1003500027DD2A4A934209DD10EE102A0B4601F0F0
:10036000EFF941EC100B05B05DF804FB684600F0B6
:1003700047F800F00300012827D002281DD068B3F9
:100380009DED021B9DED000B00F062FA53EC102B6B
:1003900010EE100A03F1004141EC100B05B05DF8BE
:1003A00004FB00209FED121B00F0CEFF51EC100B60
:1003B00041EC100B05B05DF804FB01209DED021B24
:1003C0009DED000B00F0C0FFE0E79DED021B9DEDF1
:1003D000000B00F03DFA51EC100BC2E701209DED3F
:1003E000021B9DED000B00F0AFFF51EC100BB8E7C6
:1003F0000000000000000000FB21E93FFFFFEF7F4D
:100400002DE9F04753EC102B9D4923F000478F4214
:1004100090B040F391809B498F421C46824629DC74
:10042000002C194610EE100A8BA3D3E9002340F3E9
:10043000B18101F085F9944B9F4204460D4600F0CE
:10044000918087A3D3E9002301F07AF902460B4695
:10045000CAE900232046294601F072F980A3D3E9B6
:10046000002301F06DF90125CAE90201284610B008
:10047000BDE8F08785498F4240F3918084498F42DF
:1004800065DC3D15A5F21645A7EB0551104616464D
:100490000F4601F0A3FD01F0A1FA804689464246CD
:1004A0004B4630463946CDE90A8901F049F9002228
:1004B000784B01F0F9FA8946804601F08FFD01F092
:1004C0008DFA06460F4632463B4640464946CDE940
:1004D0000C6701F035F900226E4B01F0E5FA0022BD
:1004E0000023CDE90E0101F047FD002800F07081E6
:1004F000002330463946002201F03EFD002814BF9B
:1005000001230223644A019202212A4600910AA88B
:10051000514600F0E1FA002C054614DADAF804201E
:10052000DAF80C3002F1004203F100434542CAF808
:100530000420CAF80C3006E080ED000B00250024F2
:10054000C0E902450025284610B0BDE8F08710EE4E
:10055000100A194601F0F4F80025CAE90201CAE9B7
:100560000001F0E740A3D3E9002301F0E9F840A33C
:10057000D3E900230D46044601F0E2F802460B469B
:10058000CAE900232946204601F0DAF838A3D3E966
:10059000002301F0D5F80125CAE90201D3E700F0F4
:1005A0009DFF59EC108B10EE100A33A3D3E9002302
:1005B000494601F079FA0022384B01F0C3F801F006
:1005C0000DFD054601F00AFA23A3D3E90023CDE986
:1005D000060101F069FA02460B464046494601F021
:1005E000AFF81FA3D3E90023CDE90201DDE906013D
:1005F00001F05AFA1F2D80468946CDE9048951DC65
:10060000274B6A1E53F822309F424BD002460B46BE
:10061000DDE9020101F094F880468946CAE90089C3
:1006200042464B46DDE9020101F08AF8DDE9042388
:1006300001F086F8002CCAE9020184DA09F10044CD
:1006400001F100436D42CAF80080CAF80440CAF8BC
:100650000800CAF80C3076E700004054FB21F93F4F
:100660003163621A61B4D03D0000601A61B4D03DBC
:100670007370032E8A19A33B83C8C96D305FE43FB2
:10068000FB21E93F7BD90240FB21F93FFB213941A6
:10069000FFFFEF7F00007041245000080000E03FA2
:1006A000A44F0008DDE90423DDE9020101F048F868
:1006B0003F15C1F30A53FB1A80468946102BCAE93D
:1006C0000089ADDD58A3D3E90023DDE9060101F07F
:1006D000EBF98046894602460B46DDE9020101F04E
:1006E0002FF802460B46DDE90201CDE9082301F0AF
:1006F00027F842464B4601F023F84DA3D3E90023E7
:1007000080468946DDE9060101F0CEF942464B46B6
:1007100001F016F80B46CDE904010246DDE90801B7
:1007200001F00EF8C1F30A53FF1A80468946312FB3
:10073000CAE900896CDD41A3D3E90023DDE90601A4
:1007400001F0B2F9DDE9088906460F4602460B467C
:100750004046494600F0F4FF02460B4640464946F3
:10076000CDE9022300F0ECFF32463B4600F0E8FF03
:1007700034A3D3E9002306460F46DDE9060101F064
:1007800093F932463B4600F0DBFF02460B46CDE9CB
:1007900004233DE700F0D6FF274B9F4204460D4659
:1007A00018D01FA3D3E9002300F0CCFF02460B466C
:1007B000CAE900232946204600F0C2FF18A3D3E966
:1007C000002300F0BFFF4FF0FF35CAE90201BAE68F
:1007D000032397E614A3D3E9002300F0B3FF14A387
:1007E000D3E900230D46044600F0ACFF02460B4659
:1007F000CAE900232946204600F0A2FF0CA3D3E952
:10080000002300F09FFF4FF0FF35CAE902019AE68E
:100810009DED087B8DED027B02E700BFAFF300800A
:100820003163621A61B4D03D0000601A61B4D03DFA
:100830007370032E8A19A33BFB21F93F0000002EA1
:100840008A19A33BC14920259A837B390000000007
:100850002DE9F04F57EC106B2DED028BB0EE418A75
:10086000F0EE618A27F00049B9F1795F83B072DA5E
:1008700010EE100A394601F0B1FB002800F0F680B6
:1008800032463B463046394601F00EF97CA3D3E9A7
:10089000002304460D4601F007F97BA3D3E90023AA
:1008A00000F050FF22462B4601F0FEF878A3D3E972
:1008B000002300F045FF22462B4601F0F5F876A311
:1008C000D3E9002300F03EFF22462B4601F0ECF86E
:1008D00073A3D3E9002300F033FF22462B4601F037
:1008E000E3F871A3D3E9002300F02CFF22462B4646
:1008F00001F0DAF882468B460022714B20462946E9
:1009000001F0D2F85246804689465B462046294689
:1009100001F0CAF853EC182B04460D463046394610
:1009200001F0C2F802460B462046294600F008FFB7
:1009300002460B464046494600F002FF02460B467F
:100940000020604900F0FCFE41EC100B03B0BDEC50
:10095000028BBDE8F08F10EE102A10EE100A3B4615
:10096000394601F0A1F846A3D3E9002304460D4619
:1009700001F09AF844A3D3E9002300F0E3FE2246F5
:100980002B4601F091F842A3D3E9002300F0D8FEF2
:1009900022462B4601F088F83FA3D3E9002300F05C
:1009A000D1FE22462B4601F07FF83DA3D3E9002378
:1009B00000F0C6FE22462B4601F076F83AA3D3E9B2
:1009C000002300F0BFFE2B46224601F06DF83E4B9F
:1009D000994582468B468FDD3C4B99453DDC002294
:1009E000A9F50013002037499046994600F0A8FE6B
:1009F000CDE900010022324B2046294601F054F88F
:100A000042464B4600F09CFE5246804689465B4675
:100A10002046294601F048F853EC182B04460D46B1
:100A20003046394601F040F802460B46204629463A
:100A300000F086FE02460B464046494600F080FE26
:100A400002460B46DDE9000100F07AFE41EC100B96
:100A500003B0BDEC028BBDE8F08F9FED157B4FF02E
:100A600000088DED007BDFF86890C3E79FED120B67
:100A700003B0BDEC028BBDE8F08F00BFAFF3008088
:100A8000D43888BEE9FAA8BDC4B1B4BD9EEE213EFB
:100A9000AD529C804F7E923E9015CB19A001FA3E3C
:100AA0007751C1166CC1563F4C5555555555A53F0C
:100AB000000000000000E73F000000000000F03FE1
:100AC0000000E03F0000F03F3233D33F0000E93F39
:100AD0000000D23F000000002DE9F04FADF51B7D76
:100AE000A34CA49EA34D54F8264007942646D41E3A
:100AF00085FB0475E417C4EBA50424EAE4741D46E1
:100B00000A93631CA3EB8303013D02EBC30306932B
:100B10002B460B940395651BF418049008911AD486
:100B20002C440026002701340DF18808DDF894924A
:100B300008E059F8250000F051FF0135A542E8E82A
:100B4000020108D0002DF4DA013530463946A542BD
:100B5000E8E80201F6D1079B002BC0F2EB83079B6C
:100B600003F1010B0A9B22A9DB001A4601EB0309E2
:100B70000093049B0DF5E47A19460AEBCB0B01EBCD
:100B80000208039B002BC0F20183049C4D46002603
:100B9000002775E90223F4E8020100F085FF024610
:100BA0000B463046394600F0CDFD444506460F461B
:100BB000EFD1EAE80267DA4509F10809E1D10799BE
:100BC0000098049C009101F18043013B9B0020446C
:100BD0001A1F83460EA8024403440C920D93009AF8
:100BE0009AA901EBC203002A53E9284529DD0DF536
:100BF000E47A0AEBC2080DF1340900225E4B20466C
:100C0000294600F051FF01F0E9F900F0E7FE00226B
:100C10005A4B06460F4600F047FF02460B46204659
:100C2000294600F08DFD01F0D9F978E9022349F851
:100C3000040F3946304600F085FDD04504460D4688
:100C4000DBD1DDF8189045EC104B484600F0E0FC95
:100C500055EC104B00224FF07F5310EE100A29463E
:100C600000F022FF41EC100B00F042FC002251EC9E
:100C7000100B434B00F018FF02460B462046294656
:100C800000F05EFD0D46044601F0A8F9804600F034
:100C9000A5FE0B4602462946204600F051FD4B4674
:100CA000002B06460F4640F3FA80009A0EA9013A3F
:100CB000C9F1180351F8225045FA03F101FA03F380
:100CC0000EA8EB1A40F82230C9F11705884443FA00
:100CD00005F5002D6EDD009B002B08F1010840F3A7
:100CE00074820E9C002C40F01B83009B012B40F370
:100CF00094820EAA012352F8044F002C00F088823F
:100D0000581C0EAAC4F1807442F82340009A824213
:100D100019DD0EAA0EAC52F820106FF07F42511A66
:100D200044F820100099023399420CDD1046009AD5
:100D30000EA901EB830301EB82011A68821A43F8C2
:100D4000042B8B42F9D1069B002B1BDD069B012B4C
:100D50004FF0010440F04182009B5A1E0EAB0EA9D9
:100D600053F82230C3F3160341F8223041E200BFAA
:100D700030510008ABAAAA2A0000703E0000704162
:100D800000002040022D15D132463B4600209449F8
:100D900000F0D6FC06460F4606989FED8D0B00F03E
:100DA00037FC3046394653EC102B00F0C9FC0225C5
:100DB00006460F46002200233046394601F0DCF893
:100DC000002800F03B82009A079B501E83420FDCF4
:100DD00002F18043013B0EAA0D9C02EB830300222B
:100DE00053F80419A34242EA0102F9D1002A67D15B
:100DF000079B0EAA013B52F82330002B40F01C82C7
:100E00000C9A012352F8041901330029FAD0009AF0
:100E1000D31802F1010A9A4509933DDC009B0A9917
:100E20000B9A0B4409990AEB0208994622AB08F188
:100E3000804803EBC9098B18A59A08F1FF3802EB2B
:100E4000880872AA02EBCA0AA59A02EB83030093F0
:100E500058F8040F00F0C2FD039B002BE9E80201E3
:100E60004FF000064FF0000711DB049C4D4675E97A
:100E70000223F4E8020100F017FE02460B4630465A
:100E8000394600F05FFC5C4506460F46EFD1009BFB
:100E90009845EAE80267DBD1099B00939FE606D1FB
:100EA000009B0EAA013B52F82350ED1511E70022DA
:100EB0004C4B01F07FF8002840F07281054679E73D
:100EC0000EA9039551F820300699CDF824801839E1
:100ED0000246009006916BB900F18043013B0EA8D9
:100EE00000EB830353F80409013A18390028F9D0BC
:100EF0000092069106989FED360B00F089FB009B4F
:100F0000002B55EC104BC0F2FC81DA0072A901EB0A
:100F1000020B06920EAA02EB8306DFF8CC904FF08C
:100F200000080BF10807043656F8040D00F056FDD2
:100F300022462B4600F0B8FD4B4667E902014246C7
:100F40002046294600F0B0FD0EAB9E4204460D46F9
:100F5000EAD14AACDDF81C9004944FF0000AB9F1D4
:100F6000000FC0F22F81DFF884805D461AA1D1E91D
:100F7000000100260027002403E0544510DCF8E8B7
:100F80000201F5E8022300F08FFD02460B463046D1
:100F9000394600F0D7FB0134A14506460F46ECDA8E
:100FA000049B03EBCA03ABF1080BC3E9006770AB0A
:100FB0009B450AF1010AD2D1A49B049C032B00F2A9
:100FC0008D80DFE813F0C90092009200150000BF89
:100FD000000000000000F03F00000040FB21F93F4E
:100FE0000000F03F0000E03F0000703E4851000864
:100FF000009B002B40F38281069A04EB020ADAE997
:10100000008902F1080525440DF5987B1AED027B55
:1010100042464B4651EC170B8DED047B00F092FBE2
:1010200006460F4602460B46DDE9040100F088FB48
:1010300042464B4600F086FB65E902015D45B0463D
:10104000B9466AE90267E1D1009B012B40F3568162
:10105000069BE518D5E9008903F1080B04EB0B0AA0
:1010600015ED027B42464B4651EC170B8DED007B94
:1010700000F068FB06460F4602460B46DDE900011C
:1010800000F05EFB4B46424600F05CFB6AE9020161
:101090004EAB5345B046B94665E90267E0D1002042
:1010A000002104EB0B0575E9022300F04BFBAA4578
:1010B000F9D1039B002B00F00B816268E368089F65
:1010C0002568A4683D6002F1004203F1004301F18C
:1010D00000417A60FB60BC6038617961099B03F074
:1010E00007000DF51B7DBDE8F08F069D08352544F2
:1010F0000020002175E9022300F024FBA542F9D16C
:10110000039B002B00F0D380089E024601F10043B0
:1011100086E80C000B460246D4E9000100F010FB03
:10112000009B002B0BDD4CAD0124F5E8022300F001
:1011300009FB009B0134A342F7DA039B13B101F1D1
:1011400000431946089BC3E90201099B03F007000D
:101150000DF51B7DBDE8F08F069D083500200021B0
:10116000254475E9022300F0EDFAAC42F9D1039B66
:1011700013B101F100431946089BC3E90001099B23
:1011800003F007000DF51B7DBDE8F08F002600275A
:10119000EAE80267DA4509F108097FF4F2AC0EE5E6
:1011A000009B002B08F10108C8BF02253FF799AD4D
:1011B00032463B460020614900F0C2FA022506464D
:1011C0000F46F7E500260027EAE6069B002B27DD01
:1011D0000024069B012B3FF4BFAD022B09D1009BDD
:1011E0005A1E0EAB0EA953F82230C3F3150341F873
:1011F0002230022D7FF4DEAD32463B4600204F49BF
:1012000000F09EFA06460F46002C3FF4D3ADC3E52E
:101210000099013399427FF46EAD069B002BD8DC18
:10122000022D7FF4C7AD32463B460020434900F013
:1012300087FA06460F46BDE50123E8E5069B0395C0
:10124000584247EC106BCDF8248000F0E1F955ECE2
:10125000104B00223A4B10EE100A294600F0AAFE6D
:10126000002841D00022374B2046294600F01CFCC4
:1012700000F0B4FE064600F0B1FB0022304B00F057
:1012800013FC02460B462046294600F059FA00F0AE
:10129000A5FE0099069B0A461833013206930B46B9
:1012A0000EA9009241F8230041F8226022E6089B33
:1012B0000246C3E900010B46D4E9000100F040FA00
:1012C000009B002B3FF72FAF089BC3E902013CE7CF
:1012D000D4E90067D4E90223089DC5E90401C5E902
:1012E0000067C5E90223F9E62946204600F076FEAC
:1012F000009A0EA941F82200FCE54AAC002000212A
:10130000D7E6A49B032B3FF6E9AE01A252F823F0E7
:101310002F1300082713000827130008FB120008EA
:1013200001200023EDE4002000214AACE8E6002083
:1013300000211CE70A9BDB00009340E40000F03F23
:10134000000070410000703E2DE9F04F55EC104B4D
:101350002DED028BB0EE418AF0EE618A25F000435C
:10136000B3F1795F83B0824607DA10EE100A29469E
:1013700000F034FE002800F08E8022462B462046E6
:10138000294600F091FB06460F4602460B462046D2
:10139000294600F089FB47A3D3E90023804689460C
:1013A0003046394600F080FB44A3D3E9002300F027
:1013B000C7F932463B4600F077FB42A3D3E900234E
:1013C00000F0C0F932463B4600F06EFB3FA3D3E984
:1013D000002300F0B5F932463B4600F065FB3DA323
:1013E000D3E9002300F0AEF9CDE90001BAF1000F16
:1013F00037D000222E4B51EC180B00F055FBDDE9E5
:10140000002382468B464046494600F04DFB02468B
:101410000B465046594600F093F932463B4600F0E1
:1014200043FB53EC182B00F08BF91FA3D3E90023E7
:1014300006460F464046494600F036FB02460B463C
:101440003046394600F07EF902460B4620462946D2
:1014500000F076F941EC100B03B0BDEC028BBDE857
:10146000F08F02460B463046394600F01DFB0EA3B6
:10147000D3E9002300F064F942464B4600F014FB28
:1014800022462B4600F05EF941EC100B03B0BDEC98
:10149000028BBDE8F08F45EC104B03B0BDEC028B26
:1014A000BDE8F08FAFF30080495555555555C53F00
:1014B0000000E03F7CD5CF5A3AD9E53DEB9C2B8A22
:1014C000E6E55A3E7DFEB157E31DC73ED561C11921
:1014D000A0012A3FA6F810111111813F53EC102BE7
:1014E00023F0004343EC102B704700BF00000000C6
:1014F00051EC100BC1F30A532DE9F041A3F2FF3573
:10150000132D0C460F4610EE106A1DDC002D43DB38
:101510003D4B43FA05F801EA0803034319D038A309
:10152000D3E9002300F00EF90022002300F04CFD67
:1015300020B1002C49DB27EA080400262346324666
:1015400043EC102BBDE8F081332D06DDB5F5806F3F
:1015500032D041EC100BBDE8F081A3F213434FF001
:10156000FF3828FA03F810EA080FF2D024A3D3E9D1
:10157000002300F0E7F80022002300F025FD0028FA
:10158000DCD0002C27DB3C4626EA08062346324600
:1015900043EC102BBDE8F08119A3D3E9002300F040
:1015A000D1F80022002300F00FFD0028C6D0002C47
:1015B0001CDB00263446C1E710EE102A0B4600F073
:1015C000C1F841EC100BBDE8F0814FF4801343FAF1
:1015D00005F52F44AFE7142D10D00123C5F13405D4
:1015E00003FA05F5AE1928BFFF18CCE724F0004236
:1015F000064B324318BF1C4600269FE70137C2E75F
:101600009C7500883CE4377EFFFF0F000000F0BFB0
:1016100053EC102B70B5C3F30A541946054614BB9E
:1016200023F0004111432AD019460022384B394E8D
:1016300010EE100A00F038FAB54202460B461FDBE6
:10164000C1F30A54363C2C4440F2FE7084421FDC45
:10165000002C2DDD21F0FF4121F4E00141EA04538B
:1016600043EC102B70BD40F2FF708442EBD110EEC2
:10167000100A194600F066F841EC100B70BD70BD01
:101680001FA3D3E9002300F00FFA41EC100B70BD4B
:1016900043EC112B9FED1C0B00F040F81AA3D3E98B
:1016A000002351EC100B00F0FFF941EC100B70BD62
:1016B00014F1350F13DA4CF250318D4243EC112BFB
:1016C000E8DC9FED0F0B00F029F80DA3D3E9002310
:1016D00051EC100B00F0E8F941EC100B70BD21F05B
:1016E000FF4121F4E001363441EA04531046194623
:1016F0000022094B00F0D8F941EC100B70BD00BF7F
:1017000059F3F8C21F6EA5019C7500883CE4377E32
:1017100000005043B03CFFFF0000903C53EC102B06
:1017200011EE900A23F0004100F0004041EA00036E
:1017300043EC102B704700BF81F0004102E000BF76
:1017400083F0004330B54FEA41044FEA430594EA81
:10175000050F08BF90EA020F1FBF54EA000C55EABC
:10176000020C7FEA645C7FEA655C00F0E2804FEA8D
:101770005454D4EB5555B8BF6D420CDD2C4480EA6F
:10178000020281EA030382EA000083EA010180EA9F
:10179000020281EA0303362D88BF30BD11F0004FED
:1017A0004FEA01314FF4801C4CEA113102D0404223
:1017B00061EB410113F0004F4FEA03334CEA13335E
:1017C00002D0524263EB430394EA050F00F0A78076
:1017D000A4F10104D5F1200E0DDB02FA0EFC22FA71
:1017E00005F2801841F1000103FA0EF2801843FA65
:1017F00005F359410EE0A5F120050EF1200E012A56
:1018000003FA0EFC28BF4CF0020C43FA05F3C01893
:1018100051EBE37101F0004507D54FF0000EDCF10C
:10182000000C7EEB00006EEB0101B1F5801F1BD3B5
:10183000B1F5001F0CD349085FEA30004FEA3C0CB9
:1018400004F101044FEA445212F5800F80F09A80AF
:10185000BCF1004F08BF5FEA500C50F1000041EBB3
:10186000045141EA050130BD5FEA4C0C404141EBB7
:10187000010111F4801FA4F10104E9D191F0000FDE
:1018800004BF01460020B1FA81F308BF2033A3F161
:101890000B03B3F120020CDA0C3208DD02F1140C58
:1018A000C2F10C0201FA0CF021FA02F10CE002F193
:1018B0001402D8BFC2F1200C01FA02F120FA0CFC8C
:1018C000DCBF41EA0C019040E41AA2BF01EB0451D5
:1018D000294330BD6FEA04041F3C1CDA0C340EDCD3
:1018E00004F11404C4F1200220FA04F001FA02F316
:1018F00040EA030021FA04F345EA030130BDC4F1D4
:101900000C04C4F1200220FA02F001FA04F340EAC8
:101910000300294630BD21FA04F0294630BD94F079
:10192000000F83F4801306BF81F480110134013D60
:101930004EE77FEA645C18BF7FEA655C29D094EAD1
:10194000050F08BF90EA020F05D054EA000C04BF4F
:101950001946104630BD91EA030F1EBF002100203A
:1019600030BD5FEA545C05D14000494128BF41F0D9
:10197000004130BD14F580043CBF01F5801130BD3D
:1019800001F0004545F0FE4141F470014FF00000C8
:1019900030BD7FEA645C1ABF194610467FEA655C79
:1019A0001CBF0B46024650EA013406BF52EA03351B
:1019B00091EA030F41F4002130BD00BF90F0000F09
:1019C00004BF0021704730B54FF4806404F1320445
:1019D0004FF000054FF0000150E700BF90F0000FFE
:1019E00004BF0021704730B54FF4806404F1320425
:1019F00010F0004548BF40424FF000013EE700BFF5
:101A000042004FEAE2014FEA31014FEA02701FBF84
:101A100012F07F4393F07F4F81F06051704792F056
:101A2000000F14BF93F07F4F704730B54FF46074D0
:101A300001F0004521F0004120E700BF50EA01021B
:101A400008BF704730B54FF000050AE050EA0102C8
:101A500008BF704730B511F0004502D5404261EB38
:101A600041014FF4806404F132045FEA915C3FF479
:101A7000DCAE4FF003025FEADC0C18BF03325FEA12
:101A8000DC0C18BF033202EBDC02C2F1200300FAC7
:101A900003FC20FA02F001FA03FE40EA0E0021FAEC
:101AA00002F11444C1E600BF70B54FF0FF0C4CF4D6
:101AB000E06C1CEA11541DBF1CEA135594EA0C0F8C
:101AC00095EA0C0F00F0DEF82C4481EA030621EAC7
:101AD0004C5123EA4C5350EA013518BF52EA033502
:101AE00041F4801143F4801338D0A0FB02CE4FF0B4
:101AF0000005E1FB02E506F00042E0FB03E54FF0E4
:101B00000006E1FB03569CF0000F18BF4EF0010EDB
:101B1000A4F1FF04B6F5007F64F5407404D25FEAD7
:101B20004E0E6D4146EB060642EAC62141EA55518A
:101B30004FEAC52040EA5E504FEACE2EB4F1FD0CCC
:101B400088BFBCF5E06F1ED8BEF1004F08BF5FEA4A
:101B5000500E50F1000041EB045170BD06F00046FC
:101B600046EA010140EA020081EA0301B4EB5C04A9
:101B7000C2BFD4EB0C0541EA045170BD41F48011A1
:101B80004FF0000E013C00F3AB8014F1360FDEBFC6
:101B9000002001F0004170BDC4F10004203C35DAA2
:101BA0000C341BDC04F11404C4F1200500FA05F325
:101BB00020FA04F001FA05F240EA020001F00042C6
:101BC00021F0004110EBD37021FA04F642EB06013C
:101BD0005EEA430E08BF20EAD37070BDC4F10C0466
:101BE000C4F1200500FA04F320FA05F001FA04F22A
:101BF00040EA020001F0004110EBD37041F1000116
:101C00005EEA430E08BF20EAD37070BDC4F1200520
:101C100000FA05F24EEA020E20FA04F301FA05F288
:101C200043EA020321FA04F001F0004121FA04F230
:101C300020EA020000EBD3705EEA430E08BF20EA00
:101C4000D37070BD94F0000F0FD101F0004640003A
:101C500041EB010111F4801F08BF013CF7D041EABC
:101C6000060195F0000F18BF704703F000465200C0
:101C700043EB030313F4801F08BF013DF7D043EA91
:101C80000603704794EA0C0F0CEA135518BF95EA47
:101C90000C0F0CD050EA410618BF52EA4306D1D1CE
:101CA00081EA030101F000414FF0000070BD50EAED
:101CB000410606BF1046194652EA430619D094EA77
:101CC0000C0F02D150EA013613D195EA0C0F05D161
:101CD00052EA03361CBF104619460AD181EA0301B5
:101CE00001F0004141F0FE4141F470014FF000006D
:101CF00070BD41F0FE4141F4780170BD70B54FF008
:101D0000FF0C4CF4E06C1CEA11541DBF1CEA135587
:101D100094EA0C0F95EA0C0F00F0A7F8A4EB050469
:101D200081EA030E52EA03354FEA013100F0888060
:101D30004FEA03334FF0805545EA131343EA126329
:101D40004FEA022245EA111545EA10654FEA0026DE
:101D50000EF000419D4208BF964244F1FD0404F597
:101D6000407402D25B084FEA3202B61A65EB0305F3
:101D70005B084FEA32024FF480104FF4002CB6EBB0
:101D8000020E75EB030E22BFB61A754640EA0C0030
:101D90005B084FEA3202B6EB020E75EB030E22BF70
:101DA000B61A754640EA5C005B084FEA3202B6EBB1
:101DB000020E75EB030E22BFB61A754640EA9C0070
:101DC0005B084FEA3202B6EB020E75EB030E22BF40
:101DD000B61A754640EADC0055EA060E18D04FEAFE
:101DE000051545EA16754FEA06164FEAC30343EA9E
:101DF00052734FEAC2025FEA1C1CC0D111F4801F6B
:101E00000BD141EA00014FF000004FF0004CB6E763
:101E100011F4801F04BF01430020B4F1FD0C88BF02
:101E2000BCF5E06F3FF6AFAEB5EB030C04BFB6EB0D
:101E3000020C5FEA500C50F1000041EB045170BD00
:101E40000EF0004E4EEA113114EB5C04C2BFD4EB2D
:101E50000C0541EA045170BD41F480114FF0000EB1
:101E6000013C90E645EA060E8DE60CEA135594EA2D
:101E70000C0F08BF95EA0C0F3FF43BAF94EA0C0F30
:101E80000AD150EA01347FF434AF95EA0C0F7FF4A5
:101E900025AF104619462CE795EA0C0F06D152EAF9
:101EA00003353FF4FDAE1046194622E750EA4106DD
:101EB00018BF52EA43067FF4C5AE50EA41047FF4EE
:101EC0000DAF52EA43057FF4EBAE12E74FF0FF3C53
:101ED00006E000BF4FF0010C02E000BF4FF0010C24
:101EE0004DF804CD4FEA410C7FEA6C5C4FEA430C9D
:101EF00018BF7FEA6C5C1BD001B050EA410C0CBFEC
:101F000052EA430C91EA030F02BF90EA020F00204D
:101F1000704710F1000F91EA030F58BF994208BFB4
:101F200090422CBFD8176FEAE37040F00100704771
:101F30004FEA410C7FEA6C5C02D150EA013C07D1C8
:101F40004FEA430C7FEA6C5CD6D152EA033CD3D013
:101F50005DF8040B704700BF8446104662468C460D
:101F60001946634600E000BF01B5FFF7B7FF002840
:101F700048BF10F1000F01BD4DF808EDFFF7F4FF69
:101F80000CBF012000205DF808FB00BF4DF808EDF4
:101F9000FFF7EAFF34BF012000205DF808FB00BF17
:101FA0004DF808EDFFF7E0FF94BF012000205DF839
:101FB00008FB00BF4DF808EDFFF7CEFF94BF0120EE
:101FC00000205DF808FB00BF4DF808EDFFF7C4FFE7
:101FD00034BF012000205DF808FB00BF4FEA41023A
:101FE00012F5001215D211D56FF47873B3EB62526B
:101FF00012D94FEAC12343F0004343EA505311F092
:10200000004F23FA02F018BF404270474FF0000023
:10201000704750EA013005D111F0004008BF6FF061
:10202000004070474FF00000704700BF4A0011D2D7
:1020300012F5001211D20DD56FF47873B3EB625222
:102040000ED44FEAC12343F0004343EA505323FA2E
:1020500002F070474FF00000704750EA013002D1A3
:102060004FF0FF3070474FF00000704753B94AB946
:10207000002908BF00281CBF4FF0FF314FF0FF3090
:1020800000F07AB9ADF1080C6DE904CE00F006F865
:10209000DDF804E0DDE9022304B070472DE9F047E4
:1020A0008C460D460446089E002B51D18A421746A5
:1020B0006DD9B2FA82FEBEF1000F0BD0CEF1200C2A
:1020C00001FA0EF520FA0CFC02FA0EF74CEA050CA8
:1020D00000FA0EF44FEA174A250CBCFBFAF81FFA77
:1020E00087F90AFB18CC45EA0C4508FB09F3AB421B
:1020F0000AD9ED1908F1FF3280F02381AB4240F29A
:102100002081A8F102083D44ED1AA4B2B5FBFAF013
:102110000AFB105544EA054400FB09F9A14509D919
:10212000E41900F1FF3380F00A81A14540F20781F4
:1021300002383C44A4EB090440EA08400021002E88
:1021400061D024FA0EF4002334607360BDE8F08798
:102150008B4207D9002E54D0002186E82100084682
:10216000BDE8F087B3FA83F1002940F08E80AB42DE
:1021700002D3824200F2FA80841A65EB0305012043
:10218000AC46002E3FD086E81010BDE8F08712B9AB
:102190000127B7FBF2F7B7FA87FEBEF1000F34D183
:1021A000EB1B3A0C1FFA87FC0121B3FBF2F8250C5C
:1021B00002FB183345EA03450CFB08F3AB4207D991
:1021C000ED1908F1FF3002D2AB4200F2D180804617
:1021D000ED1AA3B2B5FBF2F002FB105543EA054439
:1021E0000CFB00FCA44507D9E41900F1FF3302D22F
:1021F000A44500F2B8801846A4EB0C0440EA08405D
:102200009DE731463046BDE8F087CEF1200405FA5F
:102210000EF307FA0EF720FA04F83A0C25FA04F444
:1022200048EA0308B4FBF2F14FEA184502FB1144F7
:102230001FFA87FC45EA044501FB0CF3AB4200FAA8
:102240000EF409D9ED1901F1FF3080F08A80AB421C
:1022500040F2878002393D44EB1A1FFA88F5B3FB40
:10226000F2F002FB103345EA034500FB0CF3AB42EE
:1022700007D9ED1900F1FF386FD2AB426DD90238A2
:102280003D44EB1A40EA01418FE7C1F1200722FAF1
:1022900007F88B4005FA01F448EA030320FA07FE29
:1022A0004FEA134CFD404EEA040EB5FBFCF94FEA31
:1022B0001E440CFB19551FFA83F844EA054509FB37
:1022C00008F4AC4202FA01F200FA01FA08D9ED185A
:1022D00009F1FF3043D2AC4241D9A9F102091D44B2
:1022E0002D1B1FFA8EFEB5FBFCF00CFB10554EEAC1
:1022F000054400FB08F8A04507D9E41800F1FF35B4
:1023000029D2A04527D902381C4440EA0940A4EB51
:102310000804A0FB02894C45C6464D4615D312D091
:1023200056B1BAEB0E0364EB050404FA07F7CB4091
:102330001F43CC40376074600021BDE8F087184629
:10234000F8E69046E0E6C245EAD2B8EB020E69EB49
:1023500003050138E4E72846D7E7404691E7814680
:10236000BEE7014678E702383C4445E7084608E7FF
:10237000A8F102083D442BE7704700BF2DE9F04F5C
:102380008FB0002409940A940B940C940D9401943A
:10239000AA4B1A6B42F004021A631A6B02F0040291
:1023A0000192019A02941A6B42F020021A631A6B8E
:1023B00002F020020292029A03941A6B42F0800209
:1023C0001A631A6B02F080020392039A04941A6B48
:1023D00042F001021A631A6B02F001020492049A9D
:1023E00005941A6B42F002021A631A6B02F00202A1
:1023F0000592059A06941A6B42F040021A631A6B12
:1024000002F040020692069A07941A6B42F01002FC
:102410001A631A6B02F010020792079A08941A6B5B
:1024200042F008021A631B6B03F008030893089B31
:1024300022461621824802F0B5FB224680218148BF
:1024400002F0B0FBDFF814A222464FF46041504680
:1024500002F0A8FB224646F203017B4802F0A2FBF1
:1024600022464FF68071794802F09CFB22464FF4D9
:102470004051774802F096FB41F63F03099302254D
:102480000A950B9403270C974FF00C08CDF8348075
:1024900009A9504602F094FA4FF4806309936D4BFA
:1024A0000A930B9409A9504602F08AFA012609966C
:1024B0000A950B940C97CDF8348009A9604802F076
:1024C0007FFA162309930A960B940C9409A95C4889
:1024D00002F076FA48F207030993DFF884B1CDF8E9
:1024E00028B00B9409A9574802F06AFA41F658033C
:1024F00009930A950B940C944FF00E09CDF8349083
:1025000009A9504802F05CFA802309930A960B94BB
:102510000C9409A94B4802F053FA20230993CDF8F3
:1025200028B00B9409A9464802F04AFA09970A957F
:102530000B940C9409230D9309A9474802F040FA23
:102540004FF0040BCDF824B00A940B9409A942482B
:1025500002F036FA4FF4604309930A960B940C94F8
:1025600009A9504602F02CFA46F2030309930A9691
:102570000B940C9409A9344802F022FA4FF68073A8
:1025800009930A960B940C9409A9304802F018FAA2
:102590004FF4706309930A950B940C94CDF8349022
:1025A00009A92D4802F00CFA4FF4504309930A95FB
:1025B0000B940C94CDF8348009A9274802F000FA56
:1025C0004FF4005309930A940B9409A9224802F08E
:1025D000F7F94CF2037309930A950B940C97CDF815
:1025E000348009A91A4802F0EBF94FF4006309930B
:1025F0000A940B9409A9164802F0E2F94FF44053EB
:1026000009930A960B940C9409A9114802F0D8F981
:1026100048F2301309930A950B940C97CDF8348047
:1026200009A9094802F0CCF94FF40C6309930A9503
:102630000B940C94CDF8349014E000BF00380240A5
:102640000008024000000240001802400010024052
:10265000000C02400000111000040240001402406F
:102660000000121009A9314802F0AAF94FF498634A
:1026700009930A950B940C94CDF8349009A92C4831
:1026800002F09EF94FF4007309934FF0120ACDF84F
:1026900028A00B960C94CDF834B009A9244802F078
:1026A0008FF94FF480730993CDF828A00B960C9402
:1026B000CDF834B009A91F4802F082F948230993E4
:1026C0000A950B940C94CDF8349009A91A4802F09D
:1026D00077F94FF4A05309930A950B940C940923AE
:1026E0000D9309A9114802F06BF9602309930A952B
:1026F0000B940C97CDF8348009A9104802F060F9CA
:1027000009970A950B940C97CDF8348009A90C48C9
:1027100002F056F922462146282002F07DFA2820B0
:1027200002F0ACFA0FB0BDE8F08F00BF0018024015
:102730000008024000000240000C02400004024079
:102740000010024008B50948094B036000234360AC
:102750008360C36003614361836103624362836298
:102760000A23C36200F093FF08BD00BFD8210020F8
:102770000050014008B50848084B03604FF4E133AE
:10278000436000238360C36003610C224261836164
:10279000C36101F06DFD08BD30370020001001401D
:1027A00030B583B0002400940194074D074B2B6093
:1027B000284602F0FFFA0094019410226946284648
:1027C00002F072FB03B030BD70370020007400408F
:1027D00030B583B00025009501950A4C0A4B236063
:1027E0006560A56040F20A53E360A561204601F0F0
:1027F0002DFB009501956946204601F040FB03B092
:1028000030BD00BF844700200010004030B583B0C9
:102810000025009501950A4C0A4B23606560A56070
:1028200042F21073E360A561204601F00FFB0095B2
:1028300001956946204601F022FB03B030BD00BF80
:10284000C45700200014004030B595B0302200215C
:1028500008A8FDF727FD002403940494059406942A
:10286000079401941C4B1A6C42F080521A641B6C42
:1028700003F080530193019B0294184A136823F4D8
:10288000404343F480431360136803F440430293CE
:10289000029B0225089501230B9310230C930E95A0
:1028A0000F94082310936423119312950723139315
:1028B00008A801F07DFD0F230393049505944FF4C0
:1028C000A05306934FF480530793032103A801F00C
:1028D000A5FF15B030BD00BF0038024000700040B9
:1028E0000268044B9A4200D070470122024B1A70D2
:1028F000FAE700BF00100040EE00002000000000DA
:1029000010B52DED028B82B00024294B1C709FED79
:10291000298A37E0284B1A5D284B03EB820318689D
:10292000FFF76EF820A3D3E90023FFF7BDF8FFF708
:102930007DFB234B53F82420104443F8240053F824
:10294000242053F82430C3F38B231E4AD35C07EEB4
:10295000903A1D4B03EB840393ED007AF8EEE77A8F
:1029600027EE877A194B1B5DDBB207EE903AF8EE43
:10297000E77A67EE877ADFED166A87EEA67A38EE99
:10298000078A01340F2CC5DDDFED127A28EE278A85
:10299000FCEEC87ACDED017A9DF80430044A13703C
:1029A00002B0BDEC028B10BD942EA2925F5E564029
:1029B000AA000020000000007001002080510008E3
:1029C000AC00002084370020F000002038000020F8
:1029D0000001FE470000803D10B5002416E0104BBA
:1029E00033F8140080B2FEF7F9FF0BA3D3E90023FC
:1029F000FFF75AF8FFF71AFB0A4A52F82430184436
:102A000042F82400FF22084B1A5501340F2CE6DD52
:102A100010BD00BFAFF3008076581B4219E521407E
:102A200048000020680000203800002082B0054BDC
:102A30001A78511C197003EB8203C3F8020002B02C
:102A4000704700BF3022002082B00D4B5A78511CD5
:102A5000597003EB8203D3F802000023C2B262F381
:102A60000703C0F3072262F30F23C0F3074262F3A8
:102A70001743000E60F31F63184602B0704700BF93
:102A80003022002030B587B002F042F9FFF7DCFEBB
:102A9000FFF774FCFFF756FEFFF76CFEFFF780FEB2
:102AA000FFF796FEFFF7B2FE00F064FAB54801F0BA
:102AB00094F8B54801F091F81021B44802F08CF96F
:102AC00000230CE00022B249CA548020B149C85406
:102AD000B149CA541421B14A22F8131001330F2B03
:102AE000F0DDAF4B01AC0FCB07C423700024CDF851
:102AF000114005943223142201A9AA4801F0E7FBF2
:102B0000D5E0142822D0152840F0F9800122A64BE8
:102B10001A7002E00122A54B1A70002C00F0B4805C
:102B2000A34B1B78DBB2162B00F01F8171D9802BD1
:102B300000F0A780902B00F08480172B00F01B8101
:102B40000024A1E001229B4B1A70E6E701229A4B78
:102B50001A70E2E70122994B1A70DEE70122984BC6
:102B60001A70DAE790238DF800308DF801007F238A
:102B70008DF8023000258DF803500098FFF756FFBE
:102B80008A4B1D70C9E780238DF800308DF8010055
:102B900000258DF802508DF803500098FFF746FF8E
:102BA000844B1D70B9E714238DF800308DF80100B7
:102BB00000258DF802508DF803500098FFF736FF7E
:102BC0007D4B1D7000F0D6FAA7E715238DF8003075
:102BD0008DF8010000258DF802508DF80350009803
:102BE000FFF724FF704B1D7000F0C4FA95E7162321
:102BF0008DF800308DF8010000258DF802508DF819
:102C000003500098FFF712FF6C4B1D7000F0B2FAF2
:102C100083E7142B00F0A380152B91D1644B5A78D5
:102C2000684B1A7000242FE090215A4AD154604A10
:102C30005278D2B25849CA540121554AD15400247D
:102C400022E000230F2B06DC524AD25CD2B2802A4B
:102C5000EAD00133F6E7002416E001330F2B12DC33
:102C60004C4AD25CD2B2902AF7D14B4AD15CC9B25D
:102C70004F4A5278D2B29142EFD10421444AD15402
:102C8000EBE70023EAE700244F4B1B787BB100F011
:102C900093F9FFF7A1FEFFF733FE4C4B1B78082298
:102CA00010213A4802F025F90022474B1A70484B90
:102CB0001A785B789A4204D0FFF7C6FE3C4B186046
:102CC0000124444B1B78002B3FF427AF0022414BDB
:102CD0001A70414B1A785B789A423FF41EAF00F0AD
:102CE000C5FA16283FF436AF7FF60BAF80283FF4C5
:102CF00029AF90283FF40EAF17283FF42FAF2B4B8E
:102D00001B78002B7FF42EAF2A4B1B78002B7FF40F
:102D10003AAF294B1B78002B7FF445AF224B1B7831
:102D2000002B7FF452AF254B1B78002B7FF45FAF55
:102D3000234B1B78002B3FF4F0AE17238DF80030A7
:102D40008DF8010000258DF802508DF80350009891
:102D5000FFF76CFE1A4B1D7000F00CFADDE6144B09
:102D60005A781E4B1A7000248EE7114B5A781C4B70
:102D70001A70002488E70E4B5A781A4B1A700024F8
:102D800082E700BF84470020C4570020703700202E
:102D9000045800208001002070010020480000201D
:102DA000904F00083037002034000020A900002098
:102DB00030000020A80000202D000020ED000020A1
:102DC000EC00002001000020EE000020AA000020FE
:102DD000302200202C000020145800200000002089
:102DE000030000200200002038B5054600241BE047
:102DF0002046FEF7F3FD0EA3D3E90023FEF754FEB1
:102E000041EC100BFDF79CFA0BA3D3E9002351EC26
:102E1000100BFEF749FE08A3D3E90023FEF792FC4E
:102E2000FFF704F928550134B4F5805FE0DB38BDC5
:102E3000182D4454FB21593F0000000000C05F40A2
:102E40000023B3F5805F13DA10B405E0121322708B
:102E50000133B3F5805F08DAC418C3EB03210A46D7
:102E60000029F3DA01F6FF72F0E75DF8044B7047D2
:102E700070470023B3F5805F15DA10B405E0121334
:102E800042540133B3F5805F0ADAC3F57F610F3135
:102E9000C3EB03242246002CF1DA04F6FF72EEE7BE
:102EA0005DF8044B7047704710B4002302E0121322
:102EB00022700133B3F5006F09DAC418C3EB0322A3
:102EC00051000A460029F2DA01F6FF72EFE74FF4EB
:102ED000006202E01B1323700132B2F5805F0BDA4F
:102EE0008418C2F58053C3EB032359000B46002915
:102EF000F0DA01F6FF73EDE75DF8044B704700234D
:102F000002E00022C2540133B3F5805F05DAB3F565
:102F1000006FF6DAFF22C254F5E7704700000000A8
:102F200038B50546002419E02046FEF757FD0FA3EB
:102F3000D3E90023FEF7B8FD41EC100BFDF700FAD2
:102F40000022094B51EC100BFEF7AEFD0022064BA0
:102F5000FEF7F8FBFFF76AF828550134FF2CE3DD94
:102F600038BD00BFAFF3008000805F40182D44548F
:102F7000FB21993F08B50948FFF736FF0848FFF7DE
:102F80005FFF0848FFF775FF0748FFF78DFF074809
:102F9000FFF7B5FF0648FFF7C3FF08BD84370020E1
:102FA00030260020C4470020D8010020D81100207E
:102FB000303600200000000070B5002409E0002237
:102FC0005F4B43F824205F4B03EB840300221A601D
:102FD00001340F2C00F3AE805B4B1B5DDBB2042B86
:102FE000F6D801A252F823F0BF2F0008FD2F0008E9
:102FF0005B300008D12F0008BF300008504B53F859
:103000002420524B9A4220D84D4D55F82460504B05
:103010001878FEF7E3FC48A3D3E90023FEF744FD4C
:10302000FFF704F8304445F8240055F82430C3F382
:103030008B23484AD35C07EE903AF8EE677A414B0F
:1030400003EB8403C3ED007AC2E700223C4B43F854
:10305000242002223C4B1A55BAE7394B53F824304E
:10306000C3F38B233C4AD25C3C4B1B789A4220D35F
:10307000334D55F824603A4B1878FEF7AFFC2EA379
:10308000D3E90023FEF710FDFEF7D0FF304445F8EA
:10309000240055F82430C3F38B232F4AD35C07EE6A
:1030A000903AF8EE677A274B03EB8403C3ED007A7E
:1030B0008EE7254A135D0133DBB2135588E7204BB9
:1030C00053F82420214B9A4220D81D4D55F82460F6
:1030D000244B1878FEF782FC17A3D3E90023FEF7F0
:1030E000E3FCFEF7A3FF304445F8240055F82430F4
:1030F000C3F38B23184AD35C07EE903AF8EE677A55
:10310000104B03EB8403C3ED007A61E700230E4A02
:1031100013558021144A1155094A42F82430094AAE
:1031200002EB840200211160104A42F82430104A58
:1031300013554DE770BD00BF942EA2925F5E5640BE
:1031400030010020F000002004580020401640000C
:103150000000002030260020C4470020030000208B
:1031600001000020020000208001002068000020F3
:103170003800002070B582B00546264B1B7802ACA3
:1031800004F8013D32230122214601F0A0F8202657
:103190008DF80760322301222146284601F097F876
:1031A0001D4B1B788DF8073032230122214628461B
:1031B00001F08DF88DF80760322301222146284660
:1031C00001F085F8154B1B788DF80730322301226A
:1031D0002146284601F07BF88DF807603223012252
:1031E0002146284601F073F80D4B1B788DF8073007
:1031F000322301222146284601F069F80A238DF87E
:103200000730322301222146284601F060F802B03F
:1032100070BD00BF0000002001000020030000205E
:103220000200002038B504460C4800F0D3FC012809
:1032300005D000220A4B1A700A4B5C6138BD084D5C
:103240004FF4FA7301222946044800F07CFB642302
:1032500001222946044801F03AF8EAE7D821002083
:1032600015590020003C014030370020034B5A78AC
:10327000511C597013449878704700BF14580020AF
:103280007047FEE7FEE7FEE7FEE7704770477047CE
:1032900008B501F057FD08BD08B54FF4806001F096
:1032A00087FC08BD08B5034801F0CEFD024800F0D8
:1032B000A9FC08BD703700208447002008B50248EB
:1032C00000F0A0FC08BD00BFC457002008B50248AC
:1032D00000F0ECFB08BD00BFD821002000B583B092
:1032E000002100910C4B5A6C42F480425A645A6C93
:1032F00002F480420092009A01911A6C42F08052CE
:103300001A641B6C03F080530193019B072001F0AA
:1033100071FC03B05DF804FB0038024010B588B0C2
:103320000023039304930593069307930268164BB7
:103330009A4201D008B010BD0024019403F5E23395
:103340001A6C42F000521A641A6C02F00052019298
:10335000019A02941A6B42F001021A631B6B03F08C
:1033600001030293029B202303930323049303A9E5
:10337000064801F025FB22462146362001F04CFC90
:10338000362001F07BFCD5E70074004000000240CD
:1033900010B588B000230393049305930693079315
:1033A0000268194B9A4201D008B010BD0024019464
:1033B00003F568435A6C42F480125A645A6C02F462
:1033C00080120192019A02941A6B42F020021A6351
:1033D0001B6B03F020030293029B4FF47073039363
:1033E00002230493032306930523079303A90748A5
:1033F00001F0E6FA22462146552001F00DFC552049
:1034000001F03CFCD0E700BF005001400014024036
:1034100000B583B00368184A934205D0174A934217
:1034200016D003B05DF804FB00210091144B1A6C18
:1034300042F010021A641B6C03F010030093009B0F
:103440000A46362001F0E8FB362001F017FCE8E7D9
:10345000002101910A4B1A6C42F020021A641B6C85
:1034600003F020030193019B0A46372001F0D4FBAF
:10347000372001F003FCD4E70010004000140040A6
:103480000038024000B589B00023039304930593EC
:1034900006930793026803F1804303F588339A4249
:1034A00002D009B05DF804FB0021019103F59433CB
:1034B0005A6C42F010025A645A6C02F010020192E7
:1034C000019A02911A6B42F001021A631B6B03F01E
:1034D00001030293029B4FF4C063039302230493FE
:1034E00001230593032306930723079303A90248A7
:1034F00001F066FAD5E700BF00000240F8B50546C6
:103500000F4616461C462B689B6837EA03030CBF20
:1035100001230023B34237D0B4F1FF3FF3D001F0D1
:103520001DFC069BC01A844201D9002CEBD12A68ED
:10353000536823F0E00353606B68B3F5827F0BD0D0
:10354000AB6AB3F5005F14D0012385F85130002336
:1035500085F850300320F8BDAB68B3F5004F02D0BA
:10356000B3F5806FECD12A68136823F04003136031
:10357000E6E72A68136823F4005313602A68136887
:1035800043F400531360DFE70020F8BD30B585B089
:10359000164C2468164DA5FB0434640D4FF47A755F
:1035A00005FB04F403944468B4F5827F0BD0039BBD
:1035B000C3B1039B013B039303689B6813F0800F27
:1035C000F5D100230FE00B46044600920022802133
:1035D000FFF794FF034630B1636D43F0200363654A
:1035E000032300E00023184605B030BD0C00002086
:1035F000819F5E1610B582B004464068B0F5827FA8
:1036000014D06068B0F5827F1DD000920B46002276
:1036100001212046FFF772FF034620B1636D43F09E
:10362000200363650323184602B010BDA368B3F5F9
:10363000004F02D0B3F5806FE3D12068036823F018
:1036400040030360DDE7A368B3F5806F0FD00092FD
:103650000B46002280212046FFF750FF034600283A
:10366000E1D0636D43F0200363650323DBE7009241
:103670000B46002201212046FFF740FF03460028A9
:10368000D1D0636D43F0200363650323CBE70028AB
:103690003BD010B504460023836290F85130002BD4
:1036A0002ED0022384F851302268136823F040039F
:1036B000136022686368A1680B43E1680B432169CA
:1036C0000B4361690B43A16901F400710B43E1698C
:1036D0000B43216A0B43A16A0B4313602268638B7F
:1036E00003F00403616A0B4353602268D36923F437
:1036F0000063D36100206065012384F8513010BD60
:1037000080F85030FFF744FECBE7012070472DE9E9
:10371000F04383B00A9D90F85040012C04D102235D
:10372000184603B0BDE8F0831E4690460F46044697
:10373000012380F8503001F011FB814694F851309C
:10374000DBB26268012B12D0B2F5827F07D0022370
:10375000012284F85120002284F85020E0E7A2687A
:10376000002A40F0E280042B01D00223F0E7002F72
:1037700000F0DD80B8F1000F00F0DB80002E00F0DB
:10378000DA8094F85130DBB2042B02D0052384F8A0
:10379000513000236365C4F83880E687A687276325
:1037A000E686A6862364636423681A6812F0400FD5
:1037B00003D11A6842F040021A60E368B3F5006F63
:1037C00011D063680BB1012E0BD12368226B1278E4
:1037D0001A73236B01332363E38E9BB2013B9BB2CD
:1037E000E38601266CE063680BB1012E0BD12368E0
:1037F000226B1288DA60236B02332363E38E9BB261
:10380000013B9BB2E38601261CE023689A6812F014
:10381000010F0ED0E28F92B25AB1A26BDB68138017
:10382000A36B0233A363E38F9BB2013B9BB2E3879D
:10383000012601F093FAA0EB0900A84202D3B5F1EA
:10384000FF3F7AD1E38E9BB21BB9E38F9BB2002B73
:1038500054D023689A6812F0020FD6D0E28E92B24A
:10386000002AD2D0002ED0D0226B1288DA60236BCF
:1038700002332363E38E9BB2013B9BB2E3860026B7
:10388000C3E723689A6812F0010F0ED0E28F92B25C
:103890005AB1A26BDB681370A36B0133A363E38F90
:1038A0009BB2013B9BB2E387012601F057FAA0EBE4
:1038B0000900854202D8B5F1FF3F40D1002D40D02C
:1038C000E38E9BB213B9E38F9BB2BBB123689A68B6
:1038D00012F0020FD5D0E28E92B2002AD1D0002E83
:1038E000CFD0226B12781A73236B01332363E38EDC
:1038F0009BB2013B9BB2E3860026C2E74A462946BB
:103900002046FFF743FE034618B1202363650123D9
:103910001EE7A268002A7FF41BAF01922268D168DB
:10392000019192680192019A12E7022310E70123A4
:103930000EE701230CE701230AE7032308E703232B
:1039400006E7032304E72DE9F04182B004460F4661
:1039500090461D464368B3F5827F07D094F85030F7
:10396000012B0FD1022002B0BDE8F0818368002B4B
:10397000F4D1042380F85130009513460A46FFF72E
:10398000C6FEF0E7012384F8503001F0E7F906465F
:1039900094F85130DBB2012B07D00220012384F8C8
:1039A0005130002384F85030DDE7002F6FD0B8F19C
:1039B000000F6ED0042384F8513000236365A763A1
:1039C000A4F83C80A4F83E802363A386E3862364A6
:1039D0006364A368B3F5004F0BD023681A6812F034
:1039E000400F03D11A6842F040021A60E36883B1C5
:1039F0002DE02268136823F480431360EDE701F0A3
:103A0000ADF9801B854202D8B5F1FF3F43D1002DAF
:103A100043D0E38F9BB2002B2DD023689A6812F01D
:103A2000010FECD0A26B1B7B1370A36B0133A3635C
:103A3000E38F9BB2013B9BB2E387EAE701F08EF98B
:103A4000801B854202D8B5F1FF3F28D14DB3E38FEB
:103A50009BB283B123689A6812F0010FEED0A26B7B
:103A6000DB681380A36B0233A363E38F9BB2013B3C
:103A70009BB2E387EBE7324629462046FFF7BAFDC3
:103A800008B120236365636D6BB9002086E70120D0
:103A900084E7012082E7032080E703207EE70320FC
:103AA0007CE703207AE7012078E7704710B584B0FF
:103AB000044602685168936803F04100012867D00A
:103AC00013F0020F02D011F0800F68D113F4B07F11
:103AD00068D011F0200F65D013F0400F0FD094F88C
:103AE0005100C0B203285FD0606D40F004006065F3
:103AF00000200090D068009090680090009813F02B
:103B0000200F0CD0606D40F0010060650020029035
:103B100090680290106820F040001060029A13F440
:103B2000807F09D0636D43F008036365002303932E
:103B300023689B680393039B636D002B32D022683C
:103B4000536823F0E0035360012384F8513011F0EF
:103B5000030F31D02268536823F003035360E36CF2
:103B60004BB1174A1A65E06C01F030F818B1636D7B
:103B700043F040036365A36CA3B1114A1A65A06CBE
:103B800001F024F870B1636D43F04003636509E010
:103B900011F0400F94D0236C2046984702E0636CEC
:103BA0002046984704B010BD00230193D3680193C9
:103BB00093680193019BF5E72046FFF776FFF1E755
:103BC000C53B000808B5806B0023C387C386FFF799
:103BD0006CFF08BD90F8510070470268D36843F04D
:103BE0000103D3600268936803F00703062B03D038
:103BF000136843F00103136000207047704770475B
:103C00007047704710B5044603681A6912F0020F36
:103C100011D0DA6812F0020F0DD06FF002021A61B3
:103C20000123037703689B6913F0030F70D0FFF73C
:103C3000E6FF0023237723681A6912F0040F12D0DD
:103C4000DA6812F0040F0ED06FF004021A6102233A
:103C5000237723689B6913F4407F5FD02046FFF7EA
:103C6000CEFF0023237723681A6912F0080F12D0C1
:103C7000DA6812F0080F0ED06FF008021A61042300
:103C800023772368DB6913F0030F4ED02046FFF73C
:103C9000B6FF0023237723681A6912F0100F12D0A1
:103CA000DA6812F0100F0ED06FF010021A610823BC
:103CB00023772368DB6913F4407F3DD02046FFF76C
:103CC0009EFF0023237723681A6912F0010F03D0A7
:103CD000DA6812F0010F36D123681A6912F0800FEA
:103CE00003D0DA6812F0800F34D123681A6912F019
:103CF000400F03D0DA6812F0400F32D123681A69FE
:103D000012F0200F03D0DA6812F0200F30D110BD6E
:103D1000FFF774FF2046FFF773FF8AE72046FFF79F
:103D20006DFF2046FFF76CFF9BE72046FFF766FF1D
:103D30002046FFF765FFACE72046FFF75FFF204610
:103D4000FFF75EFFBDE76FF001021A612046FEF744
:103D5000C7FDC1E76FF080021A61204600F0B3F89A
:103D6000C3E76FF040021A612046FFF74AFFC5E73C
:103D70006FF020021A61204600F0A4F8C7E70000A7
:103D80000368314A904212D0B0F1804F0FD0A2F5B3
:103D90007C4290420BD002F58062904207D002F53F
:103DA0008062904203D002F57842904203D123F022
:103DB00070034A681343244A90422AD0B0F1804FDE
:103DC00027D0A2F57C42904223D002F58062904237
:103DD0001FD002F5806290421BD002F578429042DB
:103DE00017D002F57052904213D002F580629042D3
:103DF0000FD002F5806290420BD0A2F5983290422B
:103E000007D002F58062904203D002F580629042B2
:103E100003D123F44073CA68134323F080034A6933
:103E2000134303608B68C3620B688362064B98423E
:103E300006D003F58063984202D0012343617047A6
:103E40000B690363F9E700BF00000140A8B110B59A
:103E5000044690F83D305BB1022384F83D30211DCB
:103E60002068FFF78DFF012384F83D30002010BD4E
:103E700080F83C30FFF7CCFAEEE70120704790F86D
:103E80003C30012B1CD070B4012580F83C5002233B
:103E900080F83D3004686268A36822F070020E6802
:103EA000324323F0800349680B43626002689360E9
:103EB00080F83D50002380F83C30184670BC7047B5
:103EC00002207047704770472DE9F04704460268AA
:103ED000136923F44053C1680B431361836802697B
:103EE000134342691343C26913430168CA6822F449
:103EF000164222F00C021343CB600268536923F48C
:103F0000407381690B435361C369B3F5004F62D0BD
:103F1000D0F80080BB4B984500F01B8103F580630F
:103F2000984500F0168100F02BFD00EB800000EBBF
:103F300080006568AD00B0FBF5F5B34FA7FB053514
:103F40006D092E0100F01CFD00EB800000EB8000ED
:103F50006568AD00B0FBF5FA00F012FD00EB8000E3
:103F600000EB80006568AD00B0FBF5F5A7FB0535FB
:103F70006D094FF0640909FB15A52D013235A7FB2A
:103F800005356D0905F0F005354400F0F9FC00EB4E
:103F9000800000EB80006668B600B0FBF6F600F02B
:103FA000EFFC00EB800000EB800063689B00B0FB3F
:103FB000F3F0A7FB0030400909FB10694FEA09192B
:103FC00009F13209A7FB0937C7F343172F44C8F893
:103FD0000870BDE8F087D0F8008003F1804303F556
:103FE000104398455CD003F58063984558D000F0A5
:103FF000C7FC00EB800000EB800065686D00B0FB43
:10400000F5F5814FA7FB05356D092E0100F0B8FCD1
:1040100000EB800000EB800065686D00B0FBF5FAF6
:1040200000F0AEFC00EB800000EB800065686D00E6
:10403000B0FBF5F5A7FB05356D094FF0640909FBE9
:1040400015A5ED003235A7FB05356D096D0005F4AA
:10405000F875354400F094FC00EB800000EB800024
:1040600066687600B0FBF6F600F08AFC00EB800094
:1040700000EB800063685B00B0FBF3F3A7FB032356
:104080005B0909FB13694FEAC90909F13209A7FB6A
:104090000937C7F342172F44C8F80870BDE8F08706
:1040A00000F07EFC00EB800000EB800065686D0096
:1040B000B0FBF5F5544FA7FB05356D092E0100F057
:1040C0006FFC00EB800000EB800065686D00B0FBCA
:1040D000F5FA00F065FC00EB800000EB80006568FD
:1040E0006D00B0FBF5F5A7FB05356D094FF06409D0
:1040F00009FB15A5ED003235A7FB05356D096D00EF
:1041000005F4F875354400F04BFC00EB800000EB43
:10411000800066687600B0FBF6F600F041FC00EB2C
:10412000800000EB800063685B00B0FBF3F3A7FB4B
:1041300003235B0909FB13694FEAC90909F1320935
:10414000A7FB0937C7F342172F44C8F80870BDE82A
:10415000F08700F025FC00EB800000EB8000656834
:10416000AD00B0FBF5F5284FA7FB05356D092E0115
:1041700000F016FC00EB800000EB80006568AD00ED
:10418000B0FBF5FA00F00CFC00EB800000EB8000C7
:104190006568AD00B0FBF5F5A7FB05356D094FF07F
:1041A000640909FB15A52D013235A7FB05356D09FD
:1041B00005F0F005354400F0F3FB00EB800000EB68
:1041C00080006668B600B0FBF6F600F0E9FB00EB95
:1041D000800000EB800063689B00B0FBF3F3A7FB5B
:1041E00003235B0909FB13694FEA091909F1320935
:1041F000A7FB0937C7F343172F44C8F80870BDE879
:10420000F08700BF001001401F85EB512DE9F04100
:1042100005460F4616469846069C2B681B6837EAEB
:1042200003030CBF01230023B3421ED1B4F1FF3FAF
:10423000F3D02CB100F092FDA0EB08008442ECD248
:104240002A68D36823F4D073D3602A68536923F0B3
:1042500001035361202385F8393085F83A30002373
:1042600085F838300320BDE8F0810020BDE8F081FA
:1042700058B310B5044690F839300BB3242384F8B2
:1042800039302268D36823F40053D3602046FFF707
:104290001BFE2268136923F490431361226853695B
:1042A00023F02A0353612268D36843F40053D36098
:1042B0000020E063202384F8393084F83A3010BDC0
:1042C00080F83830FFF7DEF8D8E7012070472DE995
:1042D000F04182B01E4690F83930DBB2202B04D07A
:1042E0000223184602B0BDE8F08104460D46904610
:1042F000002955D0002A55D090F83830012B01D133
:104300000223EEE7012380F838300023C363212322
:1043100080F8393000F022FD0746A4F82480A4F884
:10432000268010E000963B46002280212046FFF7C1
:104330006DFF002838D122682B88C3F3080353602F
:104340002369CBB90235E38C9BB2BBB1E38C9BB242
:10435000013B9BB2E384A368B3F5805FE2D0009693
:104360003B46002280212046FFF750FFF0B923682A
:104370002A785A600135E6E70135E4E700963B46C6
:10438000002240212046FFF741FF034608B10323E6
:10439000A7E7202284F83920002284F83820A0E7FB
:1043A00001239EE701239CE703239AE7032398E771
:1043B000002800F0BB8170B582B00446036813F09A
:1043C000010F3BD0A74B9B6803F00C03042B2CD0B0
:1043D000A44B9B6803F00C03082B21D06368B3F552
:1043E000803F4FD0B3F5A02F52D09E4B1A6822F4D5
:1043F00080321A601A6822F480221A606368002BE7
:1044000050D000F0ABFC0546964B1B6813F4003F00
:1044100014D100F0A3FC401B6428F5D903208AE1E5
:10442000904B5B6813F4800FD8D08E4B1B6813F44D
:10443000003F03D06368002B00F07A81236813F0FB
:10444000020F55D0874B9B6813F00C0F3ED0854B65
:104450009B6803F00C03082B33D0E368002B68D073
:104460000122814B1A6000F079FC05467D4B1B68E8
:1044700013F0020F54D100F071FC401B0228F5D953
:10448000032058E1774A136843F480331360B5E79B
:10449000744B1A6842F480221A601A6842F480321F
:1044A0001A60ABE700F05AFC05466E4B1B6813F42C
:1044B000003FC3D000F052FC401B6428F5D9032014
:1044C00039E1684B5B6813F4800FC6D1654B1B68FC
:1044D00013F0020F04D0E368012B01D001202AE180
:1044E000604A136823F0F803216943EAC1031360AB
:1044F000236813F0080F40D0636963B301225B4B5C
:104500001A6000F02BFC0546564B5B6F13F0020F50
:1045100033D100F023FC401B0228F5D903200AE127
:10452000504A136823F0F803216943EAC10313607A
:10453000DEE700224C4B1A6000F010FC0546494BA8
:104540001B6813F0020FD3D000F008FC401B0228B8
:10455000F5D90320EFE00022444B1A6000F0FEFB87
:104560000546404B5B6F13F0020F06D000F0F6FBE0
:10457000401B0228F5D90320DDE0236813F0040F67
:1045800079D0384B1B6C13F0805F33D1002301933B
:10459000344B1A6C42F080521A641B6C03F0805347
:1045A0000193019B0125324B1B6813F4807F23D0BC
:1045B000A368012B34D0052B38D02A4B1A6F22F078
:1045C00001021A671A6F22F004021A67A368002B0F
:1045D00036D000F0C3FB0646224B1B6F13F0020FD0
:1045E00048D100F0BBFB801B41F288339842F3D9DD
:1045F0000320A0E00025D6E71D4A136843F480732A
:10460000136000F0ABFB0646194B1B6813F4807F68
:10461000CED100F0A3FB801B0228F5D903208AE04D
:10462000104A136F43F001031367CFE70D4B1A6F66
:1046300042F004021A671A6F42F001021A67C5E7D6
:1046400000F08CFB0646074B1B6F13F0020F11D0D6
:1046500000F084FB801B41F288339842F3D9032099
:1046600069E000BF0038024000004742800E474228
:1046700000700040E5B9A369002B5BD0304A926816
:1046800002F00C02082A58D0022B17D000222D4B22
:104690001A6000F063FB0446294B1B6813F0007F8F
:1046A00042D000F05BFB001B0228F5D9032042E05A
:1046B000234A136C23F080531364DCE70022214B60
:1046C0001A6000F04BFB05461D4B1B6813F0007F82
:1046D00006D000F043FB401B0228F5D903202AE056
:1046E000E369226A1343626A43EA8213A26A5208A8
:1046F000013A43EA0243E26A43EA0263104A536022
:104700000122104B1A6000F029FB04460C4B1B6879
:1047100013F0007F06D100F021FB001B0228F5D921
:10472000032008E0002006E0002004E0012070479C
:10473000012000E0002002B070BD0120FBE700BFB7
:104740000038024060004742F8B5314B9B6803F0E7
:104750000C03042B59D0082B01D02E48F8BD2C4B4C
:104760005A6802F03F025B6813F4800F2AD0284B8E
:104770005B68C3F388131E4600275C010025E41A1A
:1047800065EB0705A90141EA9461A001001B61EBFB
:104790000501CB0043EA5073C400A01943EB0701A5
:1047A0004B0243EAD0534402204619460023FDF74A
:1047B0005DFC174B5B68C3F3014301335B00B0FB47
:1047C000F3F0F8BD124B5B68C3F388131E46002755
:1047D0005C010025E41A65EB0705A90141EA946133
:1047E000A001001B61EB0501CB0043EA5073C4003C
:1047F000A01943EB07018B0243EA90538402204641
:1048000019460023FDF732FCD3E70348F8BD00BF8B
:10481000003802400024F40000127A00002800F062
:104820009D8070B504464F4B1B6803F00F038B420D
:1048300009D2CBB24B4A1370136803F00F039942AD
:1048400001D0012070BD236813F0020F17D013F0C0
:10485000040F04D0444A936843F4E0539360236800
:1048600013F0080F04D0404A936843F46043936008
:104870003D4A936823F0F003A068034393600D461C
:10488000236813F0010F32D06368012B21D09A1EE8
:10489000012A25D9344A126812F0020F60D0324939
:1048A0008A6822F0030213438B6000F057FA064631
:1048B0002D4B9B6803F00C036268B3EB820F16D09C
:1048C00000F04CFA801B41F288339842F0D9032063
:1048D00070BD254A126812F4003FE0D1012070BD7E
:1048E000214A126812F0007FD9D1012070BD1D4B02
:1048F0001B6803F00F039D4209D2EAB2194B1A70EC
:104900001B6803F00F039D4201D0012070BD236896
:1049100013F0040F06D0144A936823F4E053E168BF
:104920000B439360236813F0080F07D00E4A936877
:1049300023F46043216943EAC1039360FFF704FF56
:10494000094B9B68C3F30313084AD35CD840084B58
:104950001860002000F0B6F9002070BD01207047FB
:10496000012070BD003C024000380240E0520008C7
:104970000C000020014B1868704700BF0C0000209D
:1049800008B5FFF7F7FF044B9B68C3F38223034A84
:10499000D35CD84008BD00BF00380240F052000888
:1049A00008B5FFF7E7FF044B9B68C3F34233034AA4
:1049B000D35CD84008BD00BF00380240F052000868
:1049C000F0B583B000244BE04FEAD40E0EF1080E90
:1049D00050F82E2004F00706B6000F27B74022EA51
:1049E00007020F6907FA06F6324340F82E2046E028
:1049F000092600E0002606FA0EF632430233644E22
:104A000046F82320634B1A68EB4302EA03064F681B
:104A100017F4803F01D045EA02065E4A16605268EC
:104A200003EA02064F6817F4003F01D045EA020688
:104A3000584A5660926803EA02064F6817F4801FCE
:104A400001D045EA0206534A9660D26813404E6888
:104A500016F4001F01D045EA02034E4AD360013428
:104A60000F2C00F292800123A3400A6803EA02059A
:104A7000AB42F4D14A68022AA6D0122AA4D0066812
:104A80004FEA440E032202FA0EF2D24316404F6858
:104A900007F0030707FA0EF73E4306604E68771EDD
:104AA000012F03D9112E01D0122E0FD18668164086
:104AB000CF6807FA0EF73E438660466826EA03038E
:104AC0004E68C6F30016A64033434360C3681A40DD
:104AD0008B6803FA0EF31A43C2604B6813F0805FD1
:104AE000BDD0002301932C4B5A6C42F480425A648F
:104AF0005B6C03F480430193019BA3089E1C244A32
:104B000052F8262004F003064FEA860E0F2606FA16
:104B10000EF622EA0602214FB8423FF46BAF204E58
:104B2000B04222D006F58066B04220D006F58066FD
:104B3000B0421ED006F58066B0421CD006F58066F5
:104B4000B0421AD006F58066B04218D006F58066ED
:104B5000B04216D006F58066B04214D006F58066E5
:104B6000B0423FF445AF0A2645E7012643E7022657
:104B700041E703263FE704263DE705263BE70626F7
:104B800039E7072637E7082635E703B0F0BD00BF51
:104B900000380140003C0140003802400000024063
:104BA0000004024012B909048161704781617047B5
:104BB00008B5054B5B69034200D108BD024B586143
:104BC000FEF730FBF9E700BF003C014090F83530BC
:104BD000DBB2022B03D080234365012070470523FD
:104BE00080F835300268136823F001031360002059
:104BF00070470000074AD36823F4E0631B041B0CD2
:104C0000000200F4E060184340F0BF6040F4003060
:104C1000D060704700ED00E030B4164BDB68C3F3A2
:104C20000223C3F10704042C28BF04241D1D062DF4
:104C300017D9033B012505FA04F4013C21409940B2
:104C400005FA03F3013B1340194300280BDB09016C
:104C5000C9B200F1604000F5614080F8001330BC3B
:104C600070470023E6E700F00F000901C9B2024BCC
:104C70001954F4E700ED00E014ED00E0002808DB33
:104C8000420900F01F00012303FA00F0014B43F832
:104C90002200704700E100E00138B0F1807F0AD2C5
:104CA000064B5860F021064A82F8231000209860D5
:104CB00007221A6070470120704700BF10E000E033
:104CC00000ED00E010B504460E4B18784FF47A73EF
:104CD000B3FBF0F30C4A1068B0FBF3F0FFF7DCFF16
:104CE00068B90F2C01D9012010BD002221464FF0D8
:104CF000FF30FFF791FF054B1C60002010BD012025
:104D000010BD00BF040000200C000020080000209F
:104D100008B50B4B1A6842F400721A601A6842F424
:104D200080621A601A6842F480721A600320FFF7EA
:104D300061FF0020FFF7C6FFFEF7D0FA002008BD94
:104D4000003C0240034A1168034B1B780B4413607C
:104D5000704700BF1859002004000020014B18685C
:104D6000704700BF185900200F49D1F8883043F42C
:104D70007003C1F888300D4B1A6842F001021A60C6
:104D8000002098601A6822F0847222F480321A603F
:104D9000074A5A601A6822F480221A60D8604FF0DD
:104DA00000638B60704700BF00ED00E000380240F8
:104DB0001030002470B110B50446037933B10223DA
:104DC0002371002020610123237110BD4371FEF780
:104DD000A5FAF4E7012070474379012B31D010B4D4
:104DE0000123437102220271046822688B4013433D
:104DF0002360B1B902681168136803F0380311F039
:104E0000040F01D0382B07D0012303710023437115
:104E100018465DF8044B7047536843F00103536034
:104E2000F2E702681168136803F4601311F4802F2D
:104E3000EAD0B3F5601FE7D1536843F00203536033
:104E4000E2E702207047704710B5044603685A6BCA
:104E500012F4005F05D123685A6B12F0005F11D184
:104E600010BD04220271026942F0010202614FF496
:104E700000525A630268136823F480531360FFF7EB
:104E8000E2FFE8E704222271226942F00202226175
:104E90004FF000525A632268136823F08053136066
:104EA000204600F03DF8DBE74379012B1FD070B4BA
:104EB00001254571022303710668336840F6FE74CC
:104EC000944023EA04030C684968214391400B4352
:104ED000336004682368C02101FA02F223EA020267
:104EE0002260057100234371184670BC7047022090
:104EF000704710B483B0002401940068019051B150
:104F000001990A4414320192019A1360002003B0FF
:104F10005DF8044B704701990A4408320192F3E7A7
:104F200070470000DFF834D0002103E00C4B5B58E1
:104F3000435004310B480C4B42189A42F6D30B4AAB
:104F400002E0002342F8043B094B9A42F9D3FFF7F1
:104F50000BFFFBF77FF9FDF795FD7047000003207D
:104F6000085300080000002010000020100000205E
:104F70001C590020FEE70000F8B500BFF8BC08BCD3
:104F80009E467047F8B500BFF8BC08BC9E46704707
:104F90000A53544D333246343239210A000000009E
:104FA00000000000FB21F93FFB2109407CD91240A1
:104FB000FB2119407A6A1F407CD92240BBFD254065
:104FC000FB2129403A462C407A6A2F405C47314009
:104FD0007CD932409C6B3440BBFD3540DB8F374081
:104FE000FB2139401BB43A403A463C405AD83D4038
:104FF0007A6A3F404C7E40405C4741406C104240E2
:105000007CD942408CA243409C6B4440AC34454028
:10501000BBFD4540CBC64640DB8F4740EB58484080
:10502000FB21494083F9A200444E6E00FC29150083
:10503000D1572700DD34F50062DBC0003C999500B4
:10504000419043006351FE00BBDEAB00B761C50079
:105050003A6E2400D24D42004906E00009EA2E00D3
:105060001C92D100EB1DFE0029B11C00E83EA700F8
:10507000F535820044BB2E009CE98400B426700004
:10508000417E5F00D6913900538339009CF439008A
:105090008B5F840028F9BD00F81F3B00DEFF9700FE
:1050A0000F980500112FEF000A5A8B006D1F6D003D
:1050B000CF7E360009CB2700464FB7009E663F00E3
:1050C0002DEA5F00BA277500E5EBC7003D7BF100D4
:1050D000F739070092528A00FB6BEA001FB15F00AC
:1050E000085D8D00300356007BFC4600F0AB6B0082
:1050F00020BCCF0036F49A00E3A91D005E61910048
:10510000081BE60085996500A0145F008D406800CB
:1051100080D8FF0027734D0006063100CA561500DF
:10512000C9A873007BE260006B8CC0000000000027
:105130000200000003000000040000000600000060
:1051400000000040FB21F93F000000002D44743EA8
:10515000000000809846F83C0000006051CC783B8D
:1051600000000080831BF0390000004020257A38C1
:10517000000000802282E336000000001DF3693544
:105180000000DC41F914E94112F1F64114D0024269
:1051900061970A4218D5124240901B4253D02442D4
:1051A000379D2E4248FF38426BFF434201A74F42D2
:1051B00000005C42F61469420FF1764212D082423E
:1051C00061978A4217D5924242909B4254D0A442A2
:1051D000379DAE424AFFB8426BFFC34204A7CF429D
:1051E0000000DC42F114E9420DF1F64214D0024312
:1051F0005F970A4318D5124342901B4355D024436E
:10520000369D2E4348FF384369FF4343FDA64F4375
:1052100000005C43F714694313F1764314D08243D2
:105220005F978A4318D5924342909B4355D0A4433D
:10523000369DAE4348FFB84369FFC34300A7CF4341
:105240000000DC43F714E94310F1F64312D00244A6
:1052500061970A4417D5124442901B4454D0244409
:10526000379D2E4448FF38446BFF434400A74F440A
:1052700000005C44F614694410F1764410D0824476
:1052800064978A4417D5924442909B4452D0A444D8
:10529000379DAE444CFFB8446DFFC34402A7CF44D2
:1052A0000000DC44F614E9440EF1F64414D0024543
:1052B00060970A4517D5124542901B4552D02445A8
:1052C000379D2E4548FF384568FF434502A74F45A7
:1052D00000005C45F61469450EF1764500000000BB
:1052E0000000000000000000010203040607080996
:0852F0000000000001020304AC
:0852F800A4CDFF7F01000000BE
:045300001D02000882
:04530400F5010008A7
:10530800FFFFFFC801000000100000000024F400A7
:0400000508004F257B
:00000001FF
