:020000040800F2
:100000000000032011440008C12C0008C32C000884
:10001000C52C0008C72C0008C92C000800000000EF
:10002000000000000000000000000000CB2C0008D1
:10003000CD2C000800000000CF2C0008D12C0008B7
:1000400061440008614400086144000861440008FC
:1000500061440008614400086144000861440008EC
:1000600061440008614400086144000861440008DC
:1000700061440008614400086144000861440008CC
:1000800061440008614400086144000861440008BC
:1000900061440008614400086144000861440008AC
:1000A000614400086144000861440008614400089C
:1000B000614400086144000861440008614400088C
:1000C000614400086144000861440008614400087C
:1000D000614400086144000861440008614400086C
:1000E000614400086144000861440008614400085C
:1000F000614400086144000861440008614400084C
:10010000614400086144000861440008614400083B
:100110006144000861440008D92C000861440008CB
:10012000614400086144000861440008614400081B
:10013000614400086144000861440008614400080B
:1001400061440008614400086144000861440008FB
:1001500061440008614400086144000861440008EB
:1001600061440008614400086144000861440008DB
:100170006144000861440008614400080000000078
:1001800061440008614400086144000861440008BB
:1001900061440008E92C000861440008614400083B
:0C01A0006144000861440008614400084C
:1001B000044B05481B1A062B02D9044B03B1184700
:1001C000704700BF0F0000200C000020000000005E
:1001D00005490648091A891001EBD171491002D06E
:1001E000034B03B1184770470C0000200C0000209F
:1001F0000000000010B5064C237843B9FFF7D8FF84
:10020000044B13B10448AFF300800123237010BDE9
:100210000C000020000000006444000808B5084BF2
:100220001BB108490848AFF300800848036813B9B8
:10023000BDE80840CCE7064B002BF9D09847F7E71C
:100240000000000010000020644400080C000020A2
:100250000000000070B50F4E0F4D761BB61018BF92
:10026000002405D0013455F8043B9847A642F9D143
:100270000A4E0B4D761B04F0F5F8B61018BF00249B
:1002800006D0013455F8043B9847A642F9D170BD19
:1002900070BD00BF80460008804600088446000804
:1002A0008046000870B4860746D0541E002A41D00C
:1002B000CAB2034602E014F1FF343BD303F8012B2A
:1002C0009D07F8D1032C2ED9CDB245EA05250F2C78
:1002D00045EA054519D903F110022646103E0F2EB6
:1002E00042F8105C42F80C5C42F8085C42F8045C8E
:1002F00002F11002F2D8A4F1100222F00F0204F071
:100300000F041032032C13440DD91E462246043A22
:10031000032A46F8045BFAD8221F22F003020432B3
:10032000134404F003042CB1C9B21C4403F8011BAC
:100330009C42FBD170BC704714460346C2E700BF25
:1003400000B551EC100B2C4A21F00043934285B0CC
:1003500027DD2A4A934209DD10EE102A0B4601F0F0
:10036000EFF941EC100B05B05DF804FB684600F0B6
:1003700047F800F00300012827D002281DD068B3F9
:100380009DED021B9DED000B00F062FA53EC102B6B
:1003900010EE100A03F1004141EC100B05B05DF8BE
:1003A00004FB00209FED121B00F0CEFF51EC100B60
:1003B00041EC100B05B05DF804FB01209DED021B24
:1003C0009DED000B00F0C0FFE0E79DED021B9DEDF1
:1003D000000B00F03DFA51EC100BC2E701209DED3F
:1003E000021B9DED000B00F0AFFF51EC100BB8E7C6
:1003F0000000000000000000FB21E93FFFFFEF7F4D
:100400002DE9F04753EC102B9D4923F000478F4214
:1004100090B040F391809B498F421C46824629DC74
:10042000002C194610EE100A8BA3D3E9002340F3E9
:10043000B18101F085F9944B9F4204460D4600F0CE
:10044000918087A3D3E9002301F07AF902460B4695
:10045000CAE900232046294601F072F980A3D3E9B6
:10046000002301F06DF90125CAE90201284610B008
:10047000BDE8F08785498F4240F3918084498F42DF
:1004800065DC3D15A5F21645A7EB0551104616464D
:100490000F4601F0A3FD01F0A1FA804689464246CD
:1004A0004B4630463946CDE90A8901F049F9002228
:1004B000784B01F0F9FA8946804601F08FFD01F092
:1004C0008DFA06460F4632463B4640464946CDE940
:1004D0000C6701F035F900226E4B01F0E5FA0022BD
:1004E0000023CDE90E0101F047FD002800F07081E6
:1004F000002330463946002201F03EFD002814BF9B
:1005000001230223644A019202212A4600910AA88B
:10051000514600F0E1FA002C054614DADAF804201E
:10052000DAF80C3002F1004203F100434542CAF808
:100530000420CAF80C3006E080ED000B00250024F2
:10054000C0E902450025284610B0BDE8F08710EE4E
:10055000100A194601F0F4F80025CAE90201CAE9B7
:100560000001F0E740A3D3E9002301F0E9F840A33C
:10057000D3E900230D46044601F0E2F802460B469B
:10058000CAE900232946204601F0DAF838A3D3E966
:10059000002301F0D5F80125CAE90201D3E700F0F4
:1005A0009DFF59EC108B10EE100A33A3D3E9002302
:1005B000494601F079FA0022384B01F0C3F801F006
:1005C0000DFD054601F00AFA23A3D3E90023CDE986
:1005D000060101F069FA02460B464046494601F021
:1005E000AFF81FA3D3E90023CDE90201DDE906013D
:1005F00001F05AFA1F2D80468946CDE9048951DC65
:10060000274B6A1E53F822309F424BD002460B46BE
:10061000DDE9020101F094F880468946CAE90089C3
:1006200042464B46DDE9020101F08AF8DDE9042388
:1006300001F086F8002CCAE9020184DA09F10044CD
:1006400001F100436D42CAF80080CAF80440CAF8BC
:100650000800CAF80C3076E700004054FB21F93F4F
:100660003163621A61B4D03D0000601A61B4D03DBC
:100670007370032E8A19A33B83C8C96D305FE43FB2
:10068000FB21E93F7BD90240FB21F93FFB213941A6
:10069000FFFFEF7F00007041044500080000E03FCD
:1006A00084440008DDE90423DDE9020101F048F893
:1006B0003F15C1F30A53FB1A80468946102BCAE93D
:1006C0000089ADDD58A3D3E90023DDE9060101F07F
:1006D000EBF98046894602460B46DDE9020101F04E
:1006E0002FF802460B46DDE90201CDE9082301F0AF
:1006F00027F842464B4601F023F84DA3D3E90023E7
:1007000080468946DDE9060101F0CEF942464B46B6
:1007100001F016F80B46CDE904010246DDE90801B7
:1007200001F00EF8C1F30A53FF1A80468946312FB3
:10073000CAE900896CDD41A3D3E90023DDE90601A4
:1007400001F0B2F9DDE9088906460F4602460B467C
:100750004046494600F0F4FF02460B4640464946F3
:10076000CDE9022300F0ECFF32463B4600F0E8FF03
:1007700034A3D3E9002306460F46DDE9060101F064
:1007800093F932463B4600F0DBFF02460B46CDE9CB
:1007900004233DE700F0D6FF274B9F4204460D4659
:1007A00018D01FA3D3E9002300F0CCFF02460B466C
:1007B000CAE900232946204600F0C2FF18A3D3E966
:1007C000002300F0BFFF4FF0FF35CAE90201BAE68F
:1007D000032397E614A3D3E9002300F0B3FF14A387
:1007E000D3E900230D46044600F0ACFF02460B4659
:1007F000CAE900232946204600F0A2FF0CA3D3E952
:10080000002300F09FFF4FF0FF35CAE902019AE68E
:100810009DED087B8DED027B02E700BFAFF300800A
:100820003163621A61B4D03D0000601A61B4D03DFA
:100830007370032E8A19A33BFB21F93F0000002EA1
:100840008A19A33BC14920259A837B390000000007
:100850002DE9F04F57EC106B2DED028BB0EE418A75
:10086000F0EE618A27F00049B9F1795F83B072DA5E
:1008700010EE100A394601F0B1FB002800F0F680B6
:1008800032463B463046394601F00EF97CA3D3E9A7
:10089000002304460D4601F007F97BA3D3E90023AA
:1008A00000F050FF22462B4601F0FEF878A3D3E972
:1008B000002300F045FF22462B4601F0F5F876A311
:1008C000D3E9002300F03EFF22462B4601F0ECF86E
:1008D00073A3D3E9002300F033FF22462B4601F037
:1008E000E3F871A3D3E9002300F02CFF22462B4646
:1008F00001F0DAF882468B460022714B20462946E9
:1009000001F0D2F85246804689465B462046294689
:1009100001F0CAF853EC182B04460D463046394610
:1009200001F0C2F802460B462046294600F008FFB7
:1009300002460B464046494600F002FF02460B467F
:100940000020604900F0FCFE41EC100B03B0BDEC50
:10095000028BBDE8F08F10EE102A10EE100A3B4615
:10096000394601F0A1F846A3D3E9002304460D4619
:1009700001F09AF844A3D3E9002300F0E3FE2246F5
:100980002B4601F091F842A3D3E9002300F0D8FEF2
:1009900022462B4601F088F83FA3D3E9002300F05C
:1009A000D1FE22462B4601F07FF83DA3D3E9002378
:1009B00000F0C6FE22462B4601F076F83AA3D3E9B2
:1009C000002300F0BFFE2B46224601F06DF83E4B9F
:1009D000994582468B468FDD3C4B99453DDC002294
:1009E000A9F50013002037499046994600F0A8FE6B
:1009F000CDE900010022324B2046294601F054F88F
:100A000042464B4600F09CFE5246804689465B4675
:100A10002046294601F048F853EC182B04460D46B1
:100A20003046394601F040F802460B46204629463A
:100A300000F086FE02460B464046494600F080FE26
:100A400002460B46DDE9000100F07AFE41EC100B96
:100A500003B0BDEC028BBDE8F08F9FED157B4FF02E
:100A600000088DED007BDFF86890C3E79FED120B67
:100A700003B0BDEC028BBDE8F08F00BFAFF3008088
:100A8000D43888BEE9FAA8BDC4B1B4BD9EEE213EFB
:100A9000AD529C804F7E923E9015CB19A001FA3E3C
:100AA0007751C1166CC1563F4C5555555555A53F0C
:100AB000000000000000E73F000000000000F03FE1
:100AC0000000E03F0000F03F3233D33F0000E93F39
:100AD0000000D23F000000002DE9F04FADF51B7D76
:100AE000A34CA49EA34D54F8264007942646D41E3A
:100AF00085FB0475E417C4EBA50424EAE4741D46E1
:100B00000A93631CA3EB8303013D02EBC30306932B
:100B10002B460B940395651BF418049008911AD486
:100B20002C440026002701340DF18808DDF894924A
:100B300008E059F8250000F051FF0135A542E8E82A
:100B4000020108D0002DF4DA013530463946A542BD
:100B5000E8E80201F6D1079B002BC0F2EB83079B6C
:100B600003F1010B0A9B22A9DB001A4601EB0309E2
:100B70000093049B0DF5E47A19460AEBCB0B01EBCD
:100B80000208039B002BC0F20183049C4D46002603
:100B9000002775E90223F4E8020100F085FF024610
:100BA0000B463046394600F0CDFD444506460F461B
:100BB000EFD1EAE80267DA4509F10809E1D10799BE
:100BC0000098049C009101F18043013B9B0020446C
:100BD0001A1F83460EA8024403440C920D93009AF8
:100BE0009AA901EBC203002A53E9284529DD0DF536
:100BF000E47A0AEBC2080DF1340900225E4B20466C
:100C0000294600F051FF01F0E9F900F0E7FE00226B
:100C10005A4B06460F4600F047FF02460B46204659
:100C2000294600F08DFD01F0D9F978E9022349F851
:100C3000040F3946304600F085FDD04504460D4688
:100C4000DBD1DDF8189045EC104B484600F0E0FC95
:100C500055EC104B00224FF07F5310EE100A29463E
:100C600000F022FF41EC100B00F042FC002251EC9E
:100C7000100B434B00F018FF02460B462046294656
:100C800000F05EFD0D46044601F0A8F9804600F034
:100C9000A5FE0B4602462946204600F051FD4B4674
:100CA000002B06460F4640F3FA80009A0EA9013A3F
:100CB000C9F1180351F8225045FA03F101FA03F380
:100CC0000EA8EB1A40F82230C9F11705884443FA00
:100CD00005F5002D6EDD009B002B08F1010840F3A7
:100CE00074820E9C002C40F01B83009B012B40F370
:100CF00094820EAA012352F8044F002C00F088823F
:100D0000581C0EAAC4F1807442F82340009A824213
:100D100019DD0EAA0EAC52F820106FF07F42511A66
:100D200044F820100099023399420CDD1046009AD5
:100D30000EA901EB830301EB82011A68821A43F8C2
:100D4000042B8B42F9D1069B002B1BDD069B012B4C
:100D50004FF0010440F04182009B5A1E0EAB0EA9D9
:100D600053F82230C3F3160341F8223041E200BFAA
:100D700010460008ABAAAA2A0000703E000070418D
:100D800000002040022D15D132463B4600209449F8
:100D900000F0D6FC06460F4606989FED8D0B00F03E
:100DA00037FC3046394653EC102B00F0C9FC0225C5
:100DB00006460F46002200233046394601F0DCF893
:100DC000002800F03B82009A079B501E83420FDCF4
:100DD00002F18043013B0EAA0D9C02EB830300222B
:100DE00053F80419A34242EA0102F9D1002A67D15B
:100DF000079B0EAA013B52F82330002B40F01C82C7
:100E00000C9A012352F8041901330029FAD0009AF0
:100E1000D31802F1010A9A4509933DDC009B0A9917
:100E20000B9A0B4409990AEB0208994622AB08F188
:100E3000804803EBC9098B18A59A08F1FF3802EB2B
:100E4000880872AA02EBCA0AA59A02EB83030093F0
:100E500058F8040F00F0C2FD039B002BE9E80201E3
:100E60004FF000064FF0000711DB049C4D4675E97A
:100E70000223F4E8020100F017FE02460B4630465A
:100E8000394600F05FFC5C4506460F46EFD1009BFB
:100E90009845EAE80267DBD1099B00939FE606D1FB
:100EA000009B0EAA013B52F82350ED1511E70022DA
:100EB0004C4B01F07FF8002840F07281054679E73D
:100EC0000EA9039551F820300699CDF824801839E1
:100ED0000246009006916BB900F18043013B0EA8D9
:100EE00000EB830353F80409013A18390028F9D0BC
:100EF0000092069106989FED360B00F089FB009B4F
:100F0000002B55EC104BC0F2FC81DA0072A901EB0A
:100F1000020B06920EAA02EB8306DFF8CC904FF08C
:100F200000080BF10807043656F8040D00F056FDD2
:100F300022462B4600F0B8FD4B4667E902014246C7
:100F40002046294600F0B0FD0EAB9E4204460D46F9
:100F5000EAD14AACDDF81C9004944FF0000AB9F1D4
:100F6000000FC0F22F81DFF884805D461AA1D1E91D
:100F7000000100260027002403E0544510DCF8E8B7
:100F80000201F5E8022300F08FFD02460B463046D1
:100F9000394600F0D7FB0134A14506460F46ECDA8E
:100FA000049B03EBCA03ABF1080BC3E9006770AB0A
:100FB0009B450AF1010AD2D1A49B049C032B00F2A9
:100FC0008D80DFE813F0C90092009200150000BF89
:100FD000000000000000F03F00000040FB21F93F4E
:100FE0000000F03F0000E03F0000703E284600088F
:100FF000009B002B40F38281069A04EB020ADAE997
:10100000008902F1080525440DF5987B1AED027B55
:1010100042464B4651EC170B8DED047B00F092FBE2
:1010200006460F4602460B46DDE9040100F088FB48
:1010300042464B4600F086FB65E902015D45B0463D
:10104000B9466AE90267E1D1009B012B40F3568162
:10105000069BE518D5E9008903F1080B04EB0B0AA0
:1010600015ED027B42464B4651EC170B8DED007B94
:1010700000F068FB06460F4602460B46DDE900011C
:1010800000F05EFB4B46424600F05CFB6AE9020161
:101090004EAB5345B046B94665E90267E0D1002042
:1010A000002104EB0B0575E9022300F04BFBAA4578
:1010B000F9D1039B002B00F00B816268E368089F65
:1010C0002568A4683D6002F1004203F1004301F18C
:1010D00000417A60FB60BC6038617961099B03F074
:1010E00007000DF51B7DBDE8F08F069D08352544F2
:1010F0000020002175E9022300F024FBA542F9D16C
:10110000039B002B00F0D380089E024601F10043B0
:1011100086E80C000B460246D4E9000100F010FB03
:10112000009B002B0BDD4CAD0124F5E8022300F001
:1011300009FB009B0134A342F7DA039B13B101F1D1
:1011400000431946089BC3E90201099B03F007000D
:101150000DF51B7DBDE8F08F069D083500200021B0
:10116000254475E9022300F0EDFAAC42F9D1039B66
:1011700013B101F100431946089BC3E90001099B23
:1011800003F007000DF51B7DBDE8F08F002600275A
:10119000EAE80267DA4509F108097FF4F2AC0EE5E6
:1011A000009B002B08F10108C8BF02253FF799AD4D
:1011B00032463B460020614900F0C2FA022506464D
:1011C0000F46F7E500260027EAE6069B002B27DD01
:1011D0000024069B012B3FF4BFAD022B09D1009BDD
:1011E0005A1E0EAB0EA953F82230C3F3150341F873
:1011F0002230022D7FF4DEAD32463B4600204F49BF
:1012000000F09EFA06460F46002C3FF4D3ADC3E52E
:101210000099013399427FF46EAD069B002BD8DC18
:10122000022D7FF4C7AD32463B460020434900F013
:1012300087FA06460F46BDE50123E8E5069B0395C0
:10124000584247EC106BCDF8248000F0E1F955ECE2
:10125000104B00223A4B10EE100A294600F0AAFE6D
:10126000002841D00022374B2046294600F01CFCC4
:1012700000F0B4FE064600F0B1FB0022304B00F057
:1012800013FC02460B462046294600F059FA00F0AE
:10129000A5FE0099069B0A461833013206930B46B9
:1012A0000EA9009241F8230041F8226022E6089B33
:1012B0000246C3E900010B46D4E9000100F040FA00
:1012C000009B002B3FF72FAF089BC3E902013CE7CF
:1012D000D4E90067D4E90223089DC5E90401C5E902
:1012E0000067C5E90223F9E62946204600F076FEAC
:1012F000009A0EA941F82200FCE54AAC002000212A
:10130000D7E6A49B032B3FF6E9AE01A252F823F0E7
:101310002F1300082713000827130008FB120008EA
:1013200001200023EDE4002000214AACE8E6002083
:1013300000211CE70A9BDB00009340E40000F03F23
:10134000000070410000703E2DE9F04F55EC104B4D
:101350002DED028BB0EE418AF0EE618A25F000435C
:10136000B3F1795F83B0824607DA10EE100A29469E
:1013700000F034FE002800F08E8022462B462046E6
:10138000294600F091FB06460F4602460B462046D2
:10139000294600F089FB47A3D3E90023804689460C
:1013A0003046394600F080FB44A3D3E9002300F027
:1013B000C7F932463B4600F077FB42A3D3E900234E
:1013C00000F0C0F932463B4600F06EFB3FA3D3E984
:1013D000002300F0B5F932463B4600F065FB3DA323
:1013E000D3E9002300F0AEF9CDE90001BAF1000F16
:1013F00037D000222E4B51EC180B00F055FBDDE9E5
:10140000002382468B464046494600F04DFB02468B
:101410000B465046594600F093F932463B4600F0E1
:1014200043FB53EC182B00F08BF91FA3D3E90023E7
:1014300006460F464046494600F036FB02460B463C
:101440003046394600F07EF902460B4620462946D2
:1014500000F076F941EC100B03B0BDEC028BBDE857
:10146000F08F02460B463046394600F01DFB0EA3B6
:10147000D3E9002300F064F942464B4600F014FB28
:1014800022462B4600F05EF941EC100B03B0BDEC98
:10149000028BBDE8F08F45EC104B03B0BDEC028B26
:1014A000BDE8F08FAFF30080495555555555C53F00
:1014B0000000E03F7CD5CF5A3AD9E53DEB9C2B8A22
:1014C000E6E55A3E7DFEB157E31DC73ED561C11921
:1014D000A0012A3FA6F810111111813F53EC102BE7
:1014E00023F0004343EC102B704700BF00000000C6
:1014F00051EC100BC1F30A532DE9F041A3F2FF3573
:10150000132D0C460F4610EE106A1DDC002D43DB38
:101510003D4B43FA05F801EA0803034319D038A309
:10152000D3E9002300F00EF90022002300F04CFD67
:1015300020B1002C49DB27EA080400262346324666
:1015400043EC102BBDE8F081332D06DDB5F5806F3F
:1015500032D041EC100BBDE8F081A3F213434FF001
:10156000FF3828FA03F810EA080FF2D024A3D3E9D1
:10157000002300F0E7F80022002300F025FD0028FA
:10158000DCD0002C27DB3C4626EA08062346324600
:1015900043EC102BBDE8F08119A3D3E9002300F040
:1015A000D1F80022002300F00FFD0028C6D0002C47
:1015B0001CDB00263446C1E710EE102A0B4600F073
:1015C000C1F841EC100BBDE8F0814FF4801343FAF1
:1015D00005F52F44AFE7142D10D00123C5F13405D4
:1015E00003FA05F5AE1928BFFF18CCE724F0004236
:1015F000064B324318BF1C4600269FE70137C2E75F
:101600009C7500883CE4377EFFFF0F000000F0BFB0
:1016100053EC102B70B5C3F30A541946054614BB9E
:1016200023F0004111432AD019460022384B394E8D
:1016300010EE100A00F038FAB54202460B461FDBE6
:10164000C1F30A54363C2C4440F2FE7084421FDC45
:10165000002C2DDD21F0FF4121F4E00141EA04538B
:1016600043EC102B70BD40F2FF708442EBD110EEC2
:10167000100A194600F066F841EC100B70BD70BD01
:101680001FA3D3E9002300F00FFA41EC100B70BD4B
:1016900043EC112B9FED1C0B00F040F81AA3D3E98B
:1016A000002351EC100B00F0FFF941EC100B70BD62
:1016B00014F1350F13DA4CF250318D4243EC112BFB
:1016C000E8DC9FED0F0B00F029F80DA3D3E9002310
:1016D00051EC100B00F0E8F941EC100B70BD21F05B
:1016E000FF4121F4E001363441EA04531046194623
:1016F0000022094B00F0D8F941EC100B70BD00BF7F
:1017000059F3F8C21F6EA5019C7500883CE4377E32
:1017100000005043B03CFFFF0000903C53EC102B06
:1017200011EE900A23F0004100F0004041EA00036E
:1017300043EC102B704700BF81F0004102E000BF76
:1017400083F0004330B54FEA41044FEA430594EA81
:10175000050F08BF90EA020F1FBF54EA000C55EABC
:10176000020C7FEA645C7FEA655C00F0E2804FEA8D
:101770005454D4EB5555B8BF6D420CDD2C4480EA6F
:10178000020281EA030382EA000083EA010180EA9F
:10179000020281EA0303362D88BF30BD11F0004FED
:1017A0004FEA01314FF4801C4CEA113102D0404223
:1017B00061EB410113F0004F4FEA03334CEA13335E
:1017C00002D0524263EB430394EA050F00F0A78076
:1017D000A4F10104D5F1200E0DDB02FA0EFC22FA71
:1017E00005F2801841F1000103FA0EF2801843FA65
:1017F00005F359410EE0A5F120050EF1200E012A56
:1018000003FA0EFC28BF4CF0020C43FA05F3C01893
:1018100051EBE37101F0004507D54FF0000EDCF10C
:10182000000C7EEB00006EEB0101B1F5801F1BD3B5
:10183000B1F5001F0CD349085FEA30004FEA3C0CB9
:1018400004F101044FEA445212F5800F80F09A80AF
:10185000BCF1004F08BF5FEA500C50F1000041EBB3
:10186000045141EA050130BD5FEA4C0C404141EBB7
:10187000010111F4801FA4F10104E9D191F0000FDE
:1018800004BF01460020B1FA81F308BF2033A3F161
:101890000B03B3F120020CDA0C3208DD02F1140C58
:1018A000C2F10C0201FA0CF021FA02F10CE002F193
:1018B0001402D8BFC2F1200C01FA02F120FA0CFC8C
:1018C000DCBF41EA0C019040E41AA2BF01EB0451D5
:1018D000294330BD6FEA04041F3C1CDA0C340EDCD3
:1018E00004F11404C4F1200220FA04F001FA02F316
:1018F00040EA030021FA04F345EA030130BDC4F1D4
:101900000C04C4F1200220FA02F001FA04F340EAC8
:101910000300294630BD21FA04F0294630BD94F079
:10192000000F83F4801306BF81F480110134013D60
:101930004EE77FEA645C18BF7FEA655C29D094EAD1
:10194000050F08BF90EA020F05D054EA000C04BF4F
:101950001946104630BD91EA030F1EBF002100203A
:1019600030BD5FEA545C05D14000494128BF41F0D9
:10197000004130BD14F580043CBF01F5801130BD3D
:1019800001F0004545F0FE4141F470014FF00000C8
:1019900030BD7FEA645C1ABF194610467FEA655C79
:1019A0001CBF0B46024650EA013406BF52EA03351B
:1019B00091EA030F41F4002130BD00BF90F0000F09
:1019C00004BF0021704730B54FF4806404F1320445
:1019D0004FF000054FF0000150E700BF90F0000FFE
:1019E00004BF0021704730B54FF4806404F1320425
:1019F00010F0004548BF40424FF000013EE700BFF5
:101A000042004FEAE2014FEA31014FEA02701FBF84
:101A100012F07F4393F07F4F81F06051704792F056
:101A2000000F14BF93F07F4F704730B54FF46074D0
:101A300001F0004521F0004120E700BF50EA01021B
:101A400008BF704730B54FF000050AE050EA0102C8
:101A500008BF704730B511F0004502D5404261EB38
:101A600041014FF4806404F132045FEA915C3FF479
:101A7000DCAE4FF003025FEADC0C18BF03325FEA12
:101A8000DC0C18BF033202EBDC02C2F1200300FAC7
:101A900003FC20FA02F001FA03FE40EA0E0021FAEC
:101AA00002F11444C1E600BF70B54FF0FF0C4CF4D6
:101AB000E06C1CEA11541DBF1CEA135594EA0C0F8C
:101AC00095EA0C0F00F0DEF82C4481EA030621EAC7
:101AD0004C5123EA4C5350EA013518BF52EA033502
:101AE00041F4801143F4801338D0A0FB02CE4FF0B4
:101AF0000005E1FB02E506F00042E0FB03E54FF0E4
:101B00000006E1FB03569CF0000F18BF4EF0010EDB
:101B1000A4F1FF04B6F5007F64F5407404D25FEAD7
:101B20004E0E6D4146EB060642EAC62141EA55518A
:101B30004FEAC52040EA5E504FEACE2EB4F1FD0CCC
:101B400088BFBCF5E06F1ED8BEF1004F08BF5FEA4A
:101B5000500E50F1000041EB045170BD06F00046FC
:101B600046EA010140EA020081EA0301B4EB5C04A9
:101B7000C2BFD4EB0C0541EA045170BD41F48011A1
:101B80004FF0000E013C00F3AB8014F1360FDEBFC6
:101B9000002001F0004170BDC4F10004203C35DAA2
:101BA0000C341BDC04F11404C4F1200500FA05F325
:101BB00020FA04F001FA05F240EA020001F00042C6
:101BC00021F0004110EBD37021FA04F642EB06013C
:101BD0005EEA430E08BF20EAD37070BDC4F10C0466
:101BE000C4F1200500FA04F320FA05F001FA04F22A
:101BF00040EA020001F0004110EBD37041F1000116
:101C00005EEA430E08BF20EAD37070BDC4F1200520
:101C100000FA05F24EEA020E20FA04F301FA05F288
:101C200043EA020321FA04F001F0004121FA04F230
:101C300020EA020000EBD3705EEA430E08BF20EA00
:101C4000D37070BD94F0000F0FD101F0004640003A
:101C500041EB010111F4801F08BF013CF7D041EABC
:101C6000060195F0000F18BF704703F000465200C0
:101C700043EB030313F4801F08BF013DF7D043EA91
:101C80000603704794EA0C0F0CEA135518BF95EA47
:101C90000C0F0CD050EA410618BF52EA4306D1D1CE
:101CA00081EA030101F000414FF0000070BD50EAED
:101CB000410606BF1046194652EA430619D094EA77
:101CC0000C0F02D150EA013613D195EA0C0F05D161
:101CD00052EA03361CBF104619460AD181EA0301B5
:101CE00001F0004141F0FE4141F470014FF000006D
:101CF00070BD41F0FE4141F4780170BD70B54FF008
:101D0000FF0C4CF4E06C1CEA11541DBF1CEA135587
:101D100094EA0C0F95EA0C0F00F0A7F8A4EB050469
:101D200081EA030E52EA03354FEA013100F0888060
:101D30004FEA03334FF0805545EA131343EA126329
:101D40004FEA022245EA111545EA10654FEA0026DE
:101D50000EF000419D4208BF964244F1FD0404F597
:101D6000407402D25B084FEA3202B61A65EB0305F3
:101D70005B084FEA32024FF480104FF4002CB6EBB0
:101D8000020E75EB030E22BFB61A754640EA0C0030
:101D90005B084FEA3202B6EB020E75EB030E22BF70
:101DA000B61A754640EA5C005B084FEA3202B6EBB1
:101DB000020E75EB030E22BFB61A754640EA9C0070
:101DC0005B084FEA3202B6EB020E75EB030E22BF40
:101DD000B61A754640EADC0055EA060E18D04FEAFE
:101DE000051545EA16754FEA06164FEAC30343EA9E
:101DF00052734FEAC2025FEA1C1CC0D111F4801F6B
:101E00000BD141EA00014FF000004FF0004CB6E763
:101E100011F4801F04BF01430020B4F1FD0C88BF02
:101E2000BCF5E06F3FF6AFAEB5EB030C04BFB6EB0D
:101E3000020C5FEA500C50F1000041EB045170BD00
:101E40000EF0004E4EEA113114EB5C04C2BFD4EB2D
:101E50000C0541EA045170BD41F480114FF0000EB1
:101E6000013C90E645EA060E8DE60CEA135594EA2D
:101E70000C0F08BF95EA0C0F3FF43BAF94EA0C0F30
:101E80000AD150EA01347FF434AF95EA0C0F7FF4A5
:101E900025AF104619462CE795EA0C0F06D152EAF9
:101EA00003353FF4FDAE1046194622E750EA4106DD
:101EB00018BF52EA43067FF4C5AE50EA41047FF4EE
:101EC0000DAF52EA43057FF4EBAE12E74FF0FF3C53
:101ED00006E000BF4FF0010C02E000BF4FF0010C24
:101EE0004DF804CD4FEA410C7FEA6C5C4FEA430C9D
:101EF00018BF7FEA6C5C1BD001B050EA410C0CBFEC
:101F000052EA430C91EA030F02BF90EA020F00204D
:101F1000704710F1000F91EA030F58BF994208BFB4
:101F200090422CBFD8176FEAE37040F00100704771
:101F30004FEA410C7FEA6C5C02D150EA013C07D1C8
:101F40004FEA430C7FEA6C5CD6D152EA033CD3D013
:101F50005DF8040B704700BF8446104662468C460D
:101F60001946634600E000BF01B5FFF7B7FF002840
:101F700048BF10F1000F01BD4DF808EDFFF7F4FF69
:101F80000CBF012000205DF808FB00BF4DF808EDF4
:101F9000FFF7EAFF34BF012000205DF808FB00BF17
:101FA0004DF808EDFFF7E0FF94BF012000205DF839
:101FB00008FB00BF4DF808EDFFF7CEFF94BF0120EE
:101FC00000205DF808FB00BF4DF808EDFFF7C4FFE7
:101FD00034BF012000205DF808FB00BF4FEA41023A
:101FE00012F5001215D211D56FF47873B3EB62526B
:101FF00012D94FEAC12343F0004343EA505311F092
:10200000004F23FA02F018BF404270474FF0000023
:10201000704750EA013005D111F0004008BF6FF061
:10202000004070474FF00000704700BF4A0011D2D7
:1020300012F5001211D20DD56FF47873B3EB625222
:102040000ED44FEAC12343F0004343EA505323FA2E
:1020500002F070474FF00000704750EA013002D1A3
:102060004FF0FF3070474FF00000704753B94AB946
:10207000002908BF00281CBF4FF0FF314FF0FF3090
:1020800000F07AB9ADF1080C6DE904CE00F006F865
:10209000DDF804E0DDE9022304B070472DE9F047E4
:1020A0008C460D460446089E002B51D18A421746A5
:1020B0006DD9B2FA82FEBEF1000F0BD0CEF1200C2A
:1020C00001FA0EF520FA0CFC02FA0EF74CEA050CA8
:1020D00000FA0EF44FEA174A250CBCFBFAF81FFA77
:1020E00087F90AFB18CC45EA0C4508FB09F3AB421B
:1020F0000AD9ED1908F1FF3280F02381AB4240F29A
:102100002081A8F102083D44ED1AA4B2B5FBFAF013
:102110000AFB105544EA054400FB09F9A14509D919
:10212000E41900F1FF3380F00A81A14540F20781F4
:1021300002383C44A4EB090440EA08400021002E88
:1021400061D024FA0EF4002334607360BDE8F08798
:102150008B4207D9002E54D0002186E82100084682
:10216000BDE8F087B3FA83F1002940F08E80AB42DE
:1021700002D3824200F2FA80841A65EB0305012043
:10218000AC46002E3FD086E81010BDE8F08712B9AB
:102190000127B7FBF2F7B7FA87FEBEF1000F34D183
:1021A000EB1B3A0C1FFA87FC0121B3FBF2F8250C5C
:1021B00002FB183345EA03450CFB08F3AB4207D991
:1021C000ED1908F1FF3002D2AB4200F2D180804617
:1021D000ED1AA3B2B5FBF2F002FB105543EA054439
:1021E0000CFB00FCA44507D9E41900F1FF3302D22F
:1021F000A44500F2B8801846A4EB0C0440EA08405D
:102200009DE731463046BDE8F087CEF1200405FA5F
:102210000EF307FA0EF720FA04F83A0C25FA04F444
:1022200048EA0308B4FBF2F14FEA184502FB1144F7
:102230001FFA87FC45EA044501FB0CF3AB4200FAA8
:102240000EF409D9ED1901F1FF3080F08A80AB421C
:1022500040F2878002393D44EB1A1FFA88F5B3FB40
:10226000F2F002FB103345EA034500FB0CF3AB42EE
:1022700007D9ED1900F1FF386FD2AB426DD90238A2
:102280003D44EB1A40EA01418FE7C1F1200722FAF1
:1022900007F88B4005FA01F448EA030320FA07FE29
:1022A0004FEA134CFD404EEA040EB5FBFCF94FEA31
:1022B0001E440CFB19551FFA83F844EA054509FB37
:1022C00008F4AC4202FA01F200FA01FA08D9ED185A
:1022D00009F1FF3043D2AC4241D9A9F102091D44B2
:1022E0002D1B1FFA8EFEB5FBFCF00CFB10554EEAC1
:1022F000054400FB08F8A04507D9E41800F1FF35B4
:1023000029D2A04527D902381C4440EA0940A4EB51
:102310000804A0FB02894C45C6464D4615D312D091
:1023200056B1BAEB0E0364EB050404FA07F7CB4091
:102330001F43CC40376074600021BDE8F087184629
:10234000F8E69046E0E6C245EAD2B8EB020E69EB49
:1023500003050138E4E72846D7E7404691E7814680
:10236000BEE7014678E702383C4445E7084608E7FF
:10237000A8F102083D442BE7704700BF2DE9F04F5C
:102380008FB0002409940A940B940C940D9401943A
:10239000AA4B1A6B42F004021A631A6B02F0040291
:1023A0000192019A02941A6B42F020021A631A6B8E
:1023B00002F020020292029A03941A6B42F0800209
:1023C0001A631A6B02F080020392039A04941A6B48
:1023D00042F001021A631A6B02F001020492049A9D
:1023E00005941A6B42F002021A631A6B02F00202A1
:1023F0000592059A06941A6B42F040021A631A6B12
:1024000002F040020692069A07941A6B42F01002FC
:102410001A631A6B02F010020792079A08941A6B5B
:1024200042F008021A631B6B03F008030893089B31
:1024300022461621824801F0E9FE22468021814889
:1024400001F0E4FEDFF810A222464FF4604150464E
:1024500001F0DCFE224646F203017B4801F0D6FE85
:1024600022464FF68071794801F0D0FE22464FF4A3
:102470004051774801F0CAFE41F63F030993022517
:102480000A950B9403270C974FF00C08CDF8348075
:1024900009A9504601F0C8FD4FF4806309930A95DD
:1024A0000B940C944FF00E09CDF8349009A95046C6
:1024B00001F0BAFD012609960A950B940C97CDF808
:1024C000348009A95E4801F0AFFD162309930A96EE
:1024D0000B940C9409A95A4801F0A6FD48F2070391
:1024E0000993DFF878B1CDF828B00B9409A95548C5
:1024F00001F09AFD41F6580309930A950B940C9448
:10250000CDF8349009A94F4801F08EFD802309933E
:102510000A960B940C9409A94A4801F085FD2023E2
:102520000993CDF828B00B9409A9454801F07CFD2A
:1025300009970A950B940C9409230D9309A9454812
:1025400001F072FD4FF0040BCDF824B00A940B9407
:1025500009A9404801F068FD4FF4604309930A96C9
:102560000B940C9409A9504601F05EFD46F203035A
:1025700009930A960B940C9409A9334801F054FD71
:102580004FF6807309930A960B940C9409A92F486F
:1025900001F04AFD4FF4706309930A950B940C9473
:1025A000CDF8349009A92B4801F03EFD4FF450437B
:1025B00009930A950B940C94CDF8348009A9254809
:1025C00001F032FD4FF4005309930A940B9409A9CA
:1025D000204801F029FD4CF2037309930A950B94EE
:1025E0000C97CDF8348009A9194801F01DFD4FF46E
:1025F000006309930A940B9409A9154801F014FD8E
:102600004FF4405309930A960B940C9409A910486F
:1026100001F00AFD48F2301309930A950B940C97C8
:10262000CDF8348009A9084801F0FEFC4FF40C6392
:1026300009930A950B940C9412E000BF00380240F5
:102640000008024000000240001802400010024052
:10265000000C02400004024000140240000012106E
:10266000CDF8349009A92D4801F0DEFC4FF49863B1
:1026700009930A950B940C94CDF8349009A9284835
:1026800001F0D2FC4FF4007309934FF0120ACDF819
:1026900028A00B960C94CDF834B009A9204801F07D
:1026A000C3FC4FF480730993CDF828A00B960C94CB
:1026B000CDF834B009A91B4801F0B6FC48230993B2
:1026C0000A950B940C94CDF8349009A9164801F0A2
:1026D000ABFC4FF4A05309930A950B940C94092377
:1026E0000D9309A90D4801F09FFC602309930A95F9
:1026F0000B940C97CDF8348009A90C4801F094FC98
:1027000009970A950B940C97CDF8348009A90848CD
:1027100001F08AFC0FB0BDE8F08F00BF0018024046
:102720000008024000000240000C02400004024089
:102730000010024008B50A480A4B036000234360BA
:102740008360C360022202610122426183610362ED
:10275000436283620A23C36200F010FC08BD00BF1D
:10276000982000200050014008B50848084B03603D
:102770004FF4E133436000238360C36003610C22A4
:1027800042618361C36101F017F908BDF431002093
:102790000010014030B583B0002500950195094C2B
:1027A000094B23606560A5608123E360A561204635
:1027B00000F022FF009501956946204600F035FFA4
:1027C00003B030BD344200200010004030B595B059
:1027D0003022002108A8FDF765FD0024039404942D
:1027E00005940694079401941C4B1A6C42F0805295
:1027F0001A641B6C03F080530193019B0294184AE6
:10280000136823F4404343F480431360136803F4D4
:1028100040430293029B0225089501230B9310234A
:102820000C930E950F9408231093322311930423D5
:1028300012930723139308A801F0EEF80F230393D4
:10284000049505944FF4C05306934FF4A053079397
:10285000214603A801F016FB15B030BD0038024038
:1028600000700040074A1178074B19705178597071
:1028700092789A705A78D2B21B78DBB203498B54A3
:10288000704700BFF0200020280000203400002006
:1028900008B50221034801F0BFFC0122024B1A7067
:1028A00008BD00BF001802409400002082B0114A09
:1028B000136803F51943C83313601368C3F38B23FC
:1028C0000D4AD35C07EE903A0C4B93ED006ADFEDB6
:1028D0000C6A86EE267AF8EEE77A67EE877AFCEEE7
:1028E000E77ACDED017A9DF80430064A137002B004
:1028F000704700BF90000020981000202C0000209E
:102900000000FC428C000020084B1A6802F27E3264
:102910001A601B68C3F38B23054AD35C07EE903A19
:10292000F8EE677A034BC3ED007A70473000002061
:10293000980000202C00002008B5474B1B7813F0AE
:10294000010F51D001228021444801F05FFC424B2D
:102950001B7813F0020F4DD001224FF480713F48D5
:1029600001F054FC3C4B1B7813F0040F49D00122BA
:102970004FF40071394801F049FC374B1B7813F0D4
:10298000080F45D001224FF48061344801F03EFC2D
:10299000314B1B7813F0100F41D001224FF400612E
:1029A0002E4801F033FC2C4B1B7813F0200F3DD048
:1029B00001224FF48051294801F028FC264B1B7856
:1029C00013F0400F39D001224FF40051234801F099
:1029D0001DFC214B1B78DB0936D100224FF48041CE
:1029E0001E4801F013FC08BD002280211B4801F0A5
:1029F0000DFCACE700224FF48071184801F006FC92
:102A0000B0E700224FF40071144801F0FFFBB4E777
:102A100000224FF48061114801F0F8FBB8E7002272
:102A20004FF400610D4801F0F1FBBCE700224FF4C8
:102A300080510A4801F0EAFBC0E700224FF4005140
:102A4000064801F0E3FBC4E701224FF4804103484C
:102A500001F0DCFB08BD00BF8C000020001002402C
:102A600008B501F083FCFFF7B1FEFFF787FCFFF725
:102A700061FEFFF779FEFFF78DFE00F0E7F80B48E7
:102A800000F081FC01E0FFF757FF0949094800F019
:102A9000FDF8094B1B78002BF5D0FFF735FFFFF74A
:102AA00005FF0022044B1A70EDE700BF34420020FE
:102AB000F02000209820002094000020000000005A
:102AC00038B50546002419E02046FEF787FF0FA31E
:102AD000D3E90023FEF7E8FF41EC100BFDF730FCD3
:102AE0000022094B51EC100BFEF7DEFF0022064BD3
:102AF000FEF728FEFFF79AFA28550134B4F5805FF7
:102B0000E2DB38BDAFF3008000804F40182D445405
:102B1000FB21593F0023B3F5805F14DA10B405E0C0
:102B2000121322700133B3F5805F09DAC418C3EBC6
:102B3000831251000A460029F2DA01F6FF72EFE72C
:102B40005DF8044B704770470023B3F5805F16DAD9
:102B500010B405E0121302550133B3F5805F0BDAB0
:102B6000C3F57F640F34C3EB831251000A4600297A
:102B7000F0DA01F6FF72EDE75DF8044B704770473D
:102B800010B4002302E0121322700133B3F5006F7A
:102B900009DAC418C3EB831291000A460029F2DA5D
:102BA00001F6FF72EFE74FF4006202E01B1323709F
:102BB0000132B2F5805F0BDA8418C2F58053C3EBA3
:102BC000831399000B460029F0DA01F6FF73EDE755
:102BD0005DF8044B7047002302E00022C254013329
:102BE000B3F5805F05DAB3F5006FF6DA7E22C254E2
:102BF000F5E770470000000038B50546002419E0ED
:102C00002046FEF7EBFE0FA3D3E90023FEF74CFFAF
:102C100041EC100BFDF794FB0022094B51EC100B1B
:102C2000FEF742FF0022064BFEF78CFDFFF7FEF990
:102C300028550134FF2CE3DD38BD00BFAFF3008021
:102C400000805F40182D4454FB21993F08B5094886
:102C5000FFF736FF0848FFF75DFF0848FFF774FFEE
:102C60000748FFF78DFF0748FFF7B5FF0648FFF756
:102C7000C3FF08BD34320020F4200020744200203D
:102C80009800002098100020F430002030B583B068
:102C900004460D4600F074FB012801D003B030BD9E
:102CA000064B1B68ADF804301B0C8DF80630012371
:102CB0002A4601A9204600F0A1F9EFE78044000868
:102CC0007047FEE7FEE7FEE7FEE770477047704794
:102CD00008B501F065FB08BD08B5024800F068FBC7
:102CE00008BD00BF3442002008B5024800F0B4FA25
:102CF00008BD00BF9820002000B583B000210091DE
:102D00000C4B5A6C42F480425A645A6C02F4804272
:102D10000092009A01911A6C42F080521A641B6C66
:102D200003F080530193019B072001F091FA03B057
:102D30005DF804FB00380240F0B589B0002303932E
:102D4000049305930693079302681E4B9A4201D0A1
:102D500009B0F0BD0024019403F568435A6C42F4B5
:102D600080125A645A6C02F480120192019A029401
:102D70001A6B42F020021A631B6B03F020030293CC
:102D8000029B4023039302270497032306930526FF
:102D900007960D4D03A9284601F046F94FF46073DC
:102DA0000393049705940694079603A9284601F017
:102DB0003BF922462146552001F05CFA552001F0EE
:102DC0008BFAC5E7005001400014024002680E4B28
:102DD0009A4200D0704700B583B00021019103F5FD
:102DE0000A331A6C42F010021A641B6C03F01003D1
:102DF0000193019B0A46362001F03CFA362001F08F
:102E00006BFA03B05DF804FB0010004000B589B018
:102E1000002303930493059306930793026803F139
:102E2000804303F588339A4202D009B05DF804FB71
:102E30000021019103F594335A6C42F010025A6458
:102E40005A6C02F010020192019A02911A6B42F040
:102E500001021A631B6B03F001030293029B4FF400
:102E6000C063039302230493012305930323069372
:102E70000723079303A9024801F0D6F8D5E700BF5E
:102E800000000240F8B505460F4616461C462B6862
:102E90009B6837EA03030CBF01230023B34237D0FA
:102EA000B4F1FF3FF3D001F087FA069BC01A8442C9
:102EB00001D9002CEBD12A68536823F0E00353605A
:102EC0006B68B3F5827F0BD0AB6AB3F5005F14D0AB
:102ED000012385F85130002385F850300320F8BDD8
:102EE000AB68B3F5004F02D0B3F5806FECD12A6820
:102EF000136823F040031360E6E72A68136823F49D
:102F0000005313602A68136843F400531360DFE72B
:102F10000020F8BD30B585B0164C2468164DA5FBD1
:102F20000434640D4FF47A7505FB04F4039444688B
:102F3000B4F5827F0BD0039BC3B1039B013B03938A
:102F400003689B6813F0800FF5D100230FE00B4658
:102F50000446009200228021FFF794FF034630B11F
:102F6000636D43F020036365032300E000231846EC
:102F700005B030BD08000020819F5E1600283BD0C0
:102F800010B504460023836290F85130002B2ED0F8
:102F9000022384F851302268136823F04003136041
:102FA00022686368A1680B43E1680B4321690B4306
:102FB00061690B43A16901F400710B43E1690B43A3
:102FC000216A0B43A16A0B4313602268638B03F0F1
:102FD0000403616A0B4353602268D36923F40063DE
:102FE000D36100206065012384F8513010BD80F862
:102FF0005030FFF7A1FECBE70120704730B490F8C6
:103000005040012C54D0012480F8504090F8514099
:10301000E4B24568012C10D0B5F5827F06D00223BA
:10302000002280F85020184630BC70478568002D7B
:1030300034D1042C01D00223F2E7002930D0002A39
:1030400030D0002B30D090F85140E4B2042C02D0A4
:10305000052480F851400024446501638386C386BB
:1030600082638387C387C3689BB1124B0364124B8F
:1030700043640268536843F0E003536003681A68CE
:1030800012F0400F12D11A6842F040021A60002379
:10309000C6E70A4B03640A4B4364EAE70223BFE72F
:1030A0000123BDE70123BBE70123B9E70023B7E70D
:1030B0000223B8E721320008E9310008B1310008E5
:1030C000793100087047704710B582B00446284B2C
:1030D0001B68284AA2FB03235B0A642202FB03F35A
:1030E000019301F069F9024621684B6823F020033F
:1030F0004B60019B43B1019B013B019323689B689B
:1031000013F0020FF5D003E0636D43F02003636515
:1031100064212046FFF7FEFE18B1636D43F02003E3
:103120006365A36833B900932368DA6800929B68EB
:103130000093009B636D9BB994F85130DBB2042B74
:1031400007D0012384F851302046FFF78BFB02B0F3
:1031500010BD012384F851302046FFF7B3FFF6E796
:10316000012384F851302046FFF7ADFFEFE700BFA1
:1031700008000020F119760508B50368026B127883
:103180001A73036B01330363C38E9BB2013B9BB283
:10319000C386C38E9BB23BB90268536823F0800399
:1031A0005360C38F9BB203B108BDFFF78DFFFBE7F0
:1031B00008B5836B0268127B1A70836B01338363DB
:1031C000C38F9BB2013B9BB2C387C38F9BB23BB9FA
:1031D0000268536823F060035360C38E9BB203B14F
:1031E00008BDFFF771FFFBE708B50368026B1288A3
:1031F000DA60036B02330363C38E9BB2013B9BB265
:10320000C386C38E9BB23BB90268536823F0800328
:103210005360C38F9BB203B108BDFFF755FFFBE7B7
:1032200008B5836B0268D2681A80836B02338363AC
:10323000C38F9BB2013B9BB2C387C38F9BB23BB989
:103240000268536823F040035360C38E9BB203B1FE
:1032500008BDFFF739FFFBE710B584B004460268EC
:103260005168936803F04100012867D013F0020F02
:1032700002D011F0800F68D113F4B07F68D011F044
:10328000200F65D013F0400F0FD094F85100C0B25A
:1032900003285FD0606D40F004006065002000905E
:1032A000D068009090680090009813F0200F0CD028
:1032B000606D40F00100606500200290906802900F
:1032C000106820F040001060029A13F4807F09D04B
:1032D000636D43F0080363650023039323689B68D1
:1032E0000393039B636D002B32D02268536823F055
:1032F000E0035360012384F8513011F0030F31D003
:103300002268536823F003035360E36C4BB1174A00
:103310001A65E06C00F089FF18B1636D43F040035B
:103320006365A36CA3B1114A1A65A06C00F07DFF20
:1033300070B1636D43F04003636509E011F0400F25
:1033400094D0236C2046984702E0636C204698474F
:1033500004B010BD00230193D368019393680193D7
:10336000019BF5E72046FFF7AEFEF1E77133000859
:1033700008B5806B0023C387C386FFF7A4FE08BD92
:1033800090F8510070470268D36843F00103D3609E
:103390000268936803F00703062B03D0136843F019
:1033A00001031360002070477047704770477047F3
:1033B00010B5044603681A6912F0020F11D0DA68DA
:1033C00012F0020F0DD06FF002021A610123037791
:1033D00003689B6913F0030F70D0FFF7E6FF00232B
:1033E000237723681A6912F0040F12D0DA6812F0FA
:1033F000040F0ED06FF004021A61022323772368B2
:103400009B6913F4407F5FD02046FFF7CEFF002377
:10341000237723681A6912F0080F12D0DA6812F0C5
:10342000080F0ED06FF008021A6104232377236877
:10343000DB6913F0030F4ED02046FFF7B6FF0023E1
:10344000237723681A6912F0100F12D0DA6812F08D
:10345000100F0ED06FF010021A6108232377236833
:10346000DB6913F4407F3DD02046FFF79EFF002329
:10347000237723681A6912F0010F03D0DA6812F07B
:10348000010F36D123681A6912F0800F03D0DA6871
:1034900012F0800F34D123681A6912F0400F03D064
:1034A000DA6812F0400F32D123681A6912F0200F47
:1034B00003D0DA6812F0200F30D110BDFFF774FF8F
:1034C0002046FFF773FF8AE72046FFF76DFF20468F
:1034D000FFF76CFF9BE72046FFF766FF2046FFF7EC
:1034E00065FFACE72046FFF75FFF2046FFF75EFF72
:1034F000BDE76FF001021A612046FFF7C9F9C1E785
:103500006FF080021A61204600F0B3F8C3E76FF055
:1035100040021A612046FFF74AFFC5E76FF020021C
:103520001A61204600F0A4F8C7E700000368314A9A
:10353000904212D0B0F1804F0FD0A2F57C42904261
:103540000BD002F58062904207D002F58062904273
:1035500003D002F57842904203D123F070034A6809
:103560001343244A90422AD0B0F1804F27D0A2F5CD
:103570007C42904223D002F5806290421FD002F537
:10358000806290421BD002F57842904217D002F53B
:103590007052904213D002F5806290420FD002F533
:1035A000806290420BD0A2F59832904207D002F58B
:1035B0008062904203D002F58062904203D123F4EE
:1035C0004073CA68134323F080034A6913430360BE
:1035D0008B68C3620B688362064B984206D003F582
:1035E0008063984202D00123436170470B690363F3
:1035F000F9E700BF00000140A8B110B5044690F8FB
:103600003D305BB1022384F83D30211D2068FFF777
:103610008DFF012384F83D30002010BD80F83C3040
:10362000FFF7D4FBEEE70120704790F83C30012B08
:103630001CD070B4012580F83C50022380F83D3046
:1036400004686268A36822F070020E68324323F0B7
:10365000800349680B4362600268936080F83D50C4
:10366000002380F83C30184670BC70470220704739
:10367000704770472DE9F04704460268136923F448
:103680004053C1680B431361836802691343426965
:103690001343C26913430168CA6822F4164222F038
:1036A0000C021343CB600268536923F440738169B1
:1036B0000B435361C369B3F5004F62D0D0F800806B
:1036C000BB4B984500F01B8103F58063984500F0E3
:1036D000168100F089FC00EB800000EB800065683B
:1036E000AD00B0FBF5F5B34FA7FB05356D092E0115
:1036F00000F07AFC00EB800000EB80006568AD0014
:10370000B0FBF5FA00F070FC00EB800000EB8000ED
:103710006568AD00B0FBF5F5A7FB05356D094FF009
:10372000640909FB15A52D013235A7FB05356D0987
:1037300005F0F005354400F057FC00EB800000EB8D
:1037400080006668B600B0FBF6F600F04DFC00EBBA
:10375000800000EB800063689B00B0FBF3F0A7FBE8
:103760000030400909FB10694FEA091909F13209D3
:10377000A7FB0937C7F343172F44C8F80870BDE803
:10378000F087D0F8008003F1804303F5104398459B
:103790005CD003F58063984558D000F025FC00EB21
:1037A000800000EB800065686D00B0FBF5F5814F8F
:1037B000A7FB05356D092E0100F016FC00EB80001B
:1037C00000EB800065686D00B0FBF5FA00F00CFCC2
:1037D00000EB800000EB800065686D00B0FBF5F544
:1037E000A7FB05356D094FF0640909FB15A5ED0030
:1037F0003235A7FB05356D096D0005F4F8753544C4
:1038000000F0F2FB00EB800000EB800066687600C1
:10381000B0FBF6F600F0E8FB00EB800000EB800068
:1038200063685B00B0FBF3F3A7FB03235B0909FBB1
:1038300013694FEAC90909F13209A7FB0937C7F330
:1038400042172F44C8F80870BDE8F08700F0DCFB91
:1038500000EB800000EB800065686D00B0FBF5F5C3
:10386000544FA7FB05356D092E0100F0CDFB00EB91
:10387000800000EB800065686D00B0FBF5FA00F099
:10388000C3FB00EB800000EB800065686D00B0FBBF
:10389000F5F5A7FB05356D094FF0640909FB15A582
:1038A000ED003235A7FB05356D096D0005F4F8759F
:1038B000354400F0A9FB00EB800000EB8000666857
:1038C0007600B0FBF6F600F09FFB00EB800000EB0B
:1038D000800063685B00B0FBF3F3A7FB03235B0985
:1038E00009FB13694FEAC90909F13209A7FB093736
:1038F000C7F342172F44C8F80870BDE8F08700F0FE
:1039000083FB00EB800000EB80006568AD00B0FB3E
:10391000F5F5284FA7FB05356D092E0100F074FB66
:1039200000EB800000EB80006568AD00B0FBF5FAAD
:1039300000F06AFB00EB800000EB80006568AD00E2
:10394000B0FBF5F5A7FB05356D094FF0640909FBE0
:1039500015A52D013235A7FB05356D0905F0F005DC
:10396000354400F051FB00EB800000EB80006668FE
:10397000B600B0FBF6F600F047FB00EB800000EB72
:10398000800063689B00B0FBF3F3A7FB03235B0994
:1039900009FB13694FEA091909F13209A7FB093735
:1039A000C7F343172F44C8F80870BDE8F08700BF7D
:1039B000001001401F85EB5158B310B5044690F834
:1039C00039300BB3242384F839302268D36823F4C8
:1039D0000053D3602046FFF74DFE2268136923F49D
:1039E000904313612268536923F02A0353612268CC
:1039F000D36843F40053D3600020E063202384F8AD
:103A0000393084F83A3010BD80F83830FFF7FEF9CD
:103A1000D8E7012070470000002800F0BB8170B596
:103A200082B00446036813F0010F3BD0A74B9B689C
:103A300003F00C03042B2CD0A44B9B6803F00C0365
:103A4000082B21D06368B3F5803F4FD0B3F5A02F8A
:103A500052D09E4B1A6822F480321A601A6822F4FF
:103A600080221A606368002B50D000F0A5FC054648
:103A7000964B1B6813F4003F14D100F09DFC401BD3
:103A80006428F5D903208AE1904B5B6813F4800F1A
:103A9000D8D08E4B1B6813F4003F03D06368002B13
:103AA00000F07A81236813F0020F55D0874B9B6892
:103AB00013F00C0F3ED0854B9B6803F00C03082BD2
:103AC00033D0E368002B68D00122814B1A6000F0EC
:103AD00073FC05467D4B1B6813F0020F54D100F0B8
:103AE0006BFC401B0228F5D9032058E1774A136884
:103AF00043F480331360B5E7744B1A6842F48022B4
:103B00001A601A6842F480321A60ABE700F054FC85
:103B100005466E4B1B6813F4003FC3D000F04CFC0D
:103B2000401B6428F5D9032039E1684B5B6813F426
:103B3000800FC6D1654B1B6813F0020F04D0E368F9
:103B4000012B01D001202AE1604A136823F0F80319
:103B5000216943EAC1031360236813F0080F40D0C2
:103B6000636963B301225B4B1A6000F025FC0546D4
:103B7000564B5B6F13F0020F33D100F01DFC401B5E
:103B80000228F5D903200AE1504A136823F0F8030C
:103B9000216943EAC1031360DEE700224C4B1A603F
:103BA00000F00AFC0546494B1B6813F0020FD3D006
:103BB00000F002FC401B0228F5D90320EFE00022B0
:103BC000444B1A6000F0F8FB0546404B5B6F13F066
:103BD000020F06D000F0F0FB401B0228F5D90320AD
:103BE000DDE0236813F0040F79D0384B1B6C13F021
:103BF000805F33D100230193344B1A6C42F0805222
:103C00001A641B6C03F080530193019B0125324B16
:103C10001B6813F4807F23D0A368012B34D0052BBD
:103C200038D02A4B1A6F22F001021A671A6F22F05D
:103C300004021A67A368002B36D000F0BDFB0646CD
:103C4000224B1B6F13F0020F48D100F0B5FB801B15
:103C500041F288339842F3D90320A0E00025D6E74B
:103C60001D4A136843F48073136000F0A5FB0646F9
:103C7000194B1B6813F4807FCED100F09DFB801B95
:103C80000228F5D903208AE0104A136F43F001039C
:103C90001367CFE70D4B1A6F42F004021A671A6FD1
:103CA00042F001021A67C5E700F086FB0646074BA3
:103CB0001B6F13F0020F11D000F07EFB801B41F24E
:103CC00088339842F3D9032069E000BF00380240EE
:103CD00000004742800E474200700040E5B9A369EA
:103CE000002B5BD0304A926802F00C02082A58D0B0
:103CF000022B17D000222D4B1A6000F05DFB04460A
:103D0000294B1B6813F0007F42D000F055FB001BCD
:103D10000228F5D9032042E0234A136C23F0805394
:103D20001364DCE70022214B1A6000F045FB0546D6
:103D30001D4B1B6813F0007F06D000F03DFB401BBD
:103D40000228F5D903202AE0E369226A1343626A54
:103D500043EA8213A26A5208013A43EA0243E26A42
:103D600043EA0263104A53600122104B1A6000F0CC
:103D700023FB04460C4B1B6813F0007F06D100F0B8
:103D80001BFB001B0228F5D9032008E0002006E0F9
:103D9000002004E001207047012000E0002002B074
:103DA00070BD0120FBE700BF0038024060004742C1
:103DB000F8B5314B9B6803F00C03042B59D0082B4A
:103DC00001D02E48F8BD2C4B5A6802F03F025B68C8
:103DD00013F4800F2AD0284B5B68C3F388131E4668
:103DE00000275C010025E41A65EB0705A90141EAFB
:103DF0009461A001001B61EB0501CB0043EA507305
:103E0000C400A01943EB07014B0243EAD05344021C
:103E1000204619460023FEF729F9174B5B68C3F3C8
:103E2000014301335B00B0FBF3F0F8BD124B5B685C
:103E3000C3F388131E4600275C010025E41A65EBD6
:103E40000705A90141EA9461A001001B61EB05018E
:103E5000CB0043EA5073C400A01943EB07018B0267
:103E600043EA90538402204619460023FEF7FEF8E9
:103E7000D3E70348F8BD00BF003802400024F40037
:103E800000127A00002800F09D8070B504464F4B68
:103E90001B6803F00F038B4209D2CBB24B4A13705D
:103EA000136803F00F03994201D0012070BD23680D
:103EB00013F0020F17D013F0040F04D0444A936894
:103EC00043F4E0539360236813F0080F04D0404A92
:103ED000936843F4604393603D4A936823F0F00392
:103EE000A068034393600D46236813F0010F32D09E
:103EF0006368012B21D09A1E012A25D9344A126801
:103F000012F0020F60D032498A6822F00302134394
:103F10008B6000F051FA06462D4B9B6803F00C03B2
:103F20006268B3EB820F16D000F046FA801B41F2B4
:103F300088339842F0D9032070BD254A126812F4E4
:103F4000003FE0D1012070BD214A126812F0007FCD
:103F5000D9D1012070BD1D4B1B6803F00F039D429A
:103F600009D2EAB2194B1A701B6803F00F039D4285
:103F700001D0012070BD236813F0040F06D0144A4D
:103F8000936823F4E053E1680B439360236813F0D4
:103F9000080F07D00E4A936823F46043216943EA6F
:103FA000C1039360FFF704FF094B9B68C3F303133E
:103FB000084AD35CD840084B1860002000F0B0F9E4
:103FC000002070BD01207047012070BD003C024000
:103FD000003802406046000808000020014B1868C5
:103FE000704700BF0800002008B5FFF7F7FF044B3B
:103FF0009B68C3F38223034AD35CD84008BD00BF4B
:10400000003802407046000808B5FFF7E7FF044B90
:104010009B68C3F34233034AD35CD84008BD00BF5A
:104020000038024070460008F0B583B000244BE031
:104030004FEAD40E0EF1080E50F82E2004F00706B9
:10404000B6000F27B74022EA07020F6907FA06F603
:10405000324340F82E2046E0092600E0002606FA0A
:104060000EF632430233644E46F82320634B1A683F
:10407000EB4302EA03064F6817F4803F01D045EA9C
:1040800002065E4A1660526803EA02064F6817F499
:10409000003F01D045EA0206584A5660926803EA9A
:1040A00002064F6817F4801F01D045EA0206534A02
:1040B0009660D26813404E6816F4001F01D045EA9E
:1040C00002034E4AD36001340F2C00F29280012388
:1040D000A3400A6803EA0205AB42F4D14A68022A07
:1040E000A6D0122AA4D006684FEA440E032202FA90
:1040F0000EF2D24316404F6807F0030707FA0EF797
:104100003E4306604E68771E012F03D9112E01D061
:10411000122E0FD186681640CF6807FA0EF73E437D
:104120008660466826EA03034E68C6F30016A6407A
:1041300033434360C3681A408B6803FA0EF31A4393
:10414000C2604B6813F0805FBDD0002301932C4BFD
:104150005A6C42F480425A645B6C03F480430193CE
:10416000019BA3089E1C244A52F8262004F0030653
:104170004FEA860E0F2606FA0EF622EA0602214FB5
:10418000B8423FF46BAF204EB04222D006F58066B5
:10419000B04220D006F58066B0421ED006F580669B
:1041A000B0421CD006F58066B0421AD006F5806693
:1041B000B04218D006F58066B04216D006F580668B
:1041C000B04214D006F58066B0423FF445AF0A26EF
:1041D00045E7012643E7022641E703263FE7042699
:1041E0003DE705263BE7062639E7072637E7082699
:1041F00035E703B0F0BD00BF00380140003C01408E
:1042000000380240000002400004024012B90904D4
:104210008161704781617047436931EA030301D0CE
:104220008161704709048161704790F83530DBB2D5
:10423000022B03D08023436501207047052380F8BB
:1042400035300268136823F00103136000207047C3
:10425000074AD36823F4E0631B041B0C000200F43C
:10426000E060184340F0BF6040F40030D060704719
:1042700000ED00E030B4164BDB68C3F30223C3F15A
:104280000704042C28BF04241D1D062D17D9033B49
:10429000012505FA04F4013C2140994005FA03F395
:1042A000013B1340194300280BDB0901C9B200F19F
:1042B000604000F5614080F8001330BC7047002377
:1042C000E6E700F00F000901C9B2024B1954F4E708
:1042D00000ED00E014ED00E0002808DB420900F0EA
:1042E0001F00012303FA00F0014B43F8220070473E
:1042F00000E100E00138B0F1807F0AD2064B58603F
:10430000F021064A82F823100020986007221A60E4
:1043100070470120704700BF10E000E000ED00E0B2
:1043200010B504460E4B18784FF47A73B3FBF0F3D4
:104330000C4A1068B0FBF3F0FFF7DCFF68B90F2CF4
:1043400001D9012010BD002221464FF0FF30FFF7B8
:1043500091FF054B1C60002010BD012010BD00BF67
:1043600000000020080000200400002008B50B4BCE
:104370001A6842F400721A601A6842F480621A6085
:104380001A6842F480721A600320FFF761FF002070
:10439000FFF7C6FFFEF7B0FC002008BD003C02405E
:1043A000034A1168034B1B780B441360704700BF2E
:1043B0007452002000000020014B1868704700BFB5
:1043C000745200200F49D1F8883043F47003C1F8CB
:1043D00088300D4B1A6842F001021A600020986084
:1043E0001A6822F0847222F480321A60074A5A60F6
:1043F0001A6822F480221A60D8604FF000638B6044
:10440000704700BF00ED00E000380240103000248B
:10441000DFF834D0002103E00C4B5B5843500431EB
:104420000B480C4B42189A42F6D30B4A02E0002389
:1044300042F8043B094B9A42F9D3FFF7C3FFFBF75D
:1044400009FFFEF70DFB70470000032088460008B7
:10445000000000200C0000200C00002078520020FA
:10446000FEE70000F8B500BFF8BC08BC9E467047E8
:0C447000F8B500BFF8BC08BC9E467047C1
:10448000ABABAB00FB21F93FFB2109407CD91240CB
:10449000FB2119407A6A1F407CD92240BBFD254090
:1044A000FB2129403A462C407A6A2F405C47314034
:1044B0007CD932409C6B3440BBFD3540DB8F3740AC
:1044C000FB2139401BB43A403A463C405AD83D4063
:1044D0007A6A3F404C7E40405C4741406C1042400D
:1044E0007CD942408CA243409C6B4440AC34454054
:1044F000BBFD4540CBC64640DB8F4740EB584840AC
:10450000FB21494083F9A200444E6E00FC291500AE
:10451000D1572700DD34F50062DBC0003C999500DF
:10452000419043006351FE00BBDEAB00B761C500A4
:104530003A6E2400D24D42004906E00009EA2E00FE
:104540001C92D100EB1DFE0029B11C00E83EA70023
:10455000F535820044BB2E009CE98400B42670002F
:10456000417E5F00D6913900538339009CF43900B5
:104570008B5F840028F9BD00F81F3B00DEFF970029
:104580000F980500112FEF000A5A8B006D1F6D0068
:10459000CF7E360009CB2700464FB7009E663F000E
:1045A0002DEA5F00BA277500E5EBC7003D7BF100FF
:1045B000F739070092528A00FB6BEA001FB15F00D7
:1045C000085D8D00300356007BFC4600F0AB6B00AD
:1045D00020BCCF0036F49A00E3A91D005E61910073
:1045E000081BE60085996500A0145F008D406800F7
:1045F00080D8FF0027734D0006063100CA5615000B
:10460000C9A873007BE260006B8CC0000000000052
:10461000020000000300000004000000060000008B
:1046200000000040FB21F93F000000002D44743ED3
:10463000000000809846F83C0000006051CC783BB8
:1046400000000080831BF0390000004020257A38EC
:10465000000000802282E336000000001DF369356F
:104660000000000000000000010203040607080922
:08467000000000000102030438
:0846780024DAFF7F01000000BD
:044680001D0200080F
:04468400F501000834
:0C46880001000000100000000024F400FD
:04000005080044119A
:00000001FF
