:020000040800F2
:10000000000003204D240008AD0C0008AF0C0008D0
:10001000B10C0008B30C0008B50C0008000000008B
:10002000000000000000000000000000B70C000805
:10003000B90C000800000000BB0C0008BD0C000853
:100040009D2400089D2400089D2400089D2400088C
:100050009D2400089D2400089D2400089D2400087C
:100060009D2400089D2400089D2400089D2400086C
:100070009D2400089D2400089D2400089D2400085C
:100080009D2400089D2400089D2400089D2400084C
:100090009D2400089D2400089D2400089D2400083C
:1000A0009D2400089D2400089D2400089D2400082C
:1000B0009D2400089D2400089D2400089D2400081C
:1000C0009D2400089D2400089D2400089D2400080C
:1000D0009D2400089D2400089D2400089D240008FC
:1000E000C50C00089D2400089D2400089D240008DC
:1000F0009D2400089D2400089D2400089D240008DC
:100100009D2400089D2400089D2400089D240008CB
:100110009D2400089D2400089D2400089D240008BB
:100120009D2400089D2400089D2400089D240008AB
:100130009D2400089D2400089D2400089D2400089B
:100140009D2400089D2400089D2400089D2400088B
:100150009D2400089D2400089D2400089D2400087B
:100160009D2400089D2400089D2400089D2400086B
:100170009D2400089D2400089D2400080000000024
:100180009D2400089D2400089D2400089D2400084B
:100190009D2400089D2400089D2400089D2400083B
:0C01A0009D2400089D2400089D240008F8
:1001AC00044B05481B1A062B02D9044B03B1184704
:1001BC00704700BF1300002010000020000000005A
:1001CC0005490648091A891001EBD171491002D072
:1001DC00034B03B11847704710000020100000209B
:1001EC000000000010B5064C237843B9FFF7D8FF88
:1001FC00044B13B10448AFF300800123237010BDEE
:10020C001000002000000000A024000808B5084BD6
:10021C001BB108490848AFF300800848036813B9BC
:10022C00BDE80840CCE7064B002BF9D09847F7E720
:10023C000000000014000020A02400081000002082
:10024C000000000070B50F4E0F4D761BB61018BF96
:10025C00002405D0013455F8043B9847A642F9D147
:10026C000A4E0B4D761B02F015F9B61018BF002480
:10027C0006D0013455F8043B9847A642F9D170BD1D
:10028C0070BD00BFEC240008EC240008F02400082A
:10029C00EC24000870B4860746D0541E002A41D0C6
:1002AC00CAB2034602E014F1FF343BD303F8012B2E
:1002BC009D07F8D1032C2ED9CDB245EA05250F2C7C
:1002CC0045EA054519D903F110022646103E0F2EBA
:1002DC0042F8105C42F80C5C42F8085C42F8045C92
:1002EC0002F11002F2D8A4F1100222F00F0204F075
:1002FC000F041032032C13440DD91E462246043A27
:10030C00032A46F8045BFAD8221F22F003020432B7
:10031C00134404F003042CB1C9B21C4403F8011BB0
:10032C009C42FBD170BC704714460346C2E700BF29
:10033C0053B94AB9002908BF00281CBF4FF0FF3140
:10034C004FF0FF3000F07AB9ADF1080C6DE904CE36
:10035C0000F006F8DDF804E0DDE9022304B0704794
:10036C002DE9F0478C460D460446089E002B51D1D2
:10037C008A4217466DD9B2FA82FEBEF1000F0BD03D
:10038C00CEF1200C01FA0EF520FA0CFC02FA0EF755
:10039C004CEA050C00FA0EF44FEA174A250CBCFB8C
:1003AC00FAF81FFA87F90AFB18CC45EA0C4508FB4A
:1003BC0009F3AB420AD9ED1908F1FF3280F0238121
:1003CC00AB4240F22081A8F102083D44ED1AA4B2E0
:1003DC00B5FBFAF00AFB105544EA054400FB09F999
:1003EC00A14509D9E41900F1FF3380F00A81A14538
:1003FC0040F2078102383C44A4EB090440EA08406F
:10040C000021002E61D024FA0EF4002334607360B6
:10041C00BDE8F0878B4207D9002E54D0002186E826
:10042C0021000846BDE8F087B3FA83F1002940F0BB
:10043C008E80AB4202D3824200F2FA80841A65EBC2
:10044C0003050120AC46002E3FD086E81010BDE815
:10045C00F08712B90127B7FBF2F7B7FA87FEBEF1A6
:10046C00000F34D1EB1B3A0C1FFA87FC0121B3FBB4
:10047C00F2F8250C02FB183345EA03450CFB08F394
:10048C00AB4207D9ED1908F1FF3002D2AB4200F2B2
:10049C00D1808046ED1AA3B2B5FBF2F002FB1055E9
:1004AC0043EA05440CFB00FCA44507D9E41900F110
:1004BC00FF3302D2A44500F2B8801846A4EB0C041A
:1004CC0040EA08409DE731463046BDE8F087CEF162
:1004DC00200405FA0EF307FA0EF720FA04F83A0C8A
:1004EC0025FA04F448EA0308B4FBF2F14FEA184584
:1004FC0002FB11441FFA87FC45EA044501FB0CF38F
:10050C00AB4200FA0EF409D9ED1901F1FF3080F07D
:10051C008A80AB4240F2878002393D44EB1A1FFAC5
:10052C0088F5B3FBF2F002FB103345EA034500FB00
:10053C000CF3AB4207D9ED1900F1FF386FD2AB4287
:10054C006DD902383D44EB1A40EA01418FE7C1F105
:10055C00200722FA07F88B4005FA01F448EA030356
:10056C0020FA07FE4FEA134CFD404EEA040EB5FB91
:10057C00FCF94FEA1E440CFB19551FFA83F844EAA8
:10058C00054509FB08F4AC4202FA01F200FA01FA43
:10059C0008D9ED1809F1FF3043D2AC4241D9A9F189
:1005AC0002091D442D1B1FFA8EFEB5FBFCF00CFB43
:1005BC0010554EEA054400FB08F8A04507D9E4188D
:1005CC0000F1FF3529D2A04527D902381C4440EA56
:1005DC000940A4EB0804A0FB02894C45C6464D46D5
:1005EC0015D312D056B1BAEB0E0364EB050404FA22
:1005FC0007F7CB401F43CC40376074600021BDE847
:10060C00F0871846F8E69046E0E6C245EAD2B8EB29
:10061C00020E69EB03050138E4E72846D7E74046AC
:10062C0091E78146BEE7014678E702383C4445E74E
:10063C00084608E7A8F102083D442BE7704700BFC5
:10064C002DE9F04F8FB0002409940A940B940C946C
:10065C000D940194A84B1A6B42F004021A631A6BA6
:10066C0002F004020192019A02941A6B42F02002E9
:10067C001A631A6B02F020020292029A03941A6B0C
:10068C0042F080021A631A6B02F080020392039A02
:10069C0004941A6B42F001021A631A6B02F0010205
:1006AC000492049A05941A6B42F002021A631A6BB4
:1006BC0002F002020592059A06941A6B42F040026F
:1006CC001A631A6B02F040020692069A07941A6B90
:1006DC0042F010021A631A6B02F010020792079A8A
:1006EC0008941A6B42F008021A631B6B03F00803A0
:1006FC000893089B22461621804801F099FD22465A
:10070C004FF400617E4801F093FD22464FF44051B6
:10071C007C4801F08DFD22464FF4C0417A4801F02F
:10072C0087FD4FF23F03099302250A950B9403268C
:10073C000C964FF00C08CDF8348009A9704801F0E4
:10074C0085FC4FF480630993704B0A9301270B9738
:10075C0009A96B4801F07AFC09970A950B940C9641
:10076C00CDF8348009A9654801F070FC1623099373
:10077C000A970B940C9409A9604801F067FC48F2A5
:10078C0007030993DFF894B1CDF828B00B9409A9AD
:10079C005F4801F05BFC41F6080309930A950B9442
:1007AC000C944FF00E09CDF8349009A9584801F07B
:1007BC004DFCD02309930A950B940C9605230D93AD
:1007CC0009A9534801F042FC20230993CDF828B025
:1007DC000B9409A9494801F039FC09960A950B9428
:1007EC000C9409230D9309A94A4801F02FFC4FF0F2
:1007FC00040BCDF824B00A940B9409A9454801F0D8
:10080C0025FC4FF4006ACDF824A00A970B940C94A5
:10081C0009A93B4801F01AFC48F2331309930A95D5
:10082C000B940C96CDF8348009A9374801F00EFCD6
:10083C004FF6837309930A950B940C96CDF834807C
:10084C0009A9354801F002FC4FF4706309930A952D
:10085C000B940C94CDF8349009A92E4801F0F6FBBA
:10086C004FF4504309930A950B940C94CDF83480B3
:10087C0009A9284801F0EAFB4FF4005309930A94A4
:10088C000B9409A9234801F0E1FB4CF20373099383
:10089C000A950B940C96CDF8348009A9194801F0EF
:1008AC00D5FBCDF824A00A940B9409A9154801F0A6
:1008BC00CDFB4FF4405309930A970B940C9409A960
:1008CC00104801F0C3FB4FF40C6309930A950B9489
:1008DC000C94CDF8349009A90B4801F0B7FB4FF4F8
:1008EC00986309930A950B940C94CDF8349009A94C
:1008FC00024801F0ABFB13E0003802400008024054
:10090C0000140240000C02400018024000002110AC
:10091C0000000240000402400010024000001210CF
:10092C004FF4007309934FF0120ACDF828A00B97DF
:10093C000C94CDF834B009A9234801F087FB4FF48F
:10094C0080730993CDF828A00B970C94CDF834B094
:10095C0009A91E4801F07AFB482309930A950B94C8
:10096C000C94CDF8349009A9194801F06FFB4FF4A1
:10097C00A05309930A950B940C9409230D9309A980
:10098C00144801F063FB4FF4C04309930A970B948E
:10099C000C9409A90F4801F059FB602309930A959F
:1009AC000B940C96CDF8348009A90B4801F04EFB42
:1009BC0022462146282001F061FC282001F090FC01
:1009CC000FB0BDE8F08F00BF0008024000000240ED
:1009DC00000C0240001802400004024008B509480F
:1009EC00094B0360002343608360C3600361436170
:1009FC0083610362436283620A23C36200F09BFB40
:100A0C0008BD00BF342000200050014008B5084844
:100A1C00084B03604FF4E133436000238360C360F1
:100A2C0003610C2242618361C36100F067FF08BD62
:100A3C008C3100200010014030B595B030220021DF
:100A4C0008A8FFF727FC002403940494059406944B
:100A5C00079401941C4B1A6C42F080521A641B6C64
:100A6C0003F080530193019B0294184A136823F4FA
:100A7C00404343F400431360136803F44043029370
:100A8C00029B0225089501230B9310230C930E95C2
:100A9C000F94082310937D2311931295072313931E
:100AAC0008A800F0CBFF0F230393049505944FF493
:100ABC00A05306934FF480530793042103A801F02D
:100ACC00F3F915B030BD00BF003802400070004093
:100ADC00394B1A785B789A426DD010B582B000F021
:100AEC00D3F90446354B1B78D3B9354B1B787BBBFC
:100AFC00344B1B78002B3CD1334B1B7803B30023B6
:100B0C00314A137017228DF804208DF805008DF8EA
:100B1C0006308DF80730019800F018FA01230FE029
:100B2C000023264A137014228DF804208DF805003A
:100B3C008DF806308DF80730019800F007FA012384
:100B4C005BBB143C032C28D8DFE804F024292D319E
:100B5C0000231B4A137015228DF804208DF8050014
:100B6C008DF806308DF80730019800F0EFF901236D
:100B7C00E6E70023134A137016228DF804208DF833
:100B8C0005008DF806308DF80730019800F0DEF97D
:100B9C000123D5E70122094B1A7002B010BD0122C6
:100BAC00074B1A70F9E70122064B1A70F5E7012280
:100BBC00054B1A70F1E77047CC5100202C00002037
:100BCC002D0000202F0000202E000020164B1A783C
:100BDC005B789A4227D000B583B000F0C5F9C0F31A
:100BEC000723C0B21438032808D8DFE800F0020A43
:100BFC0010160E4A13700E4800F050F903B05DF851
:100C0C0004FB0C4A13700A4800F048F9F6E70A4A4C
:100C1C001370074800F042F9F0E7084A13700448D3
:100C2C0000F03CF9EAE77047D052002000000020A9
:100C3C008C31002001000020030000200200002065
:100C4C0010B586B001F096FBFFF7F6FEFFF7F8FC47
:100C5C00FFF7C4FEFFF7DAFE0F4B01AC0FCB07C456
:100C6C0023700023CDF8113005933223142201A9EF
:100C7C000A4800F072FE4FF47A7001F0A7FB03E013
:100C8C00FFF726FFFFF7A2FF00F0CAF80028F7D005
:100C9C0000F0F0F8F4E700BFB82400088C31002015
:100CAC007047FEE7FEE7FEE7FEE7704770477047C8
:100CBC0008B501F079FB08BD08B54FF4806001F070
:100CCC00BDFA08BD00B583B0002100910C4B5A6CE5
:100CDC0042F480425A645A6C02F480420092009AA8
:100CEC0001911A6C42F080521A641B6C03F0805311
:100CFC000193019B072001F0AFFA03B05DF804FBF0
:100D0C0000380240F0B589B0002303930493059397
:100D1C000693079302681A4B9A4201D009B0F0BDB2
:100D2C000024019403F568435A6C42F480125A640F
:100D3C005A6C02F480120192019A02941A6B42F0DE
:100D4C0020021A631B6B03F020030293029B4023C7
:100D5C000393022704970323069305260796094D50
:100D6C0003A9284601F072F94FF4607303930497BA
:100D7C0005940694079603A9284601F067F9CDE778
:100D8C00005001400014024000B589B000230393C9
:100D9C000493059306930793026803F1804303F5CC
:100DAC0088339A4202D009B05DF804FB002101910E
:100DBC0003F594335A6C42F010025A645A6C02F0E8
:100DCC0010020192019A02911A6B42F001021A630D
:100DDC001B6B03F001030293029B4FF4C06303935C
:100DEC0002230493012305930323069307230793FC
:100DFC0003A9024801F02AF9D5E700BF0000024020
:100E0C0008B50122044B1A7000224FF4006103480C
:100E1C0001F00EFA08BD00BF3000002000140240A3
:100E2C0000B583B000238DF8073001224FF4006128
:100E3C000D4801F0FDF90D4B1B7823B99DF8070007
:100E4C0003B05DF804FB0022084B1A7064230122E6
:100E5C000DF10701064800F0CAFA01224FF40061B7
:100E6C00014801F0E5F9E9E70014024030000020E8
:100E7C0034200020034B1A78511C197013449870BD
:100E8C00704700BFCC510020034B5A78511C59704D
:100E9C0013449878704700BFCC51002070B582B0D5
:100EAC000546264B1B7802AC04F8013D3223012287
:100EBC00214600F052FD20268DF8076032230122D6
:100ECC002146284600F049FD1D4B1B788DF8073054
:100EDC00322301222146284600F03FFD8DF80760A1
:100EEC00322301222146284600F037FD154B1B7892
:100EFC008DF80730322301222146284600F02DFDC3
:100F0C008DF80760322301222146284600F025FD8A
:100F1C000D4B1B788DF807303223012221462846D1
:100F2C0000F01BFD0A238DF80730322301222146E5
:100F3C00284600F012FD02B070BD00BF000000207A
:100F4C0001000020030000200200002082B0054BAD
:100F5C001A78511C197003EB8203C3F8020002B01B
:100F6C00704700BFD052002082B00D4B5A78511CF4
:100F7C00597003EB8203D3F802000023C2B262F370
:100F8C000703C0F3072262F30F23C0F3074262F397
:100F9C001743000E60F31F63184602B0704700BF82
:100FAC00D0520020F8B505460F4616461C462B6855
:100FBC009B6837EA03030CBF01230023B34237D0ED
:100FCC00B4F1FF3FF3D001F0FBF9069BC01A844249
:100FDC0001D9002CEBD12A68536823F0E00353604D
:100FEC006B68B3F5827F0BD0AB6AB3F5005F14D09E
:100FFC00012385F85130002385F850300320F8BDCB
:10100C00AB68B3F5004F02D0B3F5806FECD12A6812
:10101C00136823F040031360E6E72A68136823F48F
:10102C00005313602A68136843F400531360DFE71E
:10103C000020F8BD30B585B0164C2468164DA5FBC4
:10104C000434640D4FF47A7505FB04F4039444687E
:10105C00B4F5827F0BD0039BC3B1039B013B03937D
:10106C0003689B6813F0800FF5D100230FE00B464B
:10107C000446009200228021FFF794FF034630B112
:10108C00636D43F020036365032300E000231846DF
:10109C0005B030BD0C000020819F5E1610B582B0EB
:1010AC0004464068B0F5827F14D06068B0F5827F4A
:1010BC001DD000920B46002201212046FFF772FF43
:1010CC00034620B1636D43F0200363650323184688
:1010DC0002B010BDA368B3F5004F02D0B3F5806F1A
:1010EC00E3D12068036823F040030360DDE7A368C5
:1010FC00B3F5806F0FD000920B4600228021204662
:10110C00FFF750FF03460028E1D0636D43F0200346
:10111C0063650323DBE700920B4600220121204686
:10112C00FFF740FF03460028D1D0636D43F0200346
:10113C0063650323CBE700283BD010B5044600239E
:10114C00836290F85130002B2ED0022384F851305A
:10115C002268136823F04003136022686368A16857
:10116C000B43E1680B4321690B4361690B43A16994
:10117C0001F400710B43E1690B43216A0B43A16A33
:10118C000B4313602268638B03F00403616A0B4307
:10119C0053602268D36923F40063D3610020606537
:1011AC00012384F8513010BD80F85030FFF7AAFDB0
:1011BC00CBE7012070472DE9F04383B00A9D90F8EE
:1011CC005040012C04D10223184603B0BDE8F08333
:1011DC001E4690460F460446012380F8503001F01D
:1011EC00EFF8814694F85130DBB26268012B12D0D3
:1011FC00B2F5827F07D00223012284F8512000220D
:10120C0084F85020E0E7A268002A40F0E280042B2A
:10121C0001D00223F0E7002F00F0DD80B8F1000FC1
:10122C0000F0DB80002E00F0DA8094F85130DBB255
:10123C00042B02D0052384F8513000236365C4F8D5
:10124C003880E687A6872763E686A68623646364D0
:10125C0023681A6812F0400F03D11A6842F040025A
:10126C001A60E368B3F5006F11D063680BB1012EFF
:10127C000BD12368226B12781A73236B013323630F
:10128C00E38E9BB2013B9BB2E38601266CE0636864
:10129C000BB1012E0BD12368226B1288DA60236B01
:1012AC0002332363E38E9BB2013B9BB2E3860126A0
:1012BC001CE023689A6812F0010F0ED0E28F92B2F4
:1012CC005AB1A26BDB681380A36B0233A363E38F69
:1012DC009BB2013B9BB2E387012601F071F8A0EBB6
:1012EC000900A84202D3B5F1FF3F7AD1E38E9BB23D
:1012FC001BB9E38F9BB2002B54D023689A6812F071
:10130C00020FD6D0E28E92B2002AD2D0002ED0D0CC
:10131C00226B1288DA60236B02332363E38E9BB259
:10132C00013B9BB2E3860026C3E723689A6812F060
:10133C00010F0ED0E28F92B25AB1A26BDB68137020
:10134C00A36B0133A363E38F9BB2013B9BB2E38797
:10135C00012601F035F8A0EB0900854202D8B5F161
:10136C00FF3F40D1002D40D0E38E9BB213B9E38FE9
:10137C009BB2BBB123689A6812F0020FD5D0E28EF3
:10138C0092B2002AD1D0002ECFD0226B12781A73D1
:10139C00236B01332363E38E9BB2013B9BB2E38649
:1013AC000026C2E74A4629462046FFF743FE03467D
:1013BC0018B12023636501231EE7A268002A7FF47D
:1013CC001BAF01922268D168019192680192019A37
:1013DC0012E7022310E701230EE701230CE7012398
:1013EC000AE7032308E7032306E7032304E72DE9B1
:1013FC00F04182B004460F4690461D464368B3F553
:10140C00827F07D094F85030012B0FD1022002B00C
:10141C00BDE8F0818368002BF4D1042380F85130AF
:10142C00009513460A46FFF7C6FEF0E7012384F841
:10143C00503000F0C5FF064694F85130DBB2012B5A
:10144C0007D00220012384F85130002384F8503057
:10145C00DDE7002F6FD0B8F1000F6ED0042384F8B5
:10146C00513000236365A763A4F83C80A4F83E8048
:10147C002363A386E38623646364A368B3F5004FF8
:10148C000BD023681A6812F0400F03D11A6842F08F
:10149C0040021A60E36883B12DE02268136823F4DC
:1014AC0080431360EDE700F08BFF801B854202D870
:1014BC00B5F1FF3F43D1002D43D0E38F9BB2002BFE
:1014CC002DD023689A6812F0010FECD0A26B1B7B15
:1014DC001370A36B0133A363E38F9BB2013B9BB2ED
:1014EC00E387EAE700F06CFF801B854202D8B5F178
:1014FC00FF3F28D14DB3E38F9BB283B123689A6829
:10150C0012F0010FEED0A26BDB681380A36B0233D9
:10151C00A363E38F9BB2013B9BB2E387EBE73246BD
:10152C0029462046FFF7BAFD08B120236365636D99
:10153C006BB9002086E7012084E7012082E70320B5
:10154C0080E703207EE703207CE703207AE7012075
:10155C0078E700002DE9F04704460268136923F48C
:10156C004053C1680B43136183680269134342699A
:10157C001343C26913430168CA6822F4164222F06D
:10158C000C021343CB600268536923F440738169E6
:10159C000B435361C369B3F5004F62D0D0F80080A0
:1015AC00BB4B984500F01B8103F58063984500F018
:1015BC00168100F02BFD00EB800000EB80006568CD
:1015CC00AD00B0FBF5F5B34FA7FB05356D092E014A
:1015DC0000F01CFD00EB800000EB80006568AD00A6
:1015EC00B0FBF5FA00F012FD00EB800000EB800080
:1015FC006568AD00B0FBF5F5A7FB05356D094FF03F
:10160C00640909FB15A52D013235A7FB05356D09BC
:10161C0005F0F005354400F0F9FC00EB800000EB20
:10162C0080006668B600B0FBF6F600F0EFFC00EB4D
:10163C00800000EB800063689B00B0FBF3F0A7FB1D
:10164C000030400909FB10694FEA091909F1320908
:10165C00A7FB0937C7F343172F44C8F80870BDE838
:10166C00F087D0F8008003F1804303F510439845D0
:10167C005CD003F58063984558D000F0C7FC00EBB4
:10168C00800000EB800065686D00B0FBF5F5814FC4
:10169C00A7FB05356D092E0100F0B8FC00EB8000AE
:1016AC0000EB800065686D00B0FBF5FA00F0AEFC55
:1016BC0000EB800000EB800065686D00B0FBF5F579
:1016CC00A7FB05356D094FF0640909FB15A5ED0065
:1016DC003235A7FB05356D096D0005F4F8753544F9
:1016EC0000F094FC00EB800000EB80006668760054
:1016FC00B0FBF6F600F08AFC00EB800000EB8000FB
:10170C0063685B00B0FBF3F3A7FB03235B0909FBE6
:10171C0013694FEAC90909F13209A7FB0937C7F365
:10172C0042172F44C8F80870BDE8F08700F07EFC23
:10173C0000EB800000EB800065686D00B0FBF5F5F8
:10174C00544FA7FB05356D092E0100F06FFC00EB23
:10175C00800000EB800065686D00B0FBF5FA00F0CE
:10176C0065FC00EB800000EB800065686D00B0FB51
:10177C00F5F5A7FB05356D094FF0640909FB15A5B7
:10178C00ED003235A7FB05356D096D0005F4F875D4
:10179C00354400F04BFC00EB800000EB80006668E9
:1017AC007600B0FBF6F600F041FC00EB800000EB9D
:1017BC00800063685B00B0FBF3F3A7FB03235B09BA
:1017CC0009FB13694FEAC90909F13209A7FB09376B
:1017DC00C7F342172F44C8F80870BDE8F08700F033
:1017EC0025FC00EB800000EB80006568AD00B0FBD1
:1017FC00F5F5284FA7FB05356D092E0100F016FCF9
:10180C0000EB800000EB80006568AD00B0FBF5FAE2
:10181C0000F00CFC00EB800000EB80006568AD0074
:10182C00B0FBF5F5A7FB05356D094FF0640909FB15
:10183C0015A52D013235A7FB05356D0905F0F00511
:10184C00354400F0F3FB00EB800000EB8000666891
:10185C00B600B0FBF6F600F0E9FB00EB800000EB05
:10186C00800063689B00B0FBF3F3A7FB03235B09C9
:10187C0009FB13694FEA091909F13209A7FB09376A
:10188C00C7F343172F44C8F80870BDE8F08700BFB2
:10189C00001001401F85EB512DE9F04105460F4624
:1018AC0016469846069C2B681B6837EA03030CBF48
:1018BC0001230023B3421ED1B4F1FF3FF3D02CB16E
:1018CC0000F07EFDA0EB08008442ECD22A68D368BD
:1018DC0023F4D073D3602A68536923F00103536156
:1018EC00202385F8393085F83A30002385F83830D4
:1018FC000320BDE8F0810020BDE8F08158B310B59D
:10190C00044690F839300BB3242384F8393022681C
:10191C00D36823F40053D3602046FFF71BFE2268E4
:10192C00136923F4904313612268536923F02A034B
:10193C0053612268D36843F40053D3600020E06302
:10194C00202384F8393084F83A3010BD80F83830D0
:10195C00FFF71AFAD8E7012070472DE9F04182B061
:10196C001E4690F83930DBB2202B04D002231846E7
:10197C0002B0BDE8F08104460D469046002955D0D2
:10198C00002A55D090F83830012B01D10223EEE714
:10199C00012380F838300023C363212380F83930C9
:1019AC0000F00EFD0746A4F82480A4F8268010E071
:1019BC0000963B46002280212046FFF76DFF002851
:1019CC0038D122682B88C3F3080353602369CBB941
:1019DC000235E38C9BB2BBB1E38C9BB2013B9BB257
:1019EC00E384A368B3F5805FE2D000963B46002207
:1019FC0080212046FFF750FFF0B923682A785A60FF
:101A0C000135E6E70135E4E700963B46002240212C
:101A1C002046FFF741FF034608B10323A7E7202226
:101A2C0084F83920002284F83820A0E701239EE7AF
:101A3C0001239CE703239AE7032398E7002800F08F
:101A4C00BB8170B582B00446036813F0010F3BD024
:101A5C00A74B9B6803F00C03042B2CD0A44B9B6866
:101A6C0003F00C03082B21D06368B3F5803F4FD0F3
:101A7C00B3F5A02F52D09E4B1A6822F480321A6014
:101A8C001A6822F480221A606368002B50D000F090
:101A9C0097FC0546964B1B6813F4003F14D100F0DD
:101AAC008FFC401B6428F5D903208AE1904B5B68BE
:101ABC0013F4800FD8D08E4B1B6813F4003F03D067
:101ACC006368002B00F07A81236813F0020F55D065
:101ADC00874B9B6813F00C0F3ED0854B9B6803F033
:101AEC000C03082B33D0E368002B68D00122814B08
:101AFC001A6000F065FC05467D4B1B6813F0020F65
:101B0C0054D100F05DFC401B0228F5D9032058E1AC
:101B1C00774A136843F480331360B5E7744B1A6843
:101B2C0042F480221A601A6842F480321A60ABE7E1
:101B3C0000F046FC05466E4B1B6813F4003FC3D007
:101B4C0000F03EFC401B6428F5D9032039E1684BBA
:101B5C005B6813F4800FC6D1654B1B6813F0020F42
:101B6C0004D0E368012B01D001202AE1604A1368FC
:101B7C0023F0F803216943EAC1031360236813F0CF
:101B8C00080F40D0636963B301225B4B1A6000F00D
:101B9C0017FC0546564B5B6F13F0020F33D100F068
:101BAC000FFC401B0228F5D903200AE1504A1368A8
:101BBC0023F0F803216943EAC1031360DEE7002236
:101BCC004C4B1A6000F0FCFB0546494B1B6813F0AC
:101BDC00020FD3D000F0F4FB401B0228F5D90320F0
:101BEC00EFE00022444B1A6000F0EAFB0546404B44
:101BFC005B6F13F0020F06D000F0E2FB401B0228D3
:101C0C00F5D90320DDE0236813F0040F79D0384BAD
:101C1C001B6C13F0805F33D100230193344B1A6C8F
:101C2C0042F080521A641B6C03F080530193019BA9
:101C3C000125324B1B6813F4807F23D0A368012B42
:101C4C0034D0052B38D02A4B1A6F22F001021A67B8
:101C5C001A6F22F004021A67A368002B36D000F02A
:101C6C00AFFB0646224B1B6F13F0020F48D100F05E
:101C7C00A7FB801B41F288339842F3D90320A0E0E4
:101C8C000025D6E71D4A136843F48073136000F0F7
:101C9C0097FB0646194B1B6813F4807FCED100F0DE
:101CAC008FFB801B0228F5D903208AE0104A136FA2
:101CBC0043F001031367CFE70D4B1A6F42F0040298
:101CCC001A671A6F42F001021A67C5E700F078FB39
:101CDC000646074B1B6F13F0020F11D000F070FB80
:101CEC00801B41F288339842F3D9032069E000BF8E
:101CFC000038024000004742800E4742007000400E
:101D0C00E5B9A369002B5BD0304A926802F00C0253
:101D1C00082A58D0022B17D000222D4B1A6000F045
:101D2C004FFB0446294B1B6813F0007F42D000F098
:101D3C0047FB001B0228F5D9032042E0234A136C11
:101D4C0023F080531364DCE70022214B1A6000F06F
:101D5C0037FB05461D4B1B6813F0007F06D000F0C7
:101D6C002FFB401B0228F5D903202AE0E369226AE5
:101D7C001343626A43EA8213A26A5208013A43EAA5
:101D8C000243E26A43EA0263104A53600122104B99
:101D9C001A6000F015FB04460C4B1B6813F0007F17
:101DAC0006D100F00DFB001B0228F5D9032008E03A
:101DBC00002006E0002004E001207047012000E034
:101DCC00002002B070BD0120FBE700BF00380240CC
:101DDC0060004742F8B5314B9B6803F00C03042BB1
:101DEC0059D0082B01D02E48F8BD2C4B5A6802F064
:101DFC003F025B6813F4800F2AD0284B5B68C3F357
:101E0C0088131E4600275C010025E41A65EB0705C4
:101E1C00A90141EA9461A001001B61EB0501CB0013
:101E2C0043EA5073C400A01943EB07014B0243EA89
:101E3C00D0534402204619460023FEF779FA174B7B
:101E4C005B68C3F3014301335B00B0FBF3F0F8BDF7
:101E5C00124B5B68C3F388131E4600275C010025F8
:101E6C00E41A65EB0705A90141EA9461A001001B86
:101E7C0061EB0501CB0043EA5073C400A01943EB9E
:101E8C0007018B0243EA9053840220461946002333
:101E9C00FEF74EFAD3E70348F8BD00BF0038024006
:101EAC000024F40000127A00002800F09D8070B528
:101EBC0004464F4B1B6803F00F038B4209D2CBB285
:101ECC004B4A1370136803F00F03994201D00120A1
:101EDC0070BD236813F0020F17D013F0040F04D059
:101EEC00444A936843F4E0539360236813F0080F5B
:101EFC0004D0404A936843F4604393603D4A93682E
:101F0C0023F0F003A068034393600D46236813F09D
:101F1C00010F32D06368012B21D09A1E012A25D9DA
:101F2C00344A126812F0020F60D032498A6822F0EB
:101F3C00030213438B6000F043FA06462D4B9B685B
:101F4C0003F00C036268B3EB820F16D000F038FA82
:101F5C00801B41F288339842F0D9032070BD254A8A
:101F6C00126812F4003FE0D1012070BD214A1268C2
:101F7C0012F0007FD9D1012070BD1D4B1B6803F0FE
:101F8C000F039D4209D2EAB2194B1A701B6803F079
:101F9C000F039D4201D0012070BD236813F0040F84
:101FAC0006D0144A936823F4E053E1680B43936022
:101FBC00236813F0080F07D00E4A936823F460438C
:101FCC00216943EAC1039360FFF704FF094B9B6847
:101FDC00C3F30313084AD35CD840084B18600020A5
:101FEC0000F0A2F9002070BD01207047012070BDE7
:101FFC00003C024000380240CC2400080C000020B9
:10200C00014B1868704700BF0C00002008B5FFF7A3
:10201C00F7FF044B9B68C3F38223034AD35CD8407D
:10202C0008BD00BF00380240DC24000808B5FFF7EB
:10203C00E7FF044B9B68C3F34233034AD35CD8409D
:10204C0008BD00BF00380240DC240008F0B583B0A6
:10205C0000244BE04FEAD40E0EF1080E50F82E205F
:10206C0004F00706B6000F27B74022EA07020F69F3
:10207C0007FA06F6324340F82E2046E0092600E027
:10208C00002606FA0EF632430233644E46F823203D
:10209C00634B1A68EB4302EA03064F6817F4803F60
:1020AC0001D045EA02065E4A1660526803EA02064F
:1020BC004F6817F4003F01D045EA0206584A5660B3
:1020CC00926803EA02064F6817F4801F01D045EAB4
:1020DC000206534A9660D26813404E6816F4001FED
:1020EC0001D045EA02034E4AD36001340F2C00F2B2
:1020FC0092800123A3400A6803EA0205AB42F4D1A3
:10210C004A68022AA6D0122AA4D006684FEA440EC6
:10211C00032202FA0EF2D24316404F6807F003076F
:10212C0007FA0EF73E4306604E68771E012F03D95F
:10213C00112E01D0122E0FD186681640CF6807FAE7
:10214C000EF73E438660466826EA03034E68C6F3E4
:10215C000016A64033434360C3681A408B6803FAE9
:10216C000EF31A43C2604B6813F0805FBDD000239E
:10217C0001932C4B5A6C42F480425A645B6C03F40E
:10218C0080430193019BA3089E1C244A52F82620ED
:10219C0004F003064FEA860E0F2606FA0EF622EA24
:1021AC000602214FB8423FF46BAF204EB04222D012
:1021BC0006F58066B04220D006F58066B0421ED08F
:1021CC0006F58066B0421CD006F58066B0421AD087
:1021DC0006F58066B04218D006F58066B04216D07F
:1021EC0006F58066B04214D006F58066B0423FF426
:1021FC0045AF0A2645E7012643E7022641E70326B9
:10220C003FE704263DE705263BE7062639E7072688
:10221C0037E7082635E703B0F0BD00BF00380140B2
:10222C00003C014000380240000002400004024023
:10223C0012B90904816170478161704708B5054B7B
:10224C005B69034200D108BD024B5861FEF7D8FD13
:10225C00F9E700BF003C0140074AD36823F4E06370
:10226C001B041B0C000200F4E060184340F0BF603C
:10227C0040F40030D060704700ED00E030B4164BF5
:10228C00DB68C3F30223C3F10704042C28BF042426
:10229C001D1D062D17D9033B012505FA04F4013C3D
:1022AC002140994005FA03F3013B134019430028E0
:1022BC000BDB0901C9B200F1604000F5614080F808
:1022CC00001330BC70470023E6E700F00F00090153
:1022DC00C9B2024B1954F4E700ED00E014ED00E034
:1022EC00002808DB420900F01F00012303FA00F06C
:1022FC00014B43F82200704700E100E00138B0F1D7
:10230C00807F0AD2064B5860F021064A82F82310CF
:10231C000020986007221A6070470120704700BFA8
:10232C0010E000E000ED00E010B504460E4B18780C
:10233C004FF47A73B3FBF0F30C4A1068B0FBF3F074
:10234C00FFF7DCFF68B90F2C01D9012010BD00226A
:10235C0021464FF0FF30FFF791FF054B1C6000202A
:10236C0010BD012010BD00BF040000200C00002097
:10237C000800002008B50B4B1A6842F400721A6072
:10238C001A6842F480621A601A6842F480721A6009
:10239C000320FFF761FF0020FFF7C6FFFEF792FC5A
:1023AC00002008BD003C0240034A1168034B1B7817
:1023BC000B441360704700BFD0560020040000206F
:1023CC00014B1868704700BFD056002038B5044642
:1023DC00FFF7F6FF0546B4F1FF3F02D0044B1B7824
:1023EC001C44FFF7EDFF401B8442FAD838BD00BFF8
:1023FC00040000200F49D1F8883043F47003C1F871
:10240C0088300D4B1A6842F001021A600020986067
:10241C001A6822F0847222F480321A60074A5A60D9
:10242C001A6822F480221A60D8604FF000638B6027
:10243C00704700BF00ED00E000380240103000246F
:10244C00DFF834D0002103E00C4B5B5843500431CF
:10245C000B480C4B42189A42F6D30B4A02E000236D
:10246C0042F8043B094B9A42F9D3FFF7C3FFFDF73F
:10247C00E9FEFEF7E5FB704700000320F42400089A
:10248C00000000201000002010000020D456002076
:10249C00FEE70000F8B500BFF8BC08BC9E467047CC
:0C24AC00F8B500BFF8BC08BC9E467047A5
:1024B8000A53544D333246343239210A00000000A1
:1024C80000000000000000000000000001020304FA
:0C24D800060708090000000001020304D0
:0824E40088DEFF7F010000000B
:0424EC0019020008C9
:0424F000F1010008EE
:1024F400FFFFFFC801000000100000000024F400EA
:040000050800244D7E
:00000001FF
