:020000040800F2
:1000000000000320852B00080509000807090008E7
:10001000090900080B0900080D090008000000008C
:100020000000000000000000000000000F090008B0
:100030001109000800000000130900081509000854
:10004000D52B0008D52B0008D52B0008D52B000890
:10005000D52B0008D52B0008D52B0008D52B000880
:10006000D52B0008D52B0008D52B0008D52B000870
:10007000D52B0008D52B0008D52B0008D52B000860
:10008000D52B0008D52B0008D52B0008D52B000850
:10009000D52B0008D52B0008D52B0008D52B000840
:1000A000D52B0008D52B0008D52B0008D52B000830
:1000B000D52B0008D52B0008D52B0008D52B000820
:1000C000D52B0008D52B0008D52B0008D52B000810
:1000D0001D090008D52B0008D52B0008D52B0008DA
:1000E000D52B0008D52B0008D52B0008D52B0008F0
:1000F000D52B0008D52B0008D52B0008D52B0008E0
:10010000D52B0008D52B0008D52B0008D52B0008CF
:100110002D090008D52B00083D090008D52B000843
:10012000D52B0008D52B0008D52B0008D52B0008AF
:10013000D52B0008D52B0008D52B0008D52B00089F
:10014000D52B0008D52B0008D52B0008D52B00088F
:10015000D52B0008D52B0008D52B0008D52B00087F
:10016000D52B0008D52B0008D52B0008D52B00086F
:10017000D52B0008D52B0008D52B00080000000067
:10018000D52B0008D52B0008D52B0008D52B00084F
:10019000D52B0008D52B0008D52B0008D52B00083F
:0C01A000D52B0008D52B0008D52B00083B
:1001AC00044B05481B1A062B02D9044B03B1184704
:1001BC00704700BF0F0000200C0000200000000062
:1001CC0005490648091A891001EBD171491002D072
:1001DC00034B03B1184770470C0000200C000020A3
:1001EC000000000010B5064C237843B9FFF7D8FF88
:1001FC00044B13B10448AFF300800123237010BDEE
:10020C000C00002000000000D82B000808B5084B9B
:10021C001BB108490848AFF300800848036813B9BC
:10022C00BDE80840CCE7064B002BF9D09847F7E720
:10023C000000000010000020D82B00080C0000204B
:10024C000000000070B50F4E0F4D761BB61018BF96
:10025C00002405D0013455F8043B9847A642F9D147
:10026C000A4E0B4D761B02F0B1FCB61018BF0024E1
:10027C0006D0013455F8043B9847A642F9D170BD1D
:10028C0070BD00BF102C0008102C0008142C0008A6
:10029C00102C000870B4860746D0541E002A41D09A
:1002AC00CAB2034602E014F1FF343BD303F8012B2E
:1002BC009D07F8D1032C2ED9CDB245EA05250F2C7C
:1002CC0045EA054519D903F110022646103E0F2EBA
:1002DC0042F8105C42F80C5C42F8085C42F8045C92
:1002EC0002F11002F2D8A4F1100222F00F0204F075
:1002FC000F041032032C13440DD91E462246043A27
:10030C00032A46F8045BFAD8221F22F003020432B7
:10031C00134404F003042CB1C9B21C4403F8011BB0
:10032C009C42FBD170BC704714460346C2E700BF29
:10033C0053B94AB9002908BF00281CBF4FF0FF3140
:10034C004FF0FF3000F07AB9ADF1080C6DE904CE36
:10035C0000F006F8DDF804E0DDE9022304B0704794
:10036C002DE9F0478C460D460446089E002B51D1D2
:10037C008A4217466DD9B2FA82FEBEF1000F0BD03D
:10038C00CEF1200C01FA0EF520FA0CFC02FA0EF755
:10039C004CEA050C00FA0EF44FEA174A250CBCFB8C
:1003AC00FAF81FFA87F90AFB18CC45EA0C4508FB4A
:1003BC0009F3AB420AD9ED1908F1FF3280F0238121
:1003CC00AB4240F22081A8F102083D44ED1AA4B2E0
:1003DC00B5FBFAF00AFB105544EA054400FB09F999
:1003EC00A14509D9E41900F1FF3380F00A81A14538
:1003FC0040F2078102383C44A4EB090440EA08406F
:10040C000021002E61D024FA0EF4002334607360B6
:10041C00BDE8F0878B4207D9002E54D0002186E826
:10042C0021000846BDE8F087B3FA83F1002940F0BB
:10043C008E80AB4202D3824200F2FA80841A65EBC2
:10044C0003050120AC46002E3FD086E81010BDE815
:10045C00F08712B90127B7FBF2F7B7FA87FEBEF1A6
:10046C00000F34D1EB1B3A0C1FFA87FC0121B3FBB4
:10047C00F2F8250C02FB183345EA03450CFB08F394
:10048C00AB4207D9ED1908F1FF3002D2AB4200F2B2
:10049C00D1808046ED1AA3B2B5FBF2F002FB1055E9
:1004AC0043EA05440CFB00FCA44507D9E41900F110
:1004BC00FF3302D2A44500F2B8801846A4EB0C041A
:1004CC0040EA08409DE731463046BDE8F087CEF162
:1004DC00200405FA0EF307FA0EF720FA04F83A0C8A
:1004EC0025FA04F448EA0308B4FBF2F14FEA184584
:1004FC0002FB11441FFA87FC45EA044501FB0CF38F
:10050C00AB4200FA0EF409D9ED1901F1FF3080F07D
:10051C008A80AB4240F2878002393D44EB1A1FFAC5
:10052C0088F5B3FBF2F002FB103345EA034500FB00
:10053C000CF3AB4207D9ED1900F1FF386FD2AB4287
:10054C006DD902383D44EB1A40EA01418FE7C1F105
:10055C00200722FA07F88B4005FA01F448EA030356
:10056C0020FA07FE4FEA134CFD404EEA040EB5FB91
:10057C00FCF94FEA1E440CFB19551FFA83F844EAA8
:10058C00054509FB08F4AC4202FA01F200FA01FA43
:10059C0008D9ED1809F1FF3043D2AC4241D9A9F189
:1005AC0002091D442D1B1FFA8EFEB5FBFCF00CFB43
:1005BC0010554EEA054400FB08F8A04507D9E4188D
:1005CC0000F1FF3529D2A04527D902381C4440EA56
:1005DC000940A4EB0804A0FB02894C45C6464D46D5
:1005EC0015D312D056B1BAEB0E0364EB050404FA22
:1005FC0007F7CB401F43CC40376074600021BDE847
:10060C00F0871846F8E69046E0E6C245EAD2B8EB29
:10061C00020E69EB03050138E4E72846D7E74046AC
:10062C0091E78146BEE7014678E702383C4445E74E
:10063C00084608E7A8F102083D442BE7704700BFC5
:10064C0030B58BB000240594069407940894099453
:10065C0001941E4B1A6B42F004021A631A6B02F0DF
:10066C0004020192019A02941A6B42F001021A637D
:10067C001A6B02F001020292029A03941A6B42F076
:10068C0010021A631A6B02F010020392039A04947C
:10069C001A6B42F002021A631B6B03F00203049301
:1006AC00049B0B4D22464FF4FC51284602F06AF98C
:1006BC004FF4FC530593012306930794089405A962
:1006CC00284602F06DF80BB030BD00BF0038024078
:1006DC000010024030B583B00024009401940A4D00
:1006EC000A4B2B60284600F0CDFA00940194224668
:1006FC006946284600F009FB10226946284600F09E
:10070C0004FB03B030BD00BF7C000020007400402F
:10071C0038B50D4C0D4B23600D4B63600025A56067
:10072C00E5604FF4804323616561A561E561256255
:10073C00204600F011FB2946204600F0DDFB29463F
:10074C00204600F0FBFB38BD280000200054004080
:10075C00A086010008B50A480A4B03604FF40072EA
:10076C004260002383600521C16002614AF6444265
:10077C0042618361C3610123036200F001FC08BD87
:10078C00680100200038004008B50948094B036097
:10079C00002343608360C360036143618361036230
:1007AC00436283620A23C36200F0EAFE08BD00BF05
:1007BC00100100200030014030B583B000250095B9
:1007CC0001950A4C0A4B23606560A56040F20A5300
:1007DC00E360A561204601F03BF800950195694660
:1007EC00204601F04EF803B030BD00BF9000002051
:1007FC000010004008B50848084B03604FF416532E
:10080C00436000238360C36003610C2242618361F7
:10081C00C36101F041FA08BDD0000020004C00403B
:10082C00F0B5A1B030252A46002114A8FFF732FDFF
:10083C0000240F9410941194129413942A46214678
:10084C0003A8FFF727FD01941F4B1A6C42F080524E
:10085C001A641B6C03F080530193019B02941B4A96
:10086C00136823F4404343F400431360136803F408
:10087C0040430293029B02251495012617961023E0
:10088C0018931A951B9408231C937D231D931E9576
:10089C0004271F9714A801F025FB0F230F93109525
:1008AC0011944FF4A05312934FF480531393394681
:1008BC000FA801F035FD039632230493059503A888
:1008CC0001F000FE21B0F0BD003802400070004085
:1008DC0008B502F0FFF8FFF7A3FFFFF7B1FEFFF733
:1008EC00F9FEFFF715FFFFF735FFFFF74DFFFFF799
:1008FC0063FFFFF77FFFFEE77047FEE7FEE7FEE7CB
:10090C00FEE770477047704708B502F0FDF808BD68
:10091C0008B5024800F002FC08BD00BF68010020C9
:10092C0008B5024801F046FA08BD00BFD00000200F
:10093C0008B5034800F0B9F9024800F066FE08BD9E
:10094C007C0000209000002082B0002100910B4B15
:10095C005A6C42F480425A645A6C02F480420092FF
:10096C00009A01911A6C42F080521A641B6C03F0CD
:10097C0080530193019B02B0704700BF00380240C6
:10098C0010B588B000230393049305930693079343
:10099C000268164B9A4201D008B010BD0024019495
:1009AC0003F5E2331A6C42F000521A641A6C02F02E
:1009BC0000520192019A02941A6B42F001021A63DE
:1009CC001B6B03F001030293029B3023039303235D
:1009DC00049303A9064801F0E3FE22462146362083
:1009EC0001F0FCFF362002F02BF8D5E70074004034
:1009FC000000024030B589B00023039304930593A3
:100A0C00069307930268154B9A4201D009B030BD8A
:100A1C0000250195124C236B43F002032363236BD7
:100A2C0003F002030193019BC0230393122304934D
:100A3C0001230593032306930423079303A9094871
:100A4C0001F0AEFE0295236C43F400132364236C77
:100A5C0003F400130293029BD8E700BF005400403C
:100A6C000038024000040240F0B589B00023039323
:100A7C0004930593069307930268284B9A4201D07E
:100A8C0009B0F0BD0024009403F500331A6C42F455
:100A9C0080421A641A6C02F480420092009A01940B
:100AAC001A6B42F004021A631A6B02F004020192F0
:100ABC00019A02941A6B42F002021A631B6B03F048
:100ACC0002030293029B042303930225049506233D
:100ADC000793134F03A9384601F062FE4823039392
:100AEC000495059406940526079603A9384601F04B
:100AFC0057FE4FF4A0530393049505940694079660
:100B0C0003A9084801F04CFE22462146242001F09E
:100B1C0065FF242001F094FFB2E700BF00380040CD
:100B2C000008024000040240F0B589B00023039392
:100B3C00049305930693079302681F4B9A4201D0C6
:100B4C0009B0F0BD0024009403F584335A6C42F4D0
:100B5C0080525A645A6C02F480520092009A0194AA
:100B6C001A6B42F001021A631A6B02F00102019235
:100B7C00019A02941A6B42F002021A631B6B03F087
:100B8C0002030293029B48F2C003039302270497CB
:100B9C00032606960525079503A9084801F000FED3
:100BAC0008230393049705940696079503A9044814
:100BBC0001F0F6FDC4E700BF003001400000024028
:100BCC000004024002680E4B9A4200D0704700B5F8
:100BDC0083B00021019103F50A331A6C42F0100224
:100BEC001A641B6C03F010030193019B0A46362018
:100BFC0001F0F4FE362001F023FF03B05DF804FB96
:100C0C000010004010B588B00023039304930593A3
:100C1C00069307930268194B9A4201D008B010BD95
:100C2C000024019403F5F6331A6C42F400221A6482
:100C3C001A6C02F400220192019A02941A6B42F08F
:100C4C0001021A631B6B03F001030293029B032343
:100C5C000393022204920122059206930823079320
:100C6C0003A9074801F09CFD22462146342001F0DF
:100C7C00B5FE342001F0E4FED0E700BF004C00408C
:100C8C000000024070B110B50446037933B1022361
:100C9C002371002020610123237110BD4371FFF7E4
:100CAC006FFEF4E701207047704710B504460368E7
:100CBC005A6B12F4005F05D123685A6B12F0005F77
:100CCC0011D110BD04220271026942F001020261CD
:100CDC004FF400525A630268136823F48053136074
:100CEC00FFF7E2FFE8E704222271226942F00202D8
:100CFC0022614FF000525A632268136823F080532C
:100D0C001360204600F026F8DBE74379012B1FD057
:100D1C0070B401254571022303710668336840F6EF
:100D2C00FE74944023EA04030C6849682143914003
:100D3C000B43336004682368C02101FA02F223EAF2
:100D4C0002022260057100234371184670BC704783
:100D5C000220704770470000002800F0BE80F8B5F4
:100D6C00044690F83D30002B6BD0242384F83D30A2
:100D7C002268136823F00103136001F083FB62689F
:100D8C00584B9A4262D8584B98428CBF002301238F
:100D9C00002B40F0A480554BA3FB00239A0C216838
:100DAC004B6823F03F0313434B602568296A21F0FD
:100DBC003F0166684B4B9E424ED8531C0B432B6233
:100DCC002268D16921F44F4121F0FF016368454D40
:100DDC00AB424BD801385B00B0FBF3F30133C3F3E8
:100DEC000B03042B38BF04230B43D36121680B681E
:100DFC0023F0C003E269206A024313430B602168AD
:100E0C008B6823F4034323F0FF032269E068024359
:100E1C0013438B602168CB6823F0FF036269A069E0
:100E2C0002431343CB602268136843F00103136041
:100E3C0000202064202384F83D30206384F83E0099
:100E4C00F8BD80F83C30FFF7D5FD8EE7284B984273
:100E5C008CBF002301239BE74FF4967303FB02F333
:100E6C00244AA2FB03239B090133A7E7A668BEB95A
:100E7C00451E03EB4307B5FBF7F50135C5F30B0531
:100E8C00B5FA85F56D0935BBC6B9013803EB4303DB
:100E9C00B0FBF3F30133C3F30B0343F40043A3E7B9
:100EAC00451E03EB830707EB8707B5FBF7F5013509
:100EBC00C5F30B05B5FA85F56D09E4E7013803EBCD
:100ECC00830303EB8303B0FBF3F30133C3F30B0393
:100EDC0043F4404388E7012386E701207047012053
:100EEC00F8BD00BFA08601007F841E0083DE1B437B
:100EFC00FF083D00D34D621090F83D30DBB2202B43
:100F0C0001D002207047242380F83D30026813681A
:100F1C0023F0010313600268536A23F01003536239
:100F2C000268536A194351620268136843F0010363
:100F3C001360202380F83D300020704790F83D303E
:100F4C00DBB2202B01D002207047242380F83D30E7
:100F5C000268136823F0010313600268536A9BB2A2
:100F6C0023F00F03194389B251620268136843F0EE
:100F7C0001031360202380F83D30002070470000EF
:100F8C00002800F0BF8070B5044690F84130002B6B
:100F9C0051D0022284F841202168CB6923F47B6371
:100FAC0023F00F03CB6123681A626369934263D009
:100FBC00E368002B46D11025A368202B00D86D00C8
:100FCC00012001F0B3FB2369B3F5007F3CD0B0FBEB
:100FDC00F5F000EB800043006269B3FBF2F30533DC
:100FEC00494AA2FB0323DB0803F001029B1A5B08AE
:100FFC001202991EFD2941D821682069024313432E
:10100C000B622168CB6923F47B6323F00F036268C6
:10101C00A0680243E0680243A0690243134343F40F
:10102C000063CB61236A012B2ED000206064012366
:10103C0084F8413070BD80F84030344B4363FFF787
:10104C0013FDA6E72025B7E7E36853B1AD00B0FB6D
:10105C00F5F000EB800043006269B3FBF2F305335B
:10106C00BEE7ED00B0FBF5F000EB800043006269D9
:10107C00B3FBF2F30533B3E70022BAE7636C43F03A
:10108C0010036364012070BD214B63632268214B04
:10109C009A422BD04FF04022D36923F47B6323F088
:1010AC000F03D36122681B4B9A4221D04FF040238F
:1010BC0002221A622268174B9A421CD04FF0402130
:1010CC00CA6992B26368B3F5007F16D0C3B94FF406
:1010DC008070A568E668238B33439BB22B439BB28D
:1010EC000343134343F40063CB619EE70A4AD3E7FF
:1010FC00A3F58063DCE70849E2E74FF48070E8E78A
:10110C000020E6E701207047CDCCCCCCA71100081D
:10111C00B5130008003800400034004008B5436B9C
:10112C00984708BD704708B50368426A1288DA60B0
:10113C00436A02334362438D9BB2013B9BB24385AE
:10114C00438D9BB203B108BD0268536823F0A00322
:10115C005360012380F84130FFF7E4FFF3E7704759
:10116C0008B5C36A0268D2681A80C36A0233C362C4
:10117C00438E9BB2013B9BB24386438E9BB203B121
:10118C0008BD0268536823F060035360012380F8A4
:10119C004130FFF7E4FFF3E7704710B584B0044625
:1011AC0002689368039390F84130DBB2042B06D0AD
:1011BC0094F84130DBB2032B2CD004B010BD039B50
:1011CC0013F0010F03D0536813F0400F1FD1039B92
:1011DC0013F0400FECD023685A6812F0200FE7D0C0
:1011EC005A6822F060025A60002301932368DA687F
:1011FC0001929B680193019B012384F84130636C3D
:10120C0043F0020363642046FFF7C6FFD0E7FFF705
:10121C00A7FFDCE7039B13F0020F04D023685B6885
:10122C0013F0800F1DD1039B13F0080FC5D023685A
:10123C005A6812F0200FC0D05A6822F0A0025A60EF
:10124C000023029323689B680293029B012384F87A
:10125C004130636C43F0040363642046FFF79CFF4A
:10126C00ABE72046FFF75FFFDDE7704708B5026884
:10127C00436A991C41621B88D360438D9BB2013B2E
:10128C009BB24385438D9BB23BB90268536823F0F4
:10129C00A0035360438E9BB203B108BD012380F8B9
:1012AC004130FFF7E2FFF8E708B5C36A9A1CC26247
:1012BC000168144A914219D04FF04022D2681A802A
:1012CC00438E9BB2013B9BB24386438E9BB263B968
:1012DC0002680C4B9A420CD04FF04022536823F01A
:1012EC0060035360438D9BB22BB108BDA2F58062A5
:1012FC00E4E7054AF2E7012380F84130FFF7B5FF38
:10130C00F3E700BF003800400034004008B5026825
:10131C00144B9A421CD04FF04022436A991C4162F4
:10132C001B88D360438D9BB2013B9BB24385438D9D
:10133C009BB263B902680B4B9A420BD04FF0402220
:10134C00536823F0A0035360438E9BB223B108BDB6
:10135C00054AE2E7044AF3E7012380F84130FFF73E
:10136C0084FFF4E7003800400034004008B5C36A3D
:10137C009A1CC2620268D2681A80438E9BB2013BEF
:10138C009BB24386438E9BB23BB90268536823F0F1
:10139C0060035360438D9BB203B108BD012380F8F9
:1013AC004130FFF762FFF8E710B586B004460368DA
:1013BC009A680592704A93426FD04FF04022916820
:1013CC0004915B680393536802936368B3F5007FE1
:1013DC0001D0002B70D1059B13F0020F03D0039B9F
:1013EC0013F0800F5CD1049B13F0010F03D0029B10
:1013FC0013F0400F58D1049B13F0400F24D0029BE4
:10140C0013F0200F20D022685B4B9A4250D04FF043
:10141C004022536823F0600353602268536823F022
:10142C00A0035360002300932368DA6800929B6842
:10143C000093009B012384F84130636C43F002035A
:10144C0063642046FFF7A8FE059B13F0080F22D01B
:10145C00039B13F0200F1ED02268536823F0A003C7
:10146C0053602268444B9A4224D04FF04022536878
:10147C0023F0600353600023019323689B6801935E
:10148C00019B012384F84130636C43F004036364D3
:10149C002046FFF781FE06B010BDA2F580628EE7F4
:1014AC002046FFF7E3FE9EE72046FFF7FDFEA2E78E
:1014BC00324AAEE7314ADAE7049B13F0020F03D04D
:1014CC00029B13F0800F4AD1059B13F0010F03D040
:1014DC00039B13F0400F46D1059B13F0400F1CD01B
:1014EC00039B13F0200F18D02268536823F060037D
:1014FC0053602268204B9A4239D04FF040225368F7
:10150C0023F0A0035360012384F84130636C43F053
:10151C00020363642046FFF73FFE049B13F0080FA1
:10152C00B9D0029B13F0200FB5D02268124B9A420F
:10153C001FD04FF04022536823F0A0035360226861
:10154C00536823F060035360012384F84130636CCB
:10155C0043F0040363642046FFF71EFE9BE720461E
:10156C00FFF7D4FEB0E72046FFF700FFB4E7034ACD
:10157C00C5E7024ADFE700BF0038004000340040F6
:10158C0000283BD010B504460023836290F85130FC
:10159C00002B2ED0022384F851302268136823F0DC
:1015AC004003136022686368A1680B43E1680B4336
:1015BC0021690B4361690B43A16901F400710B4371
:1015CC00E1690B43216A0B43A16A0B431360226848
:1015DC00638B03F00403616A0B4353602268D36985
:1015EC0023F40063D36100206065012384F851303B
:1015FC0010BD80F85030FFF797FACBE70120704709
:10160C007047704770477047704710B504460368C1
:10161C001A6912F0020F11D0DA6812F0020F0DD015
:10162C006FF002021A610123037703689B6913F0C0
:10163C00030F70D0FFF7E6FF0023237723681A69A6
:10164C0012F0040F12D0DA6812F0040F0ED06FF003
:10165C0004021A610223237723689B6913F4407FE9
:10166C005FD02046FFF7CEFF0023237723681A694B
:10167C0012F0080F12D0DA6812F0080F0ED06FF0CB
:10168C0008021A61042323772368DB6913F0030F24
:10169C004ED02046FFF7B6FF0023237723681A6944
:1016AC0012F0100F12D0DA6812F0100F0ED06FF08B
:1016BC0010021A61082323772368DB6913F4407F37
:1016CC003DD02046FFF79EFF0023237723681A693D
:1016DC0012F0010F03D0DA6812F0010F36D1236833
:1016EC001A6912F0800F03D0DA6812F0800F34D12F
:1016FC0023681A6912F0400F03D0DA6812F0400F19
:10170C0032D123681A6912F0200F03D0DA6812F074
:10171C00200F30D110BDFFF774FF2046FFF773FF89
:10172C008AE72046FFF76DFF2046FFF76CFF9BE72B
:10173C002046FFF766FF2046FFF765FFACE7204623
:10174C00FFF75FFF2046FFF75EFFBDE76FF001027A
:10175C001A612046FFF754FFC1E76FF080021A614F
:10176C00204600F0B2F8C3E76FF040021A61204641
:10177C00FFF74AFFC5E76FF020021A61204600F020
:10178C00A3F8C7E70368314A904212D0B0F1804FFA
:10179C000FD0A2F57C4290420BD002F580629042B1
:1017AC0007D002F58062904203D002F57842904255
:1017BC0003D123F070034A681343244A90422AD081
:1017CC00B0F1804F27D0A2F57C42904223D002F595
:1017DC00806290421FD002F5806290421BD002F5CD
:1017EC007842904217D002F57052904213D002F515
:1017FC00806290420FD002F5806290420BD0A2F52D
:10180C009832904207D002F58062904203D002F5E4
:10181C008062904203D123F44073CA68134323F0CF
:10182C0080034A69134303608B68C3620B6883624D
:10183C00064B984206D003F58063984202D00123F0
:10184C00436170470B690363F9E700BF0000014077
:10185C00A8B110B5044690F83D305BB1022384F872
:10186C003D30211D2068FFF78DFF012384F83D30AA
:10187C00002010BD80F83C30FFF7A4F9EEE7012002
:10188C00704790F83C30012B1CD070B4012580F8C7
:10189C003C50022380F83D3004686268A36822F053
:1018AC0070020E68324323F0800349680B43626078
:1018BC000268936080F83D50002380F83C30184655
:1018CC0070BC704702207047704770470268D3683D
:1018DC0023F49073D3600268536923F001035361BE
:1018EC00202380F83A30704790F83930DBB2212B46
:1018FC0001D0022070478368B3F5805F17D002686F
:10190C00036A591C01621B785360C38C9BB2013B68
:10191C009BB2C384DBB90268D36823F08003D36025
:10192C000268D36843F04003D36000207047036A19
:10193C0002681B88C3F30803536003691BB9036A6D
:10194C0002330362E1E7036A01330362DDE700203F
:10195C00704700002DE9F04704460268136923F430
:10196C004053C1680B431361836802691343426996
:10197C001343C26913430168CA6822F4164222F069
:10198C000C021343CB600268536923F440738169E2
:10199C000B435361C369B3F5004F62D0D0F800809C
:1019AC00BB4B984500F01B8103F58063984500F014
:1019BC00168100F067FD00EB800000EB800065688D
:1019CC00AD00B0FBF5F5B34FA7FB05356D092E0146
:1019DC0000F058FD00EB800000EB80006568AD0066
:1019EC00B0FBF5FA00F04EFD00EB800000EB800040
:1019FC006568AD00B0FBF5F5A7FB05356D094FF03B
:101A0C00640909FB15A52D013235A7FB05356D09B8
:101A1C0005F0F005354400F035FD00EB800000EBDF
:101A2C0080006668B600B0FBF6F600F02BFD00EB0C
:101A3C00800000EB800063689B00B0FBF3F0A7FB19
:101A4C000030400909FB10694FEA091909F1320904
:101A5C00A7FB0937C7F343172F44C8F80870BDE834
:101A6C00F087D0F8008003F1804303F510439845CC
:101A7C005CD003F58063984558D000F003FD00EB73
:101A8C00800000EB800065686D00B0FBF5F5814FC0
:101A9C00A7FB05356D092E0100F0F4FC00EB80006E
:101AAC0000EB800065686D00B0FBF5FA00F0EAFC15
:101ABC0000EB800000EB800065686D00B0FBF5F575
:101ACC00A7FB05356D094FF0640909FB15A5ED0061
:101ADC003235A7FB05356D096D0005F4F8753544F5
:101AEC0000F0D0FC00EB800000EB80006668760014
:101AFC00B0FBF6F600F0C6FC00EB800000EB8000BB
:101B0C0063685B00B0FBF3F3A7FB03235B0909FBE2
:101B1C0013694FEAC90909F13209A7FB0937C7F361
:101B2C0042172F44C8F80870BDE8F08700F0BAFCE3
:101B3C0000EB800000EB800065686D00B0FBF5F5F4
:101B4C00544FA7FB05356D092E0100F0ABFC00EBE3
:101B5C00800000EB800065686D00B0FBF5FA00F0CA
:101B6C00A1FC00EB800000EB800065686D00B0FB11
:101B7C00F5F5A7FB05356D094FF0640909FB15A5B3
:101B8C00ED003235A7FB05356D096D0005F4F875D0
:101B9C00354400F087FC00EB800000EB80006668A9
:101BAC007600B0FBF6F600F07DFC00EB800000EB5D
:101BBC00800063685B00B0FBF3F3A7FB03235B09B6
:101BCC0009FB13694FEAC90909F13209A7FB093767
:101BDC00C7F342172F44C8F80870BDE8F08700F02F
:101BEC0061FC00EB800000EB80006568AD00B0FB91
:101BFC00F5F5284FA7FB05356D092E0100F052FCB9
:101C0C0000EB800000EB80006568AD00B0FBF5FADE
:101C1C0000F048FC00EB800000EB80006568AD0034
:101C2C00B0FBF5F5A7FB05356D094FF0640909FB11
:101C3C0015A52D013235A7FB05356D0905F0F0050D
:101C4C00354400F02FFC00EB800000EB8000666850
:101C5C00B600B0FBF6F600F025FC00EB800000EBC4
:101C6C00800063689B00B0FBF3F3A7FB03235B09C5
:101C7C0009FB13694FEA091909F13209A7FB093766
:101C8C00C7F343172F44C8F80870BDE8F08700BFAE
:101C9C00001001401F85EB5158B310B5044690F865
:101CAC0039300BB3242384F839302268D36823F4F9
:101CBC000053D3602046FFF74DFE2268136923F4CE
:101CCC00904313612268536923F02A0353612268FD
:101CDC00D36843F40053D3600020E063202384F8DE
:101CEC00393084F83A3010BD80F83830FEF78AFF6E
:101CFC00D8E701207047704708B50168CB6823F01E
:101D0C004003CB60202380F83930FFF7F4FF00202C
:101D1C0008BD704708B590F83A30DBB2222B01D0E1
:101D2C00022008BD8368B3F5805F0FD003690BBB3D
:101D3C00836A5A1C8262026852681A70C38D9BB205
:101D4C00013B9BB2C385F3B1002008BD826A0369D5
:101D5C0043B903685B68C3F308031380836A0233D7
:101D6C008362EBE703685B68DBB21380836A013341
:101D7C008362E3E7826A531C836203685B6803F047
:101D8C007F031370DAE70268D36823F02003D36073
:101D9C000268D36823F48073D3600268536923F01C
:101DAC0001035361202380F83A30FFF7B2FF002083
:101DBC0008BD704710B5044602681368D1685269B3
:101DCC0013F00F0005D113F0200F02D011F0200FEB
:101DDC0053D1002867D012F0010202D111F4907F88
:101DEC0061D013F0010F06D011F4807F03D0E06BAB
:101DFC0040F00100E06313F0040F04D01AB1E06B63
:101E0C0040F00200E06313F0020F04D01AB1E06B53
:101E1C0040F00400E06313F0080F04D01AB1E26B39
:101E2C0042F00802E263E26B002A48D013F0200F64
:101E3C0002D011F0200F24D123685B6903F040031A
:101E4C00E26B12F0080F00D13BB32046FFF73EFDCA
:101E5C0023685A6912F0400F1BD05A6922F04002D5
:101E6C005A61636B8BB11A4A1A65606B00F090FD76
:101E7C0028B3606B036D984710BD2046FFF74AFFEF
:101E8C0010BD2046FFF746FFD6E72046FFF791FF2F
:101E9C0010BD2046FFF78DFF10BD2046FFF789FFD0
:101EAC000023E36310BD13F0800F02D011F0800FFC
:101EBC0006D113F0400F02D011F0400F04D110BD29
:101ECC002046FFF711FD10BD2046FFF715FFF6E782
:101EDC00E11E000808B5806B0023C385C384FFF79F
:101EEC0068FF08BD002800F0BB8170B582B00446C5
:101EFC00036813F0010F3BD0A74B9B6803F00C0356
:101F0C00042B2CD0A44B9B6803F00C03082B21D082
:101F1C006368B3F5803F4FD0B3F5A02F52D09E4BE2
:101F2C001A6822F480321A601A6822F480221A602D
:101F3C006368002B50D000F0F3FD0546964B1B68F0
:101F4C0013F4003F14D100F0EBFD401B6428F5D9CD
:101F5C0003208AE1904B5B6813F4800FD8D08E4B32
:101F6C001B6813F4003F03D06368002B00F07A81E8
:101F7C00236813F0020F55D0874B9B6813F00C0F9E
:101F8C003ED0854B9B6803F00C03082B33D0E368E1
:101F9C00002B68D00122814B1A6000F0C1FD054670
:101FAC007D4B1B6813F0020F54D100F0B9FD401BA0
:101FBC000228F5D9032058E1774A136843F480339B
:101FCC001360B5E7744B1A6842F480221A601A68E1
:101FDC0042F480321A60ABE700F0A2FD05466E4B6E
:101FEC001B6813F4003FC3D000F09AFD401B64281B
:101FFC00F5D9032039E1684B5B6813F4800FC6D127
:10200C00654B1B6813F0020F04D0E368012B01D061
:10201C0001202AE1604A136823F0F803216943EA9E
:10202C00C1031360236813F0080F40D0636963B3D6
:10203C0001225B4B1A6000F073FD0546564B5B6F3B
:10204C0013F0020F33D100F06BFD401B0228F5D9C1
:10205C0003200AE1504A136823F0F803216943EA8C
:10206C00C1031360DEE700224C4B1A6000F058FDF0
:10207C000546494B1B6813F0020FD3D000F050FDFE
:10208C00401B0228F5D90320EFE00022444B1A60D4
:10209C0000F046FD0546404B5B6F13F0020F06D077
:1020AC0000F03EFD401B0228F5D90320DDE023683B
:1020BC0013F0040F79D0384B1B6C13F0805F33D1C5
:1020CC0000230193344B1A6C42F080521A641B6C3F
:1020DC0003F080530193019B0125324B1B6813F4D1
:1020EC00807F23D0A368012B34D0052B38D02A4B0A
:1020FC001A6F22F001021A671A6F22F004021A6793
:10210C00A368002B36D000F00BFD0646224B1B6F4C
:10211C0013F0020F48D100F003FD801B41F288330D
:10212C009842F3D90320A0E00025D6E71D4A136896
:10213C0043F48073136000F0F3FC0646194B1B68E4
:10214C0013F4807FCED100F0EBFC801B0228F5D974
:10215C0003208AE0104A136F43F001031367CFE7A3
:10216C000D4B1A6F42F004021A671A6F42F001020B
:10217C001A67C5E700F0D4FC0646074B1B6F13F03B
:10218C00020F11D000F0CCFC801B41F28833984236
:10219C00F3D9032069E000BF003802400000474239
:1021AC00800E474200700040E5B9A369002B5BD05C
:1021BC00304A926802F00C02082A58D0022B17D031
:1021CC0000222D4B1A6000F0ABFC0446294B1B6817
:1021DC0013F0007F42D000F0A3FC001B0228F5D9BD
:1021EC00032042E0234A136C23F080531364DCE792
:1021FC000022214B1A6000F093FC05461D4B1B6816
:10220C0013F0007F06D000F08BFC401B0228F5D9A0
:10221C0003202AE0E369226A1343626A43EA8213C9
:10222C00A26A5208013A43EA0243E26A43EA0263B1
:10223C00104A53600122104B1A6000F071FC0446E6
:10224C000C4B1B6813F0007F06D100F069FC001BDF
:10225C000228F5D9032008E0002006E0002004E065
:10226C0001207047012000E0002002B070BD012069
:10227C00FBE700BF0038024060004742F8B5254B31
:10228C009B6803F00C03042B41D0082B01D022488F
:10229C00F8BD204B5A6802F03F025B6813F4800FC4
:1022AC0012D01C4B5968C1F3881100231B48A1FBA9
:1022BC000001FEF73DF8174B5B68C3F30143013394
:1022CC005B00B0FBF3F0F8BD124B5B68C3F38813F3
:1022DC001E4600275C010025E41A65EB0705A901E1
:1022EC0041EA9461A001001B61EB0501CB0043EABC
:1022FC005073C400A01943EB07018B0243EA9053BF
:10230C008402204619460023FEF712F8D3E703484F
:10231C00F8BD00BF003802400024F40040787D0175
:10232C00002800F09D8070B504464F4B1B6803F0ED
:10233C000F038B4209D2CBB24B4A1370136803F0D4
:10234C000F03994201D0012070BD236813F0020FD6
:10235C0017D013F0040F04D0444A936843F4E053AD
:10236C009360236813F0080F04D0404A936843F439
:10237C00604393603D4A936823F0F003A0680343E5
:10238C0093600D46236813F0010F32D06368012B64
:10239C0021D09A1E012A25D9344A126812F0020F54
:1023AC0060D032498A6822F0030213438B6000F03C
:1023BC00B7FB06462D4B9B6803F00C036268B3EB2E
:1023CC00820F16D000F0ACFB801B41F28833984290
:1023DC00F0D9032070BD254A126812F4003FE0D1F9
:1023EC00012070BD214A126812F0007FD9D1012062
:1023FC0070BD1D4B1B6803F00F039D4209D2EAB25E
:10240C00194B1A701B6803F00F039D4201D0012079
:10241C0070BD236813F0040F06D0144A936823F49C
:10242C00E053E1680B439360236813F0080F07D067
:10243C000E4A936823F46043216943EAC103936015
:10244C00FFF71CFF094B9B68C3F30313084AD35CCB
:10245C00D840084B1860002000F016FB002070BD1F
:10246C0001207047012070BD003C02400038024042
:10247C00F02B000808000020014B1868704700BFC3
:10248C000800002008B5FFF7F7FF044B9B68C3F367
:10249C008223034AD35CD84008BD00BF00380240F9
:1024AC00002C000808B5FFF7E7FF044B9B68C3F34B
:1024BC004233034AD35CD84008BD00BF0038024009
:1024CC00002C000830B583B00446036813F0030FEA
:1024DC0014D1236813F00C0F5AD1236813F0200F7A
:1024EC0040F0AF80236813F0100F00F0118194F8C6
:1024FC002C20884B1A60002003B030BD0022864B84
:10250C001A6000F00DFB0546844B1B6813F0006F3E
:10251C0006D000F005FB401B0228F5D90320EBE7A1
:10252C00236813F0010F07D06268A3681B0743EA06
:10253C0082137A4AC2F88430236813F0020F15D044
:10254C00764AD2F884106068E3681B0643EA80136D
:10255C0001F0E0410B43C2F88430D2F88C3023F008
:10256C001F03E16901390B43C2F88C3001226A4B1D
:10257C001A6000F0D5FA0546684B1B6813F0006F23
:10258C00A7D100F0CDFA401B0228F5D90320B3E700
:10259C000022634B1A6000F0C3FA05465F4B1B68C0
:1025AC0013F0005F06D000F0BBFA401B0228F5D9EF
:1025BC000320A1E7236813F0040F16D0574AD2F872
:1025CC008810206963691B0643EA801301F0E0411F
:1025DC000B43C2F88830D2F88C3023F4F853216ABC
:1025EC00013943EA0123C2F88C30236813F0080F39
:1025FC0014D04A4AD2F88830216903F0706343EA58
:10260C008113A16943EA0173C2F88830D2F88C3087
:10261C0023F44033616A0B43C2F88C300122404BE7
:10262C001A6000F07DFA05463C4B1B6813F0005F06
:10263C007FF453AF00F074FA401B0228F4D9032046
:10264C005AE700230193354B1A6C42F080521A64FE
:10265C001B6C03F080530193019B324A136843F4C3
:10266C008073136000F05CFA05462E4B1B6813F464
:10267C00807F06D100F054FA401B0228F5D90320C4
:10268C003AE7264B1B6F13F4407312D0A26A02F484
:10269C00407293420DD0214B1A6F22F440722249A2
:1026AC0001200860002008601A671B6F13F0010FEF
:1026BC0012D1A36A03F44072B2F5407F1DD0174AC1
:1026CC00936823F4F813936014490B6FA26AC2F356
:1026DC000B0213430B6705E700F022FA05460F4B7C
:1026EC001B6F13F0020FE4D100F01AFA401B41F2F9
:1026FC0088339842F3D90320FEE608498A6822F40D
:10270C00F81223F0704323F4407313438B60DBE720
:10271C000020F1E6E01147426800474200380240D1
:10272C007000474200700040400E474201282AD1F9
:10273C00174B9B6813F4000303D0012B25D11548CC
:10274C007047134B5B6813F4800F14D0104B5B680D
:10275C0003F03F031048B0FBF3F30D4AD2F88400AA
:10276C00C0F3881000FB03F0D2F88430C3F302737B
:10277C00B0FBF3F07047064B5B6803F03F03074870
:10278C00B0FBF3F3E9E7002070470020704700BF6F
:10279C00003802400080BB0040787D010024F4002A
:1027AC00F0B583B000244BE04FEAD40E0EF1080EC6
:1027BC0050F82E2004F00706B6000F27B74022EA87
:1027CC0007020F6907FA06F6324340F82E2046E05E
:1027DC00092600E0002606FA0EF632430233644E58
:1027EC0046F82320634B1A68EB4302EA03064F6852
:1027FC0017F4803F01D045EA02065E4A1660526823
:10280C0003EA02064F6817F4003F01D045EA0206BE
:10281C00584A5660926803EA02064F6817F4801F04
:10282C0001D045EA0206534A9660D26813404E68BE
:10283C0016F4001F01D045EA02034E4AD36001345E
:10284C000F2C00F292800123A3400A6803EA0205D0
:10285C00AB42F4D14A68022AA6D0122AA4D0066848
:10286C004FEA440E032202FA0EF2D24316404F688E
:10287C0007F0030707FA0EF73E4306604E68771E13
:10288C00012F03D9112E01D0122E0FD186681640BC
:10289C00CF6807FA0EF73E438660466826EA0303C4
:1028AC004E68C6F30016A64033434360C3681A4013
:1028BC008B6803FA0EF31A43C2604B6813F0805F07
:1028CC00BDD0002301932C4B5A6C42F480425A64C5
:1028DC005B6C03F480430193019BA3089E1C244A68
:1028EC0052F8262004F003064FEA860E0F2606FA4D
:1028FC000EF622EA0602214FB8423FF46BAF204E8F
:10290C00B04222D006F58066B04220D006F5806633
:10291C00B0421ED006F58066B0421CD006F580662B
:10292C00B0421AD006F58066B04218D006F5806623
:10293C00B04216D006F58066B04214D006F580661B
:10294C00B0423FF445AF0A2645E7012643E702268D
:10295C0041E703263FE704263DE705263BE706262D
:10296C0039E7072637E7082635E703B0F0BD00BF87
:10297C0000380140003C0140003802400000024099
:10298C000004024012B909048161704781617047EB
:10299C0090F83530DBB2022B03D080234365012045
:1029AC007047052380F835300268136823F0010363
:1029BC001360002070470000074AD36823F4E063DB
:1029CC001B041B0C000200F4E060184340F0BF60D5
:1029DC0040F40030D060704700ED00E030B4164B8E
:1029EC00DB68C3F30223C3F10704042C28BF0424BF
:1029FC001D1D062D17D9033B012505FA04F4013CD6
:102A0C002140994005FA03F3013B13401943002878
:102A1C000BDB0901C9B200F1604000F5614080F8A0
:102A2C00001330BC70470023E6E700F00F000901EB
:102A3C00C9B2024B1954F4E700ED00E014ED00E0CC
:102A4C00002808DB420900F01F00012303FA00F004
:102A5C00014B43F82200704700E100E00138B0F16F
:102A6C00807F0AD2064B5860F021064A82F8231068
:102A7C000020986007221A6070470120704700BF41
:102A8C0010E000E000ED00E010B504460E4B1878A5
:102A9C004FF47A73B3FBF0F30C4A1068B0FBF3F00D
:102AAC00FFF7DCFF68B90F2C01D9012010BD002203
:102ABC0021464FF0FF30FFF791FF054B1C600020C3
:102ACC0010BD012010BD00BF000000200800002038
:102ADC000400002008B50B4B1A6842F400721A600F
:102AEC001A6842F480621A601A6842F480721A60A2
:102AFC000320FFF761FF0020FFF7C6FFFDF724FF5F
:102B0C00002008BD003C0240034A1168034B1B78AF
:102B1C000B441360704700BFB00100200000002080
:102B2C00014B1868704700BFB00100200F49D1F865
:102B3C00883043F47003C1F888300D4B1A6842F0AA
:102B4C0001021A60002098601A6822F0847222F444
:102B5C0080321A60074A5A601A6822F480221A607E
:102B6C00D8604FF000638B60704700BF00ED00E051
:102B7C000038024010300024DFF834D0002103E08C
:102B8C000C4B5B58435004310B480C4B42189A4287
:102B9C00F6D30B4A02E0002342F8043B094B9A425D
:102BAC00F9D3FFF7C3FFFDF74DFBFDF791FE70471F
:102BBC0000000320182C0008000000200C0000204E
:102BCC000C000020B4010020FEE70000F8B500BFA7
:102BDC00F8BC08BC9E467047F8B500BFF8BC08BCF2
:042BEC009E4670474A
:102BF00000000000000000000102030406070809AD
:082C00000000000001020304C2
:082C080064D7FF7F010000000A
:042C1000190200089D
:042C1400F1010008C2
:0C2C180001000000100000000024F40087
:0400000508002B853F
:00000001FF
