:020000040800F2
:10000000000003202D1D0008510B0008530B0008B1
:10001000550B0008570B0008590B000800000000A2
:100020000000000000000000000000005B0B000862
:100030005D0B0008000000005F0B0008610B00086A
:100040007D1D00087D1D00087D1D00087D1D000828
:100050007D1D00087D1D00087D1D00087D1D000818
:100060007D1D00087D1D00087D1D00087D1D000808
:100070007D1D00087D1D00087D1D00087D1D0008F8
:100080007D1D00087D1D00087D1D00087D1D0008E8
:100090007D1D00087D1D00087D1D00087D1D0008D8
:1000A0007D1D00087D1D00087D1D00087D1D0008C8
:1000B0007D1D00087D1D00087D1D00087D1D0008B8
:1000C0007D1D00087D1D00087D1D00087D1D0008A8
:1000D0007D1D00087D1D00087D1D00087D1D000898
:1000E0007D1D00087D1D00087D1D00087D1D000888
:1000F0007D1D00087D1D00087D1D00087D1D000878
:100100007D1D00087D1D00087D1D00087D1D000867
:100110007D1D00087D1D00087D1D00087D1D000857
:100120007D1D00087D1D00087D1D00087D1D000847
:100130007D1D00087D1D00087D1D00087D1D000837
:100140007D1D00087D1D00087D1D00087D1D000827
:100150007D1D00087D1D00087D1D00087D1D000817
:100160007D1D00087D1D00087D1D00087D1D000807
:100170007D1D00087D1D00087D1D00080000000099
:100180007D1D00087D1D00087D1D00087D1D0008E7
:100190007D1D00087D1D00087D1D00087D1D0008D7
:0C01A0007D1D00087D1D00087D1D00086D
:1001AC00044B05481B1A062B02D9044B03B1184704
:1001BC00704700BF0F0000200C0000200000000062
:1001CC0005490648091A891001EBD171491002D072
:1001DC00034B03B1184770470C0000200C000020A3
:1001EC000000000010B5064C237843B9FFF7D8FF88
:1001FC00044B13B10448AFF300800123237010BDEE
:10020C000C00002000000000801D000808B5084B01
:10021C001BB108490848AFF300800848036813B9BC
:10022C00BDE80840CCE7064B002BF9D09847F7E720
:10023C000000000010000020801D00080C000020B1
:10024C000000000070B50F4E0F4D761BB61018BF96
:10025C00002405D0013455F8043B9847A642F9D147
:10026C000A4E0B4D761B01F085FDB61018BF00240D
:10027C0006D0013455F8043B9847A642F9D170BD1D
:10028C0070BD00BFB81D0008B81D0008BC1D0008DB
:10029C00B81D000870B4860746D0541E002A41D001
:1002AC00CAB2034602E014F1FF343BD303F8012B2E
:1002BC009D07F8D1032C2ED9CDB245EA05250F2C7C
:1002CC0045EA054519D903F110022646103E0F2EBA
:1002DC0042F8105C42F80C5C42F8085C42F8045C92
:1002EC0002F11002F2D8A4F1100222F00F0204F075
:1002FC000F041032032C13440DD91E462246043A27
:10030C00032A46F8045BFAD8221F22F003020432B7
:10031C00134404F003042CB1C9B21C4403F8011BB0
:10032C009C42FBD170BC704714460346C2E700BF29
:10033C0053B94AB9002908BF00281CBF4FF0FF3140
:10034C004FF0FF3000F07AB9ADF1080C6DE904CE36
:10035C0000F006F8DDF804E0DDE9022304B0704794
:10036C002DE9F0478C460D460446089E002B51D1D2
:10037C008A4217466DD9B2FA82FEBEF1000F0BD03D
:10038C00CEF1200C01FA0EF520FA0CFC02FA0EF755
:10039C004CEA050C00FA0EF44FEA174A250CBCFB8C
:1003AC00FAF81FFA87F90AFB18CC45EA0C4508FB4A
:1003BC0009F3AB420AD9ED1908F1FF3280F0238121
:1003CC00AB4240F22081A8F102083D44ED1AA4B2E0
:1003DC00B5FBFAF00AFB105544EA054400FB09F999
:1003EC00A14509D9E41900F1FF3380F00A81A14538
:1003FC0040F2078102383C44A4EB090440EA08406F
:10040C000021002E61D024FA0EF4002334607360B6
:10041C00BDE8F0878B4207D9002E54D0002186E826
:10042C0021000846BDE8F087B3FA83F1002940F0BB
:10043C008E80AB4202D3824200F2FA80841A65EBC2
:10044C0003050120AC46002E3FD086E81010BDE815
:10045C00F08712B90127B7FBF2F7B7FA87FEBEF1A6
:10046C00000F34D1EB1B3A0C1FFA87FC0121B3FBB4
:10047C00F2F8250C02FB183345EA03450CFB08F394
:10048C00AB4207D9ED1908F1FF3002D2AB4200F2B2
:10049C00D1808046ED1AA3B2B5FBF2F002FB1055E9
:1004AC0043EA05440CFB00FCA44507D9E41900F110
:1004BC00FF3302D2A44500F2B8801846A4EB0C041A
:1004CC0040EA08409DE731463046BDE8F087CEF162
:1004DC00200405FA0EF307FA0EF720FA04F83A0C8A
:1004EC0025FA04F448EA0308B4FBF2F14FEA184584
:1004FC0002FB11441FFA87FC45EA044501FB0CF38F
:10050C00AB4200FA0EF409D9ED1901F1FF3080F07D
:10051C008A80AB4240F2878002393D44EB1A1FFAC5
:10052C0088F5B3FBF2F002FB103345EA034500FB00
:10053C000CF3AB4207D9ED1900F1FF386FD2AB4287
:10054C006DD902383D44EB1A40EA01418FE7C1F105
:10055C00200722FA07F88B4005FA01F448EA030356
:10056C0020FA07FE4FEA134CFD404EEA040EB5FB91
:10057C00FCF94FEA1E440CFB19551FFA83F844EAA8
:10058C00054509FB08F4AC4202FA01F200FA01FA43
:10059C0008D9ED1809F1FF3043D2AC4241D9A9F189
:1005AC0002091D442D1B1FFA8EFEB5FBFCF00CFB43
:1005BC0010554EEA054400FB08F8A04507D9E4188D
:1005CC0000F1FF3529D2A04527D902381C4440EA56
:1005DC000940A4EB0804A0FB02894C45C6464D46D5
:1005EC0015D312D056B1BAEB0E0364EB050404FA22
:1005FC0007F7CB401F43CC40376074600021BDE847
:10060C00F0871846F8E69046E0E6C245EAD2B8EB29
:10061C00020E69EB03050138E4E72846D7E74046AC
:10062C0091E78146BEE7014678E702383C4445E74E
:10063C00084608E7A8F102083D442BE7704700BFC5
:10064C002DE9F04F8FB0002409940A940B940C946C
:10065C000D940194AA4B1A6B42F004021A631A6BA4
:10066C0002F004020192019A02941A6B42F02002E9
:10067C001A631A6B02F020020292029A03941A6B0C
:10068C0042F080021A631A6B02F080020392039A02
:10069C0004941A6B42F001021A631A6B02F0010205
:1006AC000492049A05941A6B42F002021A631A6BB4
:1006BC0002F002020592059A06941A6B42F040026F
:1006CC001A631A6B02F040020692069A07941A6B90
:1006DC0042F010021A631A6B02F010020792079A8A
:1006EC0008941A6B42F008021A631B6B03F00803A0
:1006FC000893089B22461621824801F030FA2246C4
:10070C008021814801F02BFADFF810A222464FF429
:10071C006041504601F023FA224646F203017B4821
:10072C0001F01DFA22464FF68071794801F017FA54
:10073C0022464FF44051774801F011FA41F63F033D
:10074C00099302250A950B9403270C974FF00C087C
:10075C00CDF8348009A9504601F008F94FF48063B4
:10076C0009930A950B940C944FF00E09CDF8349024
:10077C0009A9504601F0FAF8012609960A950B943E
:10078C000C97CDF8348009A95E4801F0EFF81623D8
:10079C0009930A960B940C9409A95A4801F0E6F8AF
:1007AC0048F207030993DFF878B1CDF828B00B9421
:1007BC0009A9554801F0DAF841F6580309930A954E
:1007CC000B940C94CDF8349009A94F4801F0CEF855
:1007DC00802309930A960B940C9409A94A4801F0BA
:1007EC00C5F820230993CDF828B00B9409A94548E6
:1007FC0001F0BCF809970A950B940C9409230D93FE
:10080C0009A9454801F0B2F84FF0040BCDF824B01B
:10081C000A940B9409A9404801F0A8F84FF46043DE
:10082C0009930A960B940C9409A9504601F09EF872
:10083C0046F2030309930A960B940C9409A93348C6
:10084C0001F094F84FF6807309930A960B940C946C
:10085C0009A92F4801F08AF84FF4706309930A959F
:10086C000B940C94CDF8349009A92B4801F07EF828
:10087C004FF4504309930A950B940C94CDF83480A3
:10088C0009A9254801F072F84FF4005309930A9412
:10089C000B9409A9204801F069F84CF203730993F1
:1008AC000A950B940C97CDF8348009A9194801F0DE
:1008BC005DF84FF4006309930A940B9409A9154849
:1008CC0001F054F84FF4405309930A960B940C948E
:1008DC0009A9104801F04AF848F2301309930A9517
:1008EC000B940C97CDF8348009A9084801F03EF818
:1008FC004FF40C6309930A950B940C9412E000BF0F
:10090C00003802400008024000000240001802407B
:10091C0000100240000C024000040240001402408F
:10092C0000001210CDF8349009A92D4801F01EF8E2
:10093C004FF4986309930A950B940C94CDF834906A
:10094C0009A9284801F012F84FF4007309934FF0ED
:10095C00120ACDF828A00B960C94CDF834B009A946
:10096C00204801F003F84FF480730993CDF828A0C8
:10097C000B960C94CDF834B009A91B4800F0F6FF87
:10098C00482309930A950B940C94CDF8349009A93B
:10099C00164800F0EBFF4FF4A05309930A950B9403
:1009AC000C9409230D9309A90D4800F0DFFF602377
:1009BC0009930A950B940C97CDF8348009A90C482F
:1009CC0000F0D4FF09970A950B940C97CDF834805E
:1009DC0009A9084800F0CAFF0FB0BDE8F08F00BFAE
:1009EC00001802400008024000000240000C0240C7
:1009FC00000402400010024008B50948094B03608E
:100A0C00002343608360C3600361436183610362BD
:100A1C00436283620A23C36200F0BAF908BD00BFC7
:100A2C00280000200050014008B50848084B03601E
:100A3C004FF4E133436000238360C36003610C22F5
:100A4C0042618361C36100F059FC08BD8000002045
:100A5C000010014030B595B03022002108A8FFF7F6
:100A6C0019FC0024039404940594069407940194AF
:100A7C001C4B1A6C42F080521A641B6C03F08053AE
:100A8C000193019B0294184A136823F4404343F4E6
:100A9C0080431360136803F440430293029B0225C6
:100AAC00089501230B9310230C930E950F94082398
:100ABC00109332231193042312930723139308A842
:100ACC0000F04CFC0F230393049505944FF4C05392
:100ADC0006934FF4A0530793214603A800F074FE2D
:100AEC0015B030BD003802400070004000B583B036
:100AFC0001F0C4F8FFF7AEFFFFF7A2FDFFF77CFF94
:100B0C00FFF792FF40210C4801F022F80028F9D1A0
:100B1C000A4800F04DFA0128F4D102A9AB2301F8E0
:100B2C00013D14230822054800F072F90121044804
:100B3C0001F01BF8E6E700BF00140240280000207B
:100B4C00001802407047FEE7FEE7FEE7FEE770473D
:100B5C007047704708B501F0ABF808BD00B583B01D
:100B6C00002100910C4B5A6C42F480425A645A6C2E
:100B7C0002F480420092009A01911A6C42F0805269
:100B8C001A641B6C03F080530193019B072000F047
:100B9C00F5FF03B05DF804FB00380240F0B589B0F6
:100BAC0000230393049305930693079302681A4B4F
:100BBC009A4201D009B0F0BD0024019403F56843BA
:100BCC005A6C42F480125A645A6C02F480120192EC
:100BDC00019A02941A6B42F020021A631B6B03F009
:100BEC0020030293029B40230393022704970323C1
:100BFC00069305260796094D03A9284600F0B6FE74
:100C0C004FF460730393049705940694079603A915
:100C1C00284600F0ABFECDE7005001400014024026
:100C2C0000B589B0002303930493059306930793AF
:100C3C00026803F1804303F588339A4202D009B06D
:100C4C005DF804FB0021019103F594335A6C42F0DA
:100C5C0010025A645A6C02F010020192019A02912D
:100C6C001A6B42F001021A631B6B03F0010302932F
:100C7C00029B4FF4C0630393022304930123059357
:100C8C00032306930723079303A9024800F06EFE83
:100C9C00D5E700BF00000240F8B505460F461646E2
:100CAC001C462B689B6837EA03030CBF0123002307
:100CBC00B34237D0B4F1FF3FF3D001F005F8069BF7
:100CCC00C01A844201D9002CEBD12A68536823F056
:100CDC00E00353606B68B3F5827F0BD0AB6AB3F55E
:100CEC00005F14D0012385F85130002385F8503073
:100CFC000320F8BDAB68B3F5004F02D0B3F5806F9D
:100D0C00ECD12A68136823F040031360E6E72A68E5
:100D1C00136823F4005313602A68136843F40053D8
:100D2C001360DFE70020F8BD30B585B0164C2468A1
:100D3C00164DA5FB0434640D4FF47A7505FB04F4D1
:100D4C0003944468B4F5827F0BD0039BC3B1039B1F
:100D5C00013B039303689B6813F0800FF5D10023CC
:100D6C000FE00B460446009200228021FFF794FF0F
:100D7C00034630B1636D43F020036365032300E049
:100D8C000023184605B030BD08000020819F5E1678
:100D9C0000283BD010B504460023836290F85130F4
:100DAC00002B2ED0022384F851302268136823F0D4
:100DBC004003136022686368A1680B43E1680B432E
:100DCC0021690B4361690B43A16901F400710B4369
:100DDC00E1690B43216A0B43A16A0B431360226840
:100DEC00638B03F00403616A0B4353602268D3697D
:100DFC0023F40063D36100206065012384F8513033
:100E0C0010BD80F85030FFF7C9FECBE701207047CA
:100E1C002DE9F04182B090F85040012C03D1022012
:100E2C0002B0BDE8F0811D461746884604460123F2
:100E3C0080F8503000F048FF064694F85130DBB291
:100E4C00012B07D00220012384F85130002384F8B1
:100E5C005030E5E7B8F1000F00F09C80002F00F057
:100E6C009B80032384F8513000236365C4F83080E1
:100E7C00A786E786A363A387E38763642364A368D9
:100E8C00B3F5004F1DD023681A6812F0400F03D140
:100E9C001A6842F040021A60E368B3F5006F16D08E
:100EAC0063680BB1012F4CD12368226B12781A7333
:100EBC00236B01332363E38E9BB2013B9BB2E3862E
:100ECC003FE02268136843F480431360DBE76368F8
:100EDC000BB1012F16D12368226B1288DA60236BB9
:100EEC0002332363E38E9BB2013B9BB2E38609E0A2
:100EFC0000F0EAFE801BA84202D3B5F1FF3F4DD1B2
:100F0C00002D4DD0E38E9BB2002B2ED023689A6817
:100F1C0012F0020FECD0226B1288DA60236B0233D2
:100F2C002363E38E9BB2013B9BB2E386EAE700F0BE
:100F3C00CBFE801B854202D8B5F1FF3F32D1002D8C
:100F4C0032D0E28E92B282B123689A6812F0020F0C
:100F5C00EDD0226B12781A73236B01332363E28E6C
:100F6C0092B2013A92B2E286EBE73246294620462B
:100F7C00FFF7DAFE08B120236365A36833B9019348
:100F8C002368DA6801929B680193019B636D6BB9CE
:100F9C00002058E7012056E7012054E7032052E7D0
:100FAC00032050E703204EE703204CE701204AE7DB
:100FBC0090F85100704700002DE9F0470446026894
:100FCC00136923F44053C1680B43136183680269AE
:100FDC00134342691343C26913430168CA6822F47C
:100FEC00164222F00C021343CB600268536923F4BF
:100FFC00407381690B435361C369B3F5004F62D0F1
:10100C00D0F80080BB4B984500F01B8103F5806342
:10101C00984500F0168100F089FC00EB800000EB95
:10102C0080006568AD00B0FBF5F5B34FA7FB053547
:10103C006D092E0100F07AFC00EB800000EB8000C3
:10104C006568AD00B0FBF5FA00F070FC00EB8000B9
:10105C0000EB80006568AD00B0FBF5F5A7FB05352E
:10106C006D094FF0640909FB15A52D013235A7FB5D
:10107C0005356D0905F0F005354400F057FC00EB23
:10108C00800000EB80006668B600B0FBF6F600F05E
:10109C004DFC00EB800000EB800063689B00B0FB14
:1010AC00F3F0A7FB0030400909FB10694FEA09195E
:1010BC0009F13209A7FB0937C7F343172F44C8F8C6
:1010CC000870BDE8F087D0F8008003F1804303F589
:1010DC00104398455CD003F58063984558D000F0D8
:1010EC0025FC00EB800000EB800065686D00B0FB18
:1010FC00F5F5814FA7FB05356D092E0100F016FCA7
:10110C0000EB800000EB800065686D00B0FBF5FA29
:10111C0000F00CFC00EB800000EB800065686D00BB
:10112C00B0FBF5F5A7FB05356D094FF0640909FB1C
:10113C0015A5ED003235A7FB05356D096D0005F4DD
:10114C00F875354400F0F2FB00EB800000EB8000FA
:10115C0066687600B0FBF6F600F0E8FB00EB80006A
:10116C0000EB800063685B00B0FBF3F3A7FB032389
:10117C005B0909FB13694FEAC90909F13209A7FB9D
:10118C000937C7F342172F44C8F80870BDE8F08739
:10119C0000F0DCFB00EB800000EB800065686D006C
:1011AC00B0FBF5F5544FA7FB05356D092E0100F08A
:1011BC00CDFB00EB800000EB800065686D00B0FBA0
:1011CC00F5FA00F0C3FB00EB800000EB80006568D3
:1011DC006D00B0FBF5F5A7FB05356D094FF0640903
:1011EC0009FB15A5ED003235A7FB05356D096D0022
:1011FC0005F4F875354400F0A9FB00EB800000EB1A
:10120C00800066687600B0FBF6F600F09FFB00EB02
:10121C00800000EB800063685B00B0FBF3F3A7FB7E
:10122C0003235B0909FB13694FEAC90909F1320968
:10123C00A7FB0937C7F342172F44C8F80870BDE85D
:10124C00F08700F083FB00EB800000EB800065680A
:10125C00AD00B0FBF5F5284FA7FB05356D092E0148
:10126C0000F074FB00EB800000EB80006568AD00C3
:10127C00B0FBF5FA00F06AFB00EB800000EB80009D
:10128C006568AD00B0FBF5F5A7FB05356D094FF0B2
:10129C00640909FB15A52D013235A7FB05356D0930
:1012AC0005F0F005354400F051FB00EB800000EB3D
:1012BC0080006668B600B0FBF6F600F047FB00EB6A
:1012CC00800000EB800063689B00B0FBF3F3A7FB8E
:1012DC0003235B0909FB13694FEA091909F1320968
:1012EC00A7FB0937C7F343172F44C8F80870BDE8AC
:1012FC00F08700BF001001401F85EB5158B310B5AB
:10130C00044690F839300BB3242384F83930226822
:10131C00D36823F40053D3602046FFF74DFE2268B8
:10132C00136923F4904313612268536923F02A0351
:10133C0053612268D36843F40053D3600020E06308
:10134C00202384F8393084F83A3010BD80F83830D6
:10135C00FFF766FCD8E7012070470000002800F07A
:10136C00BB8170B582B00446036813F0010F3BD00B
:10137C00A74B9B6803F00C03042B2CD0A44B9B684D
:10138C0003F00C03082B21D06368B3F5803F4FD0DA
:10139C00B3F5A02F52D09E4B1A6822F480321A60FB
:1013AC001A6822F480221A606368002B50D000F077
:1013BC008BFC0546964B1B6813F4003F14D100F0D0
:1013CC0083FC401B6428F5D903208AE1904B5B68B1
:1013DC0013F4800FD8D08E4B1B6813F4003F03D04E
:1013EC006368002B00F07A81236813F0020F55D04C
:1013FC00874B9B6813F00C0F3ED0854B9B6803F01A
:10140C000C03082B33D0E368002B68D00122814BEE
:10141C001A6000F059FC05467D4B1B6813F0020F57
:10142C0054D100F051FC401B0228F5D9032058E19F
:10143C00774A136843F480331360B5E7744B1A682A
:10144C0042F480221A601A6842F480321A60ABE7C8
:10145C0000F03AFC05466E4B1B6813F4003FC3D0FA
:10146C0000F032FC401B6428F5D9032039E1684BAD
:10147C005B6813F4800FC6D1654B1B6813F0020F29
:10148C0004D0E368012B01D001202AE1604A1368E3
:10149C0023F0F803216943EAC1031360236813F0B6
:1014AC00080F40D0636963B301225B4B1A6000F0F4
:1014BC000BFC0546564B5B6F13F0020F33D100F05B
:1014CC0003FC401B0228F5D903200AE1504A13689B
:1014DC0023F0F803216943EAC1031360DEE700221D
:1014EC004C4B1A6000F0F0FB0546494B1B6813F09F
:1014FC00020FD3D000F0E8FB401B0228F5D90320E3
:10150C00EFE00022444B1A6000F0DEFB0546404B36
:10151C005B6F13F0020F06D000F0D6FB401B0228C5
:10152C00F5D90320DDE0236813F0040F79D0384B94
:10153C001B6C13F0805F33D100230193344B1A6C76
:10154C0042F080521A641B6C03F080530193019B90
:10155C000125324B1B6813F4807F23D0A368012B29
:10156C0034D0052B38D02A4B1A6F22F001021A679F
:10157C001A6F22F004021A67A368002B36D000F011
:10158C00A3FB0646224B1B6F13F0020F48D100F051
:10159C009BFB801B41F288339842F3D90320A0E0D7
:1015AC000025D6E71D4A136843F48073136000F0DE
:1015BC008BFB0646194B1B6813F4807FCED100F0D1
:1015CC0083FB801B0228F5D903208AE0104A136F95
:1015DC0043F001031367CFE70D4B1A6F42F004027F
:1015EC001A671A6F42F001021A67C5E700F06CFB2C
:1015FC000646074B1B6F13F0020F11D000F064FB73
:10160C00801B41F288339842F3D9032069E000BF74
:10161C000038024000004742800E474200700040F4
:10162C00E5B9A369002B5BD0304A926802F00C023A
:10163C00082A58D0022B17D000222D4B1A6000F02C
:10164C0043FB0446294B1B6813F0007F42D000F08B
:10165C003BFB001B0228F5D9032042E0234A136C04
:10166C0023F080531364DCE70022214B1A6000F056
:10167C002BFB05461D4B1B6813F0007F06D000F0BA
:10168C0023FB401B0228F5D903202AE0E369226AD8
:10169C001343626A43EA8213A26A5208013A43EA8C
:1016AC000243E26A43EA0263104A53600122104B80
:1016BC001A6000F009FB04460C4B1B6813F0007F0A
:1016CC0006D100F001FB001B0228F5D9032008E02D
:1016DC00002006E0002004E001207047012000E01B
:1016EC00002002B070BD0120FBE700BF00380240B3
:1016FC0060004742F8B5314B9B6803F00C03042B98
:10170C0059D0082B01D02E48F8BD2C4B5A6802F04A
:10171C003F025B6813F4800F2AD0284B5B68C3F33D
:10172C0088131E4600275C010025E41A65EB0705AB
:10173C00A90141EA9461A001001B61EB0501CB00FA
:10174C0043EA5073C400A01943EB07014B0243EA70
:10175C00D0534402204619460023FEF7E9FD174BEF
:10176C005B68C3F3014301335B00B0FBF3F0F8BDDE
:10177C00124B5B68C3F388131E4600275C010025DF
:10178C00E41A65EB0705A90141EA9461A001001B6D
:10179C0061EB0501CB0043EA5073C400A01943EB85
:1017AC0007018B0243EA905384022046194600231A
:1017BC00FEF7BEFDD3E70348F8BD00BF003802407A
:1017CC000024F40000127A00002800F09D8070B50F
:1017DC0004464F4B1B6803F00F038B4209D2CBB26C
:1017EC004B4A1370136803F00F03994201D0012088
:1017FC0070BD236813F0020F17D013F0040F04D040
:10180C00444A936843F4E0539360236813F0080F41
:10181C0004D0404A936843F4604393603D4A936814
:10182C0023F0F003A068034393600D46236813F084
:10183C00010F32D06368012B21D09A1E012A25D9C1
:10184C00344A126812F0020F60D032498A6822F0D2
:10185C00030213438B6000F037FA06462D4B9B684E
:10186C0003F00C036268B3EB820F16D000F02CFA75
:10187C00801B41F288339842F0D9032070BD254A71
:10188C00126812F4003FE0D1012070BD214A1268A9
:10189C0012F0007FD9D1012070BD1D4B1B6803F0E5
:1018AC000F039D4209D2EAB2194B1A701B6803F060
:1018BC000F039D4201D0012070BD236813F0040F6B
:1018CC0006D0144A936823F4E053E1680B43936009
:1018DC00236813F0080F07D00E4A936823F4604373
:1018EC00216943EAC1039360FFF704FF094B9B682E
:1018FC00C3F30313084AD35CD840084B186000208C
:10190C0000F096F9002070BD01207047012070BDD9
:10191C00003C024000380240981D000808000020DE
:10192C00014B1868704700BF0800002008B5FFF78E
:10193C00F7FF044B9B68C3F38223034AD35CD84064
:10194C0008BD00BF00380240A81D000808B5FFF70D
:10195C00E7FF044B9B68C3F34233034AD35CD84084
:10196C0008BD00BF00380240A81D0008F0B583B0C8
:10197C0000244BE04FEAD40E0EF1080E50F82E2046
:10198C0004F00706B6000F27B74022EA07020F69DA
:10199C0007FA06F6324340F82E2046E0092600E00E
:1019AC00002606FA0EF632430233644E46F8232024
:1019BC00634B1A68EB4302EA03064F6817F4803F47
:1019CC0001D045EA02065E4A1660526803EA020636
:1019DC004F6817F4003F01D045EA0206584A56609A
:1019EC00926803EA02064F6817F4801F01D045EA9B
:1019FC000206534A9660D26813404E6816F4001FD4
:101A0C0001D045EA02034E4AD36001340F2C00F298
:101A1C0092800123A3400A6803EA0205AB42F4D189
:101A2C004A68022AA6D0122AA4D006684FEA440EAD
:101A3C00032202FA0EF2D24316404F6807F0030756
:101A4C0007FA0EF73E4306604E68771E012F03D946
:101A5C00112E01D0122E0FD186681640CF6807FACE
:101A6C000EF73E438660466826EA03034E68C6F3CB
:101A7C000016A64033434360C3681A408B6803FAD0
:101A8C000EF31A43C2604B6813F0805FBDD0002385
:101A9C0001932C4B5A6C42F480425A645B6C03F4F5
:101AAC0080430193019BA3089E1C244A52F82620D4
:101ABC0004F003064FEA860E0F2606FA0EF622EA0B
:101ACC000602214FB8423FF46BAF204EB04222D0F9
:101ADC0006F58066B04220D006F58066B0421ED076
:101AEC0006F58066B0421CD006F58066B0421AD06E
:101AFC0006F58066B04218D006F58066B04216D066
:101B0C0006F58066B04214D006F58066B0423FF40C
:101B1C0045AF0A2645E7012643E7022641E703269F
:101B2C003FE704263DE705263BE7062639E707266F
:101B3C0037E7082635E703B0F0BD00BF0038014099
:101B4C00003C01400038024000000240000402400A
:101B5C000369194201D1002070470120704712B966
:101B6C0009048161704781617047436931EA03035D
:101B7C0001D081617047090481617047074AD368BD
:101B8C0023F4E0631B041B0C000200F4E060184318
:101B9C0040F0BF6040F40030D060704700ED00E0D2
:101BAC0030B4164BDB68C3F30223C3F10704042CD7
:101BBC0028BF04241D1D062D17D9033B012505FA4A
:101BCC0004F4013C2140994005FA03F3013B134016
:101BDC00194300280BDB0901C9B200F1604000F584
:101BEC00614080F8001330BC70470023E6E700F03A
:101BFC000F000901C9B2024B1954F4E700ED00E0E3
:101C0C0014ED00E00138B0F1807F0AD2064B586029
:101C1C00F021064A82F823100020986007221A60EF
:101C2C0070470120704700BF10E000E000ED00E0BD
:101C3C0010B504460E4B18784FF47A73B3FBF0F3DF
:101C4C000C4A1068B0FBF3F0FFF7DCFF68B90F2CFF
:101C5C0001D9012010BD002221464FF0FF30FFF7C3
:101C6C009FFF054B1C60002010BD012010BD00BF64
:101C7C0000000020080000200400002008B50B4BD9
:101C8C001A6842F400721A601A6842F480621A6090
:101C9C001A6842F480721A600320FFF76FFF00206D
:101CAC00FFF7C6FFFEF75AFF002008BD003C0240BC
:101CBC00034A1168034B1B780B441360704700BF39
:101CCC00C000002000000020014B1868704700BFC6
:101CDC00C00000200F49D1F8883043F47003C1F8DC
:101CEC0088300D4B1A6842F001021A60002098608F
:101CFC001A6822F0847222F480321A60074A5A6001
:101D0C001A6822F480221A60D8604FF000638B604E
:101D1C00704700BF00ED00E0003802401030002496
:101D2C00DFF834D0002103E00C4B5B5843500431F6
:101D3C000B480C4B42189A42F6D30B4A02E0002394
:101D4C0042F8043B094B9A42F9D3FFF7C3FFFEF765
:101D5C0079FAFEF7CBFE704700000320C01D000887
:101D6C00000000200C0000200C000020C40000200B
:101D7C00FEE70000F8B500BFF8BC08BC9E467047F3
:0C1D8C00F8B500BFF8BC08BC9E467047CC
:101D98000000000000000000010203040607080913
:081DA800000000000102030429
:081DB000BCE5FF7F010000000B
:041DB8001902000804
:041DBC00F101000829
:0C1DC00001000000100000000024F400EE
:0400000508001D2DA5
:00000001FF
